{"abi":[{"type":"constructor","inputs":[{"name":"vault_","type":"address","internalType":"address"},{"name":"uniswapV3Factory","type":"address","internalType":"address"}],"stateMutability":"nonpayable"},{"type":"function","name":"VAULT","inputs":[],"outputs":[{"name":"","type":"address","internalType":"contract IVault"}],"stateMutability":"view"},{"type":"function","name":"getAddressAPE","inputs":[{"name":"vaultId","type":"uint48","internalType":"uint48"}],"outputs":[{"name":"","type":"address","internalType":"address"}],"stateMutability":"view"},{"type":"function","name":"getReserves","inputs":[{"name":"vaultIds","type":"uint48[]","internalType":"uint48[]"}],"outputs":[{"name":"reserves","type":"tuple[]","internalType":"struct SirStructs.Reserves[]","components":[{"name":"reserveApes","type":"uint144","internalType":"uint144"},{"name":"reserveLPers","type":"uint144","internalType":"uint144"},{"name":"tickPriceX42","type":"int64","internalType":"int64"}]}],"stateMutability":"view"},{"type":"function","name":"getVaultStatus","inputs":[{"name":"vaultParams","type":"tuple","internalType":"struct SirStructs.VaultParameters","components":[{"name":"debtToken","type":"address","internalType":"address"},{"name":"collateralToken","type":"address","internalType":"address"},{"name":"leverageTier","type":"int8","internalType":"int8"}]}],"outputs":[{"name":"","type":"uint8","internalType":"enum Assistant.VaultStatus"}],"stateMutability":"view"},{"type":"function","name":"priceOfAPE","inputs":[{"name":"vaultParams","type":"tuple","internalType":"struct SirStructs.VaultParameters","components":[{"name":"debtToken","type":"address","internalType":"address"},{"name":"collateralToken","type":"address","internalType":"address"},{"name":"leverageTier","type":"int8","internalType":"int8"}]}],"outputs":[{"name":"num","type":"uint256","internalType":"uint256"},{"name":"den","type":"uint256","internalType":"uint256"}],"stateMutability":"view"},{"type":"function","name":"priceOfTEA","inputs":[{"name":"vaultParams","type":"tuple","internalType":"struct SirStructs.VaultParameters","components":[{"name":"debtToken","type":"address","internalType":"address"},{"name":"collateralToken","type":"address","internalType":"address"},{"name":"leverageTier","type":"int8","internalType":"int8"}]}],"outputs":[{"name":"num","type":"uint256","internalType":"uint256"},{"name":"den","type":"uint256","internalType":"uint256"}],"stateMutability":"view"},{"type":"function","name":"quoteBurn","inputs":[{"name":"isAPE","type":"bool","internalType":"bool"},{"name":"vaultParams","type":"tuple","internalType":"struct SirStructs.VaultParameters","components":[{"name":"debtToken","type":"address","internalType":"address"},{"name":"collateralToken","type":"address","internalType":"address"},{"name":"leverageTier","type":"int8","internalType":"int8"}]},{"name":"amountTokens","type":"uint256","internalType":"uint256"}],"outputs":[{"name":"amountCollateral","type":"uint144","internalType":"uint144"}],"stateMutability":"view"},{"type":"function","name":"quoteMint","inputs":[{"name":"isAPE","type":"bool","internalType":"bool"},{"name":"vaultParams","type":"tuple","internalType":"struct SirStructs.VaultParameters","components":[{"name":"debtToken","type":"address","internalType":"address"},{"name":"collateralToken","type":"address","internalType":"address"},{"name":"leverageTier","type":"int8","internalType":"int8"}]},{"name":"amountCollateral","type":"uint144","internalType":"uint144"}],"outputs":[{"name":"amountTokens","type":"uint256","internalType":"uint256"}],"stateMutability":"view"},{"type":"error","name":"VaultCanBeCreated","inputs":[]}],"bytecode":{"object":"0x60c0604052348015600f57600080fd5b5060405161220d38038061220d833981016040819052602c91605d565b6001600160a01b039081166080521660a052608b565b80516001600160a01b0381168114605857600080fd5b919050565b60008060408385031215606f57600080fd5b6076836042565b91506082602084016042565b90509250929050565b60805160a0516120e061012d6000396000818160bb015281816103fc015281816104a301528181610544015281816105f50152818161067801528181610719015281816107f50152818161087b0152818161094f01528181610b6301528181610c3301528181610da201528181610e6601528181610f5e01528181610ffb0152818161108101528181611155015261133d0152600061141401526120e06000f3fe608060405234801561001057600080fd5b50600436106100885760003560e01c80637ef3090a1161005b5780637ef3090a146101305780638d0f784414610151578063a0193ec414610164578063a4e59a9f1461018457600080fd5b8063049354b91461008d578063411557d1146100b657806358676d0c146100f557806358c6bdbd1461011d575b600080fd5b6100a061009b366004611952565b6101af565b6040516100ad919061196e565b60405180910390f35b6100dd7f000000000000000000000000000000000000000000000000000000000000000081565b6040516001600160a01b0390911681526020016100ad565b610108610103366004611952565b61049c565b604080519283526020830191909152016100ad565b61010861012b366004611952565b610671565b61014361013e3660046119bc565b6107f0565b6040519081526020016100ad565b6100dd61015f366004611a1a565b610d9b565b610177610172366004611a37565b610dd5565b6040516100ad9190611aae565b610197610192366004611b22565b610ff6565b6040516001600160901b0390911681526020016100ad565b60006101c16040830160208401611b76565b6001600160a01b03163b6000036101da57506000919050565b6101e76020830183611b76565b6001600160a01b03163b60000361020057506000919050565b60006102126040840160208501611b76565b60408051600481526024810182526020810180516001600160e01b03166318160ddd60e01b17905290516001600160a01b0392909216916102539190611b93565b600060405180830381855afa9150503d806000811461028e576040519150601f19603f3d011682016040523d82523d6000602084013e610293565b606091505b50509050806102a55750600092915050565b6102b26020840184611b76565b60408051600481526024810182526020810180516001600160e01b03166318160ddd60e01b17905290516001600160a01b0392909216916102f39190611b93565b600060405180830381855afa9150503d806000811461032e576040519150601f19603f3d011682016040523d82523d6000602084013e610333565b606091505b505080915050806103475750600092915050565b60031961035a6060850160408601611bd1565b60000b128061037b575060026103766060850160408601611bd1565b60000b135b156103895750600092915050565b61039483606461140d565b1580156103aa57506103a8836101f461140d565b155b80156103bf57506103bd83610bb861140d565b155b80156103d457506103d28361271061140d565b155b156103e25750600192915050565b604051630bb7cc4160e21b81526000906001600160a01b037f00000000000000000000000000000000000000000000000000000000000000001690632edf310490610431908790600401611bee565b606060405180830381865afa15801561044e573d6000803e3d6000fd5b505050506040513d601f19601f820116820180604052508101906104729190611ca6565b9050806040015165ffffffffffff16600003610492575060029392505050565b5060039392505050565b60008060007f00000000000000000000000000000000000000000000000000000000000000006001600160a01b031663fbd98edf856040518263ffffffff1660e01b81526004016104ed9190611bee565b606060405180830381865afa15801561050a573d6000803e3d6000fd5b505050506040513d601f19601f8201168201806040525081019061052e9190611cfa565b905080602001516001600160901b0316925060007f00000000000000000000000000000000000000000000000000000000000000006001600160a01b0316632edf3104866040518263ffffffff1660e01b815260040161058e9190611bee565b606060405180830381865afa1580156105ab573d6000803e3d6000fd5b505050506040513d601f19601f820116820180604052508101906105cf9190611ca6565b604081810151905163bd85b03960e01b815265ffffffffffff90911660048201529091507f00000000000000000000000000000000000000000000000000000000000000006001600160a01b03169063bd85b03990602401602060405180830381865afa158015610644573d6000803e3d6000fd5b505050506040513d601f19601f820116820180604052508101906106689190611d42565b92505050915091565b60008060007f00000000000000000000000000000000000000000000000000000000000000006001600160a01b031663fbd98edf856040518263ffffffff1660e01b81526004016106c29190611bee565b606060405180830381865afa1580156106df573d6000803e3d6000fd5b505050506040513d601f19601f820116820180604052508101906107039190611cfa565b905080600001516001600160901b0316925060007f00000000000000000000000000000000000000000000000000000000000000006001600160a01b0316632edf3104866040518263ffffffff1660e01b81526004016107639190611bee565b606060405180830381865afa158015610780573d6000803e3d6000fd5b505050506040513d601f19601f820116820180604052508101906107a49190611ca6565b90506107b38160400151610d9b565b6001600160a01b03166318160ddd6040518163ffffffff1660e01b8152600401602060405180830381865afa158015610644573d6000803e3d6000fd5b6000807f00000000000000000000000000000000000000000000000000000000000000006001600160a01b031663458e8e6b6040518163ffffffff1660e01b8152600401608060405180830381865afa158015610851573d6000803e3d6000fd5b505050506040513d601f19601f820116820180604052508101906108759190611d6d565b905060007f00000000000000000000000000000000000000000000000000000000000000006001600160a01b0316632edf3104866040518263ffffffff1660e01b81526004016108c59190611bee565b606060405180830381865afa1580156108e2573d6000803e3d6000fd5b505050506040513d601f19601f820116820180604052508101906109069190611ca6565b9050806040015165ffffffffffff166000036109355760405163f4f51ab360e01b815260040160405180910390fd5b60405163fbd98edf60e01b81526000906001600160a01b037f0000000000000000000000000000000000000000000000000000000000000000169063fbd98edf90610984908990600401611bee565b606060405180830381865afa1580156109a1573d6000803e3d6000fd5b505050506040513d601f19601f820116820180604052508101906109c59190611cfa565b90508615610b3d57600080806109e160608a0160408b01611bd1565b60000b12610a205761271091506109fe6060890160408a01611bd1565b60ff16856000015161ffff16901b612710610a199190611e12565b9050610a60565b6000610a3260608a0160408b01611bd1565b610a3b90611e25565b60ff16612710901b9050809250856000015161ffff1681610a5c9190611e12565b9150505b600081610a76846001600160901b038b16611e43565b610a809190611e70565b90506000610a918660400151610d9b565b90506000816001600160a01b03166318160ddd6040518163ffffffff1660e01b8152600401602060405180830381865afa158015610ad3573d6000803e3d6000fd5b505050506040513d601f19601f82011682018060405250810190610af79190611d42565b90508015610b1c57610b17818488600001516001600160901b0316611471565b610b31565b8551610b31906001600160901b031684611e12565b98505050505050610d91565b6040828101519051631b3f2b0160e21b815265ffffffffffff90911660048201526000907f00000000000000000000000000000000000000000000000000000000000000006001600160a01b031690636cfcac0490602401602060405180830381865afa158015610bb2573d6000803e3d6000fd5b505050506040513d601f19601f82011682018060405250810190610bd69190611e84565b90506000610be987866020015184611525565b9050806040015183602001818151610c019190611ea7565b6001600160901b0316905250604084810151905163bd85b03960e01b815265ffffffffffff90911660048201526000907f00000000000000000000000000000000000000000000000000000000000000006001600160a01b03169063bd85b03990602401602060405180830381865afa158015610c82573d6000803e3d6000fd5b505050506040513d601f19601f82011682018060405250810190610ca69190611d42565b905060008115610cda57610cd58284606001516001600160901b031687602001516001600160901b0316611471565b610d06565b610d06610ced60408c0160208d01611b76565b86602001518560600151610d019190611ea7565b6115ba565b9050610d128183611e12565b9150826060015185602001818151610d2a9190611ea7565b6001600160901b03169052508115610d6657610d618284600001516001600160901b031687602001516001600160901b0316611471565b610d8a565b610d8a610d7960408c0160208d01611b76565b60208701518551610d019190611ea7565b9750505050505b5050509392505050565b6000610dcf7f00000000000000000000000000000000000000000000000000000000000000008365ffffffffffff16611783565b92915050565b60608167ffffffffffffffff811115610df057610df0611c42565b604051908082528060200260200182016040528015610e3b57816020015b6040805160608101825260008082526020808301829052928201528252600019909201910181610e0e5790505b50604080516060810182526000808252602082018190529181018290529192505b83811015610fee577f00000000000000000000000000000000000000000000000000000000000000006001600160a01b031663d2f3fd09868684818110610ea557610ea5611ec6565b9050602002016020810190610eba9190611a1a565b6040516001600160e01b031960e084901b16815265ffffffffffff9091166004820152602401606060405180830381865afa158015610efd573d6000803e3d6000fd5b505050506040513d601f19601f82011682018060405250810190610f219190611edc565b6040805163fbd98edf60e01b815282516001600160a01b0390811660048301526020840151811660248301529183015160000b60448201529193507f0000000000000000000000000000000000000000000000000000000000000000169063fbd98edf90606401606060405180830381865afa158015610fa5573d6000803e3d6000fd5b505050506040513d601f19601f82011682018060405250810190610fc99190611cfa565b838281518110610fdb57610fdb611ec6565b6020908102919091010152600101610e5c565b505092915050565b6000807f00000000000000000000000000000000000000000000000000000000000000006001600160a01b031663458e8e6b6040518163ffffffff1660e01b8152600401608060405180830381865afa158015611057573d6000803e3d6000fd5b505050506040513d601f19601f8201168201806040525081019061107b9190611d6d565b905060007f00000000000000000000000000000000000000000000000000000000000000006001600160a01b0316632edf3104866040518263ffffffff1660e01b81526004016110cb9190611bee565b606060405180830381865afa1580156110e8573d6000803e3d6000fd5b505050506040513d601f19601f8201168201806040525081019061110c9190611ca6565b9050806040015165ffffffffffff1660000361113b5760405163f4f51ab360e01b815260040160405180910390fd5b60405163fbd98edf60e01b81526000906001600160a01b037f0000000000000000000000000000000000000000000000000000000000000000169063fbd98edf9061118a908990600401611bee565b606060405180830381865afa1580156111a7573d6000803e3d6000fd5b505050506040513d601f19601f820116820180604052508101906111cb9190611cfa565b905086156113175760006111e28360400151610d9b565b90506000816001600160a01b03166318160ddd6040518163ffffffff1660e01b8152600401602060405180830381865afa158015611224573d6000803e3d6000fd5b505050506040513d601f19601f820116820180604052508101906112489190611d42565b9050600061126484600001516001600160901b03168984611471565b6001600160901b031690506000808061128360608d0160408e01611bd1565b60000b126112c25761271091506112a060608c0160408d01611bd1565b60ff16886000015161ffff16901b6127106112bb9190611e12565b9050611302565b60006112d460608d0160408e01611bd1565b6112dd90611e25565b60ff16612710901b9050809250886000015161ffff16816112fe9190611e12565b9150505b8061130d8385611e43565b610b319190611e70565b604082810151905163bd85b03960e01b815265ffffffffffff90911660048201526000907f00000000000000000000000000000000000000000000000000000000000000006001600160a01b03169063bd85b03990602401602060405180830381865afa15801561138c573d6000803e3d6000fd5b505050506040513d601f19601f820116820180604052508101906113b09190611d42565b905060006113cc83602001516001600160901b03168884611471565b6001600160901b03169050600061271090506000866020015161ffff166127106113f69190611e12565b9050806114038385611e43565b610d8a9190611e70565b600061145e7f00000000000000000000000000000000000000000000000000000000000000006114596114466040870160208801611b76565b6114536020880188611b76565b866117e6565b611851565b6001600160a01b03163b15159392505050565b60008080600019858709858702925082811083820303915050806000036114aa576000841161149f57600080fd5b50829004905061151e565b8084116114b657600080fd5b600084868809851960019081018716968790049682860381900495909211909303600082900391909104909201919091029190911760038402600290811880860282030280860282030280860282030280860282030280860282030280860290910302029150505b9392505050565b60408051608081018252600080825260208201819052918101829052606081019190915261271061ffff84168101806001600160901b03871683028161156d5761156d611e5a565b046001600160901b039081168085526109f69703811660ff95909516850296909604861660208401819052600a850487166060850181905294039390930390941660408201529392505050565b600080836001600160a01b03166318160ddd6040518163ffffffff1660e01b8152600401602060405180830381865afa1580156115fb573d6000803e3d6000fd5b505050506040513d601f19601f8201168201806040525081019061161f9190611d42565b905061ffff606067016345785d8a00006301e133806001611642600c600a61200d565b6116509063781a75c0611e43565b61165a919061201c565b611664919061202f565b61166f90600161205d565b611689906001600160481b031666f38a31408ae338611e43565b6116939190611e70565b6001600160481b03166001600160801b0316901b6116b1919061207c565b6001600160801b031681116116cf57826001600160901b031661177b565b61177b61ffff606067016345785d8a00006301e1338060016116f3600c600a61200d565b6117019063781a75c0611e43565b61170b919061201c565b611715919061202f565b61172090600161205d565b61173a906001600160481b031666f38a31408ae338611e43565b6117449190611e70565b6001600160481b03166001600160801b0316901b611762919061207c565b6001600160801b0316846001600160901b031683611471565b949350505050565b60006040518360005260ff600b53826020527f21c35dbe1b344a2488cf3321d6ce542f8e9f305544ff09e4993a62319a497c1f6040526055600b20601452806040525061d694600052600160345350506017601e206001600160a01b0316919050565b6040805160608101825260008082526020820181905291810191909152826001600160a01b0316846001600160a01b03161115611821579192915b50604080516060810182526001600160a01b03948516815292909316602083015262ffffff169181019190915290565b600081602001516001600160a01b031682600001516001600160a01b03161061187957600080fd5b815160208084015160408086015181516001600160a01b0395861681860152949092168482015262ffffff90911660608085019190915281518085038201815260808501909252815191909201206001600160f81b031960a08401529085901b6bffffffffffffffffffffffff191660a183015260b58201527fe34f199b19b2b4f47f68442619d555527d244f78a3297ea89325f843f87b8b5460d582015260f50160408051601f1981840301815291905280516020909101209392505050565b60006060828403121561194c57600080fd5b50919050565b60006060828403121561196457600080fd5b61151e838361193a565b602081016004831061199057634e487b7160e01b600052602160045260246000fd5b91905290565b80151581146119a457600080fd5b50565b6001600160901b03811681146119a457600080fd5b600080600060a084860312156119d157600080fd5b83356119dc81611996565b92506119eb856020860161193a565b915060808401356119fb816119a7565b809150509250925092565b65ffffffffffff811681146119a457600080fd5b600060208284031215611a2c57600080fd5b813561151e81611a06565b60008060208385031215611a4a57600080fd5b823567ffffffffffffffff811115611a6157600080fd5b8301601f81018513611a7257600080fd5b803567ffffffffffffffff811115611a8957600080fd5b8560208260051b8401011115611a9e57600080fd5b6020919091019590945092505050565b602080825282518282018190526000918401906040840190835b81811015611b175783516001600160901b0381511684526001600160901b036020820151166020850152604081015160070b604085015250606083019250602084019350600181019050611ac8565b509095945050505050565b600080600060a08486031215611b3757600080fd5b8335611b4281611996565b9250611b51856020860161193a565b9150608084013590509250925092565b6001600160a01b03811681146119a457600080fd5b600060208284031215611b8857600080fd5b813561151e81611b61565b6000825160005b81811015611bb45760208186018101518583015201611b9a565b506000920191825250919050565b8060000b81146119a457600080fd5b600060208284031215611be357600080fd5b813561151e81611bc2565b606081018235611bfd81611b61565b6001600160a01b031682526020830135611c1681611b61565b6001600160a01b031660208301526040830135611c3281611bc2565b8060000b60408401525092915050565b634e487b7160e01b600052604160045260246000fd5b6040516060810167ffffffffffffffff81118282101715611c8957634e487b7160e01b600052604160045260246000fd5b60405290565b8051600781900b8114611ca157600080fd5b919050565b60006060828403128015611cb957600080fd5b50611cc2611c58565b8251611ccd816119a7565b8152611cdb60208401611c8f565b60208201526040830151611cee81611a06565b60408201529392505050565b60006060828403128015611d0d57600080fd5b50611d16611c58565b8251611d21816119a7565b81526020830151611d31816119a7565b6020820152611cee60408401611c8f565b600060208284031215611d5457600080fd5b5051919050565b805161ffff81168114611ca157600080fd5b60006080828403128015611d8057600080fd5b506040516080810167ffffffffffffffff81118282101715611db257634e487b7160e01b600052604160045260246000fd5b604052611dbe83611d5b565b8152611dcc60208401611d5b565b60208201526040830151611ddf81611996565b6040820152611df060608401611d5b565b60608201529392505050565b634e487b7160e01b600052601160045260246000fd5b80820180821115610dcf57610dcf611dfc565b600081810b60808101611e3a57611e3a611dfc565b60000392915050565b8082028115828204841417610dcf57610dcf611dfc565b634e487b7160e01b600052601260045260246000fd5b600082611e7f57611e7f611e5a565b500490565b600060208284031215611e9657600080fd5b815160ff8116811461151e57600080fd5b6001600160901b038181168382160190811115610dcf57610dcf611dfc565b634e487b7160e01b600052603260045260246000fd5b60006060828403128015611eef57600080fd5b50611ef8611c58565b8251611f0381611b61565b81526020830151611f1381611b61565b60208201526040830151611cee81611bc2565b6001815b6001841115611f6157808504811115611f4557611f45611dfc565b6001841615611f5357908102905b60019390931c928002611f2a565b935093915050565b600082611f7857506001610dcf565b81611f8557506000610dcf565b8160018114611f9b5760028114611fa557611fc1565b6001915050610dcf565b60ff841115611fb657611fb6611dfc565b50506001821b610dcf565b5060208310610133831016604e8410600b8410161715611fe4575081810a610dcf565b611ff16000198484611f26565b806000190482111561200557612005611dfc565b029392505050565b600061151e60ff841683611f69565b81810381811115610dcf57610dcf611dfc565b60006001600160481b0383168061204857612048611e5a565b806001600160481b0384160491505092915050565b6001600160481b038181168382160190811115610dcf57610dcf611dfc565b60006001600160801b0383168061209557612095611e5a565b806001600160801b038416049150509291505056fea2646970667358221220315eb1e124e6e2136a38df019449b58f2517ad1b164c11b48c164585fd9d57ed64736f6c634300081a0033","linkReferences":{}},"methodIdentifiers":{"VAULT()":"411557d1","getAddressAPE(uint48)":"8d0f7844","getReserves(uint48[])":"a0193ec4","getVaultStatus((address,address,int8))":"049354b9","priceOfAPE((address,address,int8))":"58c6bdbd","priceOfTEA((address,address,int8))":"58676d0c","quoteBurn(bool,(address,address,int8),uint256)":"a4e59a9f","quoteMint(bool,(address,address,int8),uint144)":"7ef3090a"},"id":75}