{"abi":[{"type":"constructor","inputs":[{"name":"swapRouter_","type":"address","internalType":"address"},{"name":"vault_","type":"address","internalType":"address"},{"name":"hashCreationCodeAPE","type":"bytes32","internalType":"bytes32"}],"stateMutability":"nonpayable"},{"type":"function","name":"HASH_CREATION_CODE_APE","inputs":[],"outputs":[{"name":"","type":"bytes32","internalType":"bytes32"}],"stateMutability":"view"},{"type":"function","name":"SWAP_ROUTER","inputs":[],"outputs":[{"name":"","type":"address","internalType":"contract ISwapRouter"}],"stateMutability":"view"},{"type":"function","name":"VAULT","inputs":[],"outputs":[{"name":"","type":"address","internalType":"contract IVault"}],"stateMutability":"view"},{"type":"function","name":"burnAndSwap","inputs":[{"name":"ape","type":"address","internalType":"address"},{"name":"vaultId","type":"uint256","internalType":"uint256"},{"name":"vaultParams","type":"tuple","internalType":"struct SirStructs.VaultParameters","components":[{"name":"debtToken","type":"address","internalType":"address"},{"name":"collateralToken","type":"address","internalType":"address"},{"name":"leverageTier","type":"int8","internalType":"int8"}]},{"name":"amountTokens","type":"uint256","internalType":"uint256"},{"name":"minDebtToken","type":"uint256","internalType":"uint256"},{"name":"uniswapFeeTier","type":"uint24","internalType":"uint24"}],"outputs":[{"name":"amountDebtToken","type":"uint256","internalType":"uint256"}],"stateMutability":"nonpayable"},{"type":"function","name":"getAddressAPE","inputs":[{"name":"deployer","type":"address","internalType":"address"},{"name":"vaultId","type":"uint256","internalType":"uint256"}],"outputs":[{"name":"","type":"address","internalType":"address"}],"stateMutability":"view"},{"type":"function","name":"mint","inputs":[{"name":"ape","type":"address","internalType":"address"},{"name":"vaultId","type":"uint256","internalType":"uint256"},{"name":"vaultParams","type":"tuple","internalType":"struct SirStructs.VaultParameters","components":[{"name":"debtToken","type":"address","internalType":"address"},{"name":"collateralToken","type":"address","internalType":"address"},{"name":"leverageTier","type":"int8","internalType":"int8"}]},{"name":"amountCollateral","type":"uint144","internalType":"uint144"}],"outputs":[{"name":"amountTokens","type":"uint256","internalType":"uint256"}],"stateMutability":"nonpayable"},{"type":"function","name":"mintWithETH","inputs":[{"name":"ape","type":"address","internalType":"address"},{"name":"vaultId","type":"uint256","internalType":"uint256"},{"name":"vaultParams","type":"tuple","internalType":"struct SirStructs.VaultParameters","components":[{"name":"debtToken","type":"address","internalType":"address"},{"name":"collateralToken","type":"address","internalType":"address"},{"name":"leverageTier","type":"int8","internalType":"int8"}]}],"outputs":[{"name":"amountTokens","type":"uint256","internalType":"uint256"}],"stateMutability":"payable"},{"type":"function","name":"onERC1155BatchReceived","inputs":[{"name":"","type":"address","internalType":"address"},{"name":"","type":"address","internalType":"address"},{"name":"","type":"uint256[]","internalType":"uint256[]"},{"name":"","type":"uint256[]","internalType":"uint256[]"},{"name":"","type":"bytes","internalType":"bytes"}],"outputs":[{"name":"","type":"bytes4","internalType":"bytes4"}],"stateMutability":"nonpayable"},{"type":"function","name":"onERC1155Received","inputs":[{"name":"","type":"address","internalType":"address"},{"name":"","type":"address","internalType":"address"},{"name":"","type":"uint256","internalType":"uint256"},{"name":"","type":"uint256","internalType":"uint256"},{"name":"","type":"bytes","internalType":"bytes"}],"outputs":[{"name":"","type":"bytes4","internalType":"bytes4"}],"stateMutability":"nonpayable"},{"type":"function","name":"priceOfAPE","inputs":[{"name":"vaultParams","type":"tuple","internalType":"struct SirStructs.VaultParameters","components":[{"name":"debtToken","type":"address","internalType":"address"},{"name":"collateralToken","type":"address","internalType":"address"},{"name":"leverageTier","type":"int8","internalType":"int8"}]}],"outputs":[{"name":"num","type":"uint256","internalType":"uint256"},{"name":"den","type":"uint256","internalType":"uint256"}],"stateMutability":"view"},{"type":"function","name":"priceOfTEA","inputs":[{"name":"vaultParams","type":"tuple","internalType":"struct SirStructs.VaultParameters","components":[{"name":"debtToken","type":"address","internalType":"address"},{"name":"collateralToken","type":"address","internalType":"address"},{"name":"leverageTier","type":"int8","internalType":"int8"}]}],"outputs":[{"name":"num","type":"uint256","internalType":"uint256"},{"name":"den","type":"uint256","internalType":"uint256"}],"stateMutability":"view"},{"type":"function","name":"quoteBurn","inputs":[{"name":"isAPE","type":"bool","internalType":"bool"},{"name":"vaultParams","type":"tuple","internalType":"struct SirStructs.VaultParameters","components":[{"name":"debtToken","type":"address","internalType":"address"},{"name":"collateralToken","type":"address","internalType":"address"},{"name":"leverageTier","type":"int8","internalType":"int8"}]},{"name":"amountTokens","type":"uint256","internalType":"uint256"}],"outputs":[{"name":"amountCollateral","type":"uint144","internalType":"uint144"}],"stateMutability":"view"},{"type":"function","name":"quoteMint","inputs":[{"name":"isAPE","type":"bool","internalType":"bool"},{"name":"vaultParams","type":"tuple","internalType":"struct SirStructs.VaultParameters","components":[{"name":"debtToken","type":"address","internalType":"address"},{"name":"collateralToken","type":"address","internalType":"address"},{"name":"leverageTier","type":"int8","internalType":"int8"}]},{"name":"amountCollateral","type":"uint144","internalType":"uint144"}],"outputs":[{"name":"amountTokens","type":"uint256","internalType":"uint256"}],"stateMutability":"view"},{"type":"function","name":"swapAndMint","inputs":[{"name":"ape","type":"address","internalType":"address"},{"name":"vaultId","type":"uint256","internalType":"uint256"},{"name":"vaultParams","type":"tuple","internalType":"struct SirStructs.VaultParameters","components":[{"name":"debtToken","type":"address","internalType":"address"},{"name":"collateralToken","type":"address","internalType":"address"},{"name":"leverageTier","type":"int8","internalType":"int8"}]},{"name":"amountDebtToken","type":"uint256","internalType":"uint256"},{"name":"minCollateral","type":"uint256","internalType":"uint256"},{"name":"uniswapFeeTier","type":"uint24","internalType":"uint24"}],"outputs":[{"name":"amountTokens","type":"uint256","internalType":"uint256"}],"stateMutability":"nonpayable"},{"type":"error","name":"CollateralIsNotWETH","inputs":[]},{"type":"error","name":"NoETHSent","inputs":[]},{"type":"error","name":"VaultDoesNotExist","inputs":[]}],"bytecode":{"object":"0x60e06040523480156200001157600080fd5b5060405162002d8a38038062002d8a83398101604081905262000034916200006d565b6001600160a01b0392831660a052911660c052608052620000ae565b80516001600160a01b03811681146200006857600080fd5b919050565b6000806000606084860312156200008357600080fd5b6200008e8462000050565b92506200009e6020850162000050565b9150604084015190509250925092565b60805160a05160c051612bc5620001c56000396000818161015b015281816104060152818161048e0152818161068f015281816106da015281816107ec0152818161086a0152818161090b015281816109bc01528181610a3f01528181610ae001528181610b7201528181610be501528181610c6b01528181610d3f01528181610e7901528181610f7c0152818161104c015281816111b90152818161123f015281816113130152818161139801528181611524015281816116e101528181611791015281816118a301528181611a7101528181611b3b0152611c4d0152600081816102ef0152818161052101528181610551015281816119c50152611a00015260008181610127015261194d0152612bc56000f3fe6080604052600436106100dd5760003560e01c8063a4e59a9f1161007f578063bc197c8111610059578063bc197c8114610295578063c6005893146102dd578063dba184ad14610311578063f23a6e611461033157600080fd5b8063a4e59a9f1461022a578063ad7b1aa614610262578063b730f5e71461027557600080fd5b806341f961ed116100bb57806341f961ed1461019557806358676d0c146101b557806358c6bdbd146101ea5780637ef3090a1461020a57600080fd5b806306f486c1146100e25780633600566b14610115578063411557d114610149575b600080fd5b3480156100ee57600080fd5b506101026100fd366004612223565b61035e565b6040519081526020015b60405180910390f35b34801561012157600080fd5b506101027f000000000000000000000000000000000000000000000000000000000000000081565b34801561015557600080fd5b5061017d7f000000000000000000000000000000000000000000000000000000000000000081565b6040516001600160a01b03909116815260200161010c565b3480156101a157600080fd5b506101026101b03660046122a8565b610677565b3480156101c157600080fd5b506101d56101d03660046122f8565b610863565b6040805192835260208301919091520161010c565b3480156101f657600080fd5b506101d56102053660046122f8565b610a38565b34801561021657600080fd5b50610102610225366004612322565b610be0565b34801561023657600080fd5b5061024a61024536600461236c565b6111b4565b6040516001600160901b03909116815260200161010c565b6101026102703660046123ab565b6115f4565b34801561028157600080fd5b5061017d6102903660046123e8565b61191a565b3480156102a157600080fd5b506102c46102b03660046124a0565b63bc197c8160e01b98975050505050505050565b6040516001600160e01b0319909116815260200161010c565b3480156102e957600080fd5b5061017d7f000000000000000000000000000000000000000000000000000000000000000081565b34801561031d57600080fd5b5061010261032c366004612223565b611999565b34801561033d57600080fd5b506102c461034c36600461255b565b63f23a6e6160e01b9695505050505050565b60006001600160a01b038716158015906103ef576040516323b872dd60e01b8152336004820152306024820152604481018690526001600160a01b038916906323b872dd906064016020604051808303816000875af11580156103c5573d6000803e3d6000fd5b505050506040513d601f19601f820116820180604052508101906103e991906125d3565b50610474565b604051637921219560e11b81526001600160a01b037f0000000000000000000000000000000000000000000000000000000000000000169063f242432a9061044190339030908c908b906004016125f0565b600060405180830381600087803b15801561045b57600080fd5b505af115801561046f573d6000803e3d6000fd5b505050505b6040516307f8c43160e31b81526000906001600160a01b037f00000000000000000000000000000000000000000000000000000000000000001690633fc62188906104c79085908b908b9060040161267b565b6020604051808303816000875af11580156104e6573d6000803e3d6000fd5b505050506040513d601f19601f8201168201806040525081019061050a919061269f565b905061054f61051f6040890160208a016126bc565b7f0000000000000000000000000000000000000000000000000000000000000000836001600160901b0316611cc6565b7f00000000000000000000000000000000000000000000000000000000000000006001600160a01b031663db3e21986040518061010001604052808a602001602081019061059d91906126bc565b6001600160a01b031681526020908101906105ba908c018c6126bc565b6001600160a01b031681526020018762ffffff168152602001336001600160a01b03168152602001428152602001888152602001846001600160901b0316815260200160006001600160a01b03168152506040518263ffffffff1660e01b815260040161062791906126d7565b6020604051808303816000875af1158015610646573d6000803e3d6000fd5b505050506040513d601f19601f8201168201806040525081019061066a9190612741565b9998505050505050505050565b60006106bd61068c60408501602086016126bc565b337f0000000000000000000000000000000000000000000000000000000000000000856001600160901b0316611dcb565b6040516312980a1f60e31b81526001600160a01b038681161515917f0000000000000000000000000000000000000000000000000000000000000000909116906394c050f890610713908490889060040161275a565b6020604051808303816000875af1158015610732573d6000803e3d6000fd5b505050506040513d601f19601f820116820180604052508101906107569190612741565b915080156107d55760405163a9059cbb60e01b8152336004820152602481018390526001600160a01b0387169063a9059cbb906044016020604051808303816000875af11580156107ab573d6000803e3d6000fd5b505050506040513d601f19601f820116820180604052508101906107cf91906125d3565b5061085a565b604051637921219560e11b81526001600160a01b037f0000000000000000000000000000000000000000000000000000000000000000169063f242432a9061082790309033908a9088906004016125f0565b600060405180830381600087803b15801561084157600080fd5b505af1158015610855573d6000803e3d6000fd5b505050505b50949350505050565b60008060007f00000000000000000000000000000000000000000000000000000000000000006001600160a01b031663fbd98edf856040518263ffffffff1660e01b81526004016108b49190612770565b606060405180830381865afa1580156108d1573d6000803e3d6000fd5b505050506040513d601f19601f820116820180604052508101906108f591906127c7565b905080602001516001600160901b0316925060007f00000000000000000000000000000000000000000000000000000000000000006001600160a01b0316632edf3104866040518263ffffffff1660e01b81526004016109559190612770565b606060405180830381865afa158015610972573d6000803e3d6000fd5b505050506040513d601f19601f820116820180604052508101906109969190612819565b604081810151905163bd85b03960e01b815265ffffffffffff90911660048201529091507f00000000000000000000000000000000000000000000000000000000000000006001600160a01b03169063bd85b03990602401602060405180830381865afa158015610a0b573d6000803e3d6000fd5b505050506040513d601f19601f82011682018060405250810190610a2f9190612741565b92505050915091565b60008060007f00000000000000000000000000000000000000000000000000000000000000006001600160a01b031663fbd98edf856040518263ffffffff1660e01b8152600401610a899190612770565b606060405180830381865afa158015610aa6573d6000803e3d6000fd5b505050506040513d601f19601f82011682018060405250810190610aca91906127c7565b905080600001516001600160901b0316925060007f00000000000000000000000000000000000000000000000000000000000000006001600160a01b0316632edf3104866040518263ffffffff1660e01b8152600401610b2a9190612770565b606060405180830381865afa158015610b47573d6000803e3d6000fd5b505050506040513d601f19601f82011682018060405250810190610b6b9190612819565b9050610ba37f0000000000000000000000000000000000000000000000000000000000000000826040015165ffffffffffff1661191a565b6001600160a01b03166318160ddd6040518163ffffffff1660e01b8152600401602060405180830381865afa158015610a0b573d6000803e3d6000fd5b6000807f00000000000000000000000000000000000000000000000000000000000000006001600160a01b031663458e8e6b6040518163ffffffff1660e01b8152600401608060405180830381865afa158015610c41573d6000803e3d6000fd5b505050506040513d601f19601f82011682018060405250810190610c65919061287c565b905060007f00000000000000000000000000000000000000000000000000000000000000006001600160a01b0316632edf3104866040518263ffffffff1660e01b8152600401610cb59190612770565b606060405180830381865afa158015610cd2573d6000803e3d6000fd5b505050506040513d601f19601f82011682018060405250810190610cf69190612819565b9050806040015165ffffffffffff16600003610d2557604051634d827f1760e01b815260040160405180910390fd5b60405163fbd98edf60e01b81526000906001600160a01b037f0000000000000000000000000000000000000000000000000000000000000000169063fbd98edf90610d74908990600401612770565b606060405180830381865afa158015610d91573d6000803e3d6000fd5b505050506040513d601f19601f82011682018060405250810190610db591906127c7565b90508615610f565760008080610dd160608a0160408b01612909565b60000b12610e10576127109150610dee6060890160408a01612909565b60ff16856000015161ffff16901b612710610e09919061293a565b9050610e50565b6000610e2260608a0160408b01612909565b610e2b9061294d565b60ff16612710901b9050809250856000015161ffff1681610e4c919061293a565b9150505b600081610e66846001600160901b038b1661296b565b610e709190612998565b90506000610eaa7f0000000000000000000000000000000000000000000000000000000000000000876040015165ffffffffffff1661191a565b90506000816001600160a01b03166318160ddd6040518163ffffffff1660e01b8152600401602060405180830381865afa158015610eec573d6000803e3d6000fd5b505050506040513d601f19601f82011682018060405250810190610f109190612741565b90508015610f3557610f30818488600001516001600160901b0316611ed5565b610f4a565b8551610f4a906001600160901b03168461293a565b985050505050506111aa565b6040828101519051631b3f2b0160e21b815265ffffffffffff90911660048201526000907f00000000000000000000000000000000000000000000000000000000000000006001600160a01b031690636cfcac0490602401602060405180830381865afa158015610fcb573d6000803e3d6000fd5b505050506040513d601f19601f82011682018060405250810190610fef91906129ac565b9050600061100287866020015184611f89565b905080604001518360200181815161101a91906129cf565b6001600160901b0316905250604084810151905163bd85b03960e01b815265ffffffffffff90911660048201526000907f00000000000000000000000000000000000000000000000000000000000000006001600160a01b03169063bd85b03990602401602060405180830381865afa15801561109b573d6000803e3d6000fd5b505050506040513d601f19601f820116820180604052508101906110bf9190612741565b9050600081156110f3576110ee8284606001516001600160901b031687602001516001600160901b0316611ed5565b61111f565b61111f61110660408c0160208d016126bc565b8660200151856060015161111a91906129cf565b61201e565b905061112b818361293a565b915082606001518560200181815161114391906129cf565b6001600160901b0316905250811561117f5761117a8284600001516001600160901b031687602001516001600160901b0316611ed5565b6111a3565b6111a361119260408c0160208d016126bc565b6020870151855161111a91906129cf565b9750505050505b5050509392505050565b6000807f00000000000000000000000000000000000000000000000000000000000000006001600160a01b031663458e8e6b6040518163ffffffff1660e01b8152600401608060405180830381865afa158015611215573d6000803e3d6000fd5b505050506040513d601f19601f82011682018060405250810190611239919061287c565b905060007f00000000000000000000000000000000000000000000000000000000000000006001600160a01b0316632edf3104866040518263ffffffff1660e01b81526004016112899190612770565b606060405180830381865afa1580156112a6573d6000803e3d6000fd5b505050506040513d601f19601f820116820180604052508101906112ca9190612819565b9050806040015165ffffffffffff166000036112f957604051634d827f1760e01b815260040160405180910390fd5b60405163fbd98edf60e01b81526000906001600160a01b037f0000000000000000000000000000000000000000000000000000000000000000169063fbd98edf90611348908990600401612770565b606060405180830381865afa158015611365573d6000803e3d6000fd5b505050506040513d601f19601f8201168201806040525081019061138991906127c7565b905086156114fe5760006113c97f0000000000000000000000000000000000000000000000000000000000000000846040015165ffffffffffff1661191a565b90506000816001600160a01b03166318160ddd6040518163ffffffff1660e01b8152600401602060405180830381865afa15801561140b573d6000803e3d6000fd5b505050506040513d601f19601f8201168201806040525081019061142f9190612741565b9050600061144b84600001516001600160901b03168984611ed5565b6001600160901b031690506000808061146a60608d0160408e01612909565b60000b126114a957612710915061148760608c0160408d01612909565b60ff16886000015161ffff16901b6127106114a2919061293a565b90506114e9565b60006114bb60608d0160408e01612909565b6114c49061294d565b60ff16612710901b9050809250886000015161ffff16816114e5919061293a565b9150505b806114f4838561296b565b610f4a9190612998565b604082810151905163bd85b03960e01b815265ffffffffffff90911660048201526000907f00000000000000000000000000000000000000000000000000000000000000006001600160a01b03169063bd85b03990602401602060405180830381865afa158015611573573d6000803e3d6000fd5b505050506040513d601f19601f820116820180604052508101906115979190612741565b905060006115b383602001516001600160901b03168884611ed5565b6001600160901b03169050600061271090506000866020015161ffff166127106115dd919061293a565b9050806115ea838561296b565b6111a39190612998565b600073c02aaa39b223fe8d0a0e5c4f27ead9083c756cc261161b60408401602085016126bc565b6001600160a01b0316146116425760405163627bf55960e11b815260040160405180910390fd5b47600081900361166557604051630b7cc7c360e11b815260040160405180910390fd5b73c02aaa39b223fe8d0a0e5c4f27ead9083c756cc26001600160a01b031663d0e30db0826040518263ffffffff1660e01b81526004016000604051808303818588803b1580156116b457600080fd5b505af11580156116c8573d6000803e3d6000fd5b505060405163a9059cbb60e01b81526001600160a01b037f00000000000000000000000000000000000000000000000000000000000000001660048201526024810185905273c02aaa39b223fe8d0a0e5c4f27ead9083c756cc2935063a9059cbb925060440190506020604051808303816000875af115801561174f573d6000803e3d6000fd5b505050506040513d601f19601f8201168201806040525081019061177391906125d3565b506040516312980a1f60e31b81526001600160a01b038681161515917f0000000000000000000000000000000000000000000000000000000000000000909116906394c050f8906117ca908490889060040161275a565b6020604051808303816000875af11580156117e9573d6000803e3d6000fd5b505050506040513d601f19601f8201168201806040525081019061180d9190612741565b9250801561188c5760405163a9059cbb60e01b8152336004820152602481018490526001600160a01b0387169063a9059cbb906044016020604051808303816000875af1158015611862573d6000803e3d6000fd5b505050506040513d601f19601f8201168201806040525081019061188691906125d3565b50611911565b604051637921219560e11b81526001600160a01b037f0000000000000000000000000000000000000000000000000000000000000000169063f242432a906118de90309033908a9089906004016125f0565b600060405180830381600087803b1580156118f857600080fd5b505af115801561190c573d6000803e3d6000fd5b505050505b50509392505050565b6040516001600160f81b031960208201526bffffffffffffffffffffffff19606084901b166021820152603581018290527f000000000000000000000000000000000000000000000000000000000000000060558201526000906075016040516020818303038152906040528051906020012060001c90505b92915050565b60006119b36119ab60208701876126bc565b333087611dcb565b6119ea6119c360208701876126bc565b7f000000000000000000000000000000000000000000000000000000000000000086611cc6565b6040805161010081019091526001600160a01b037f0000000000000000000000000000000000000000000000000000000000000000169063414bf3899080611a3560208a018a6126bc565b6001600160a01b03168152602001886020016020810190611a5691906126bc565b6001600160a01b031681526020018562ffffff1681526020017f00000000000000000000000000000000000000000000000000000000000000006001600160a01b0316815260200142815260200187815260200186815260200160006001600160a01b03168152506040518263ffffffff1660e01b8152600401611ada91906126d7565b6020604051808303816000875af1158015611af9573d6000803e3d6000fd5b505050506040513d601f19601f82011682018060405250810190611b1d9190612741565b506040516312980a1f60e31b81526001600160a01b038881161515917f0000000000000000000000000000000000000000000000000000000000000000909116906394c050f890611b749084908a9060040161275a565b6020604051808303816000875af1158015611b93573d6000803e3d6000fd5b505050506040513d601f19601f82011682018060405250810190611bb79190612741565b91508015611c365760405163a9059cbb60e01b8152336004820152602481018390526001600160a01b0389169063a9059cbb906044016020604051808303816000875af1158015611c0c573d6000803e3d6000fd5b505050506040513d601f19601f82011682018060405250810190611c3091906125d3565b50611cbb565b604051637921219560e11b81526001600160a01b037f0000000000000000000000000000000000000000000000000000000000000000169063f242432a90611c8890309033908c9088906004016125f0565b600060405180830381600087803b158015611ca257600080fd5b505af1158015611cb6573d6000803e3d6000fd5b505050505b509695505050505050565b604080516001600160a01b038481166024830152604480830185905283518084039091018152606490920183526020820180516001600160e01b031663095ea7b360e01b1790529151600092839290871691611d2291906129f6565b6000604051808303816000865af19150503d8060008114611d5f576040519150601f19603f3d011682016040523d82523d6000602084013e611d64565b606091505b5091509150818015611d8e575080511580611d8e575080806020019051810190611d8e91906125d3565b611dc45760405162461bcd60e51b8152602060048201526002602482015261534160f01b60448201526064015b60405180910390fd5b5050505050565b604080516001600160a01b0385811660248301528481166044830152606480830185905283518084039091018152608490920183526020820180516001600160e01b03166323b872dd60e01b1790529151600092839290881691611e2f91906129f6565b6000604051808303816000865af19150503d8060008114611e6c576040519150601f19603f3d011682016040523d82523d6000602084013e611e71565b606091505b5091509150818015611e9b575080511580611e9b575080806020019051810190611e9b91906125d3565b611ecd5760405162461bcd60e51b815260206004820152600360248201526229aa2360e91b6044820152606401611dbb565b505050505050565b6000808060001985870985870292508281108382030391505080600003611f0e5760008411611f0357600080fd5b508290049050611f82565b808411611f1a57600080fd5b600084868809851960019081018716968790049682860381900495909211909303600082900391909104909201919091029190911760038402600290811880860282030280860282030280860282030280860282030280860282030280860290910302029150505b9392505050565b60408051608081018252600080825260208201819052918101829052606081019190915261271061ffff84168101806001600160901b038716830281611fd157611fd1612982565b046001600160901b039081168085526109f69703811660ff95909516850296909604861660208401819052600a850487166060850181905294039390930390941660408201529392505050565b600080836001600160a01b03166318160ddd6040518163ffffffff1660e01b8152600401602060405180830381865afa15801561205f573d6000803e3d6000fd5b505050506040513d601f19601f820116820180604052508101906120839190612741565b905061ffff606067016345785d8a00006301e1338060016120a6600c600a612b09565b6120b49063781a75c061296b565b6120be9190612b18565b6120c89190612b2b565b6120d3906001612b53565b6120ef9068ffffffffffffffffff1666f38a31408ae33861296b565b6120f99190612998565b68ffffffffffffffffff166001600160801b0316901b6121199190612b75565b6001600160801b0316811161213757826001600160901b03166121e7565b6121e761ffff606067016345785d8a00006301e13380600161215b600c600a612b09565b6121699063781a75c061296b565b6121739190612b18565b61217d9190612b2b565b612188906001612b53565b6121a49068ffffffffffffffffff1666f38a31408ae33861296b565b6121ae9190612998565b68ffffffffffffffffff166001600160801b0316901b6121ce9190612b75565b6001600160801b0316846001600160901b031683611ed5565b949350505050565b80356001600160a01b038116811461220657600080fd5b919050565b60006060828403121561221d57600080fd5b50919050565b600080600080600080610100878903121561223d57600080fd5b612246876121ef565b95506020870135945061225c886040890161220b565b935060a0870135925060c0870135915060e087013562ffffff8116811461228257600080fd5b809150509295509295509295565b6001600160901b03811681146122a557600080fd5b50565b60008060008060c085870312156122be57600080fd5b6122c7856121ef565b9350602085013592506122dd866040870161220b565b915060a08501356122ed81612290565b939692955090935050565b60006060828403121561230a57600080fd5b611f82838361220b565b80151581146122a557600080fd5b600080600060a0848603121561233757600080fd5b833561234281612314565b9250612351856020860161220b565b9150608084013561236181612290565b809150509250925092565b600080600060a0848603121561238157600080fd5b833561238c81612314565b925061239b856020860161220b565b9150608084013590509250925092565b600080600060a084860312156123c057600080fd5b6123c9846121ef565b9250602084013591506123df856040860161220b565b90509250925092565b600080604083850312156123fb57600080fd5b612404836121ef565b946020939093013593505050565b60008083601f84011261242457600080fd5b50813567ffffffffffffffff81111561243c57600080fd5b6020830191508360208260051b850101111561245757600080fd5b9250929050565b60008083601f84011261247057600080fd5b50813567ffffffffffffffff81111561248857600080fd5b60208301915083602082850101111561245757600080fd5b60008060008060008060008060a0898b0312156124bc57600080fd5b6124c5896121ef565b97506124d360208a016121ef565b9650604089013567ffffffffffffffff808211156124f057600080fd5b6124fc8c838d01612412565b909850965060608b013591508082111561251557600080fd5b6125218c838d01612412565b909650945060808b013591508082111561253a57600080fd5b506125478b828c0161245e565b999c989b5096995094979396929594505050565b60008060008060008060a0878903121561257457600080fd5b61257d876121ef565b955061258b602088016121ef565b94506040870135935060608701359250608087013567ffffffffffffffff8111156125b557600080fd5b6125c189828a0161245e565b979a9699509497509295939492505050565b6000602082840312156125e557600080fd5b8151611f8281612314565b6001600160a01b0394851681529290931660208301526040820152606081019190915260a06080820181905260009082015260c00190565b8035600081900b811461220657600080fd5b6001600160a01b038061264c836121ef565b1683528061265c602084016121ef565b1660208401525061266f60408201612628565b60000b60408301525050565b831515815260a08101612691602083018561263a565b826080830152949350505050565b6000602082840312156126b157600080fd5b8151611f8281612290565b6000602082840312156126ce57600080fd5b611f82826121ef565b6101008101611993828480516001600160a01b03908116835260208083015182169084015260408083015162ffffff16908401526060808301518216908401526080808301519084015260a0828101519084015260c0808301519084015260e09182015116910152565b60006020828403121561275357600080fd5b5051919050565b821515815260808101611f82602083018461263a565b60608101611993828461263a565b6040516060810167ffffffffffffffff811182821017156127af57634e487b7160e01b600052604160045260246000fd5b60405290565b8051600781900b811461220657600080fd5b6000606082840312156127d957600080fd5b6127e161277e565b82516127ec81612290565b815260208301516127fc81612290565b602082015261280d604084016127b5565b60408201529392505050565b60006060828403121561282b57600080fd5b61283361277e565b825161283e81612290565b815261284c602084016127b5565b6020820152604083015165ffffffffffff8116811461280d57600080fd5b805161ffff8116811461220657600080fd5b60006080828403121561288e57600080fd5b6040516080810181811067ffffffffffffffff821117156128bf57634e487b7160e01b600052604160045260246000fd5b6040526128cb8361286a565b81526128d96020840161286a565b602082015260408301516128ec81612314565b60408201526128fd6060840161286a565b60608201529392505050565b60006020828403121561291b57600080fd5b611f8282612628565b634e487b7160e01b600052601160045260246000fd5b8082018082111561199357611993612924565b600081810b6080810161296257612962612924565b60000392915050565b808202811582820484141761199357611993612924565b634e487b7160e01b600052601260045260246000fd5b6000826129a7576129a7612982565b500490565b6000602082840312156129be57600080fd5b815160ff81168114611f8257600080fd5b6001600160901b038181168382160190808211156129ef576129ef612924565b5092915050565b6000825160005b81811015612a1757602081860181015185830152016129fd565b506000920191825250919050565b600181815b80851115612a60578160001904821115612a4657612a46612924565b80851615612a5357918102915b93841c9390800290612a2a565b509250929050565b600082612a7757506001611993565b81612a8457506000611993565b8160018114612a9a5760028114612aa457612ac0565b6001915050611993565b60ff841115612ab557612ab5612924565b50506001821b611993565b5060208310610133831016604e8410600b8410161715612ae3575081810a611993565b612aed8383612a25565b8060001904821115612b0157612b01612924565b029392505050565b6000611f8260ff841683612a68565b8181038181111561199357611993612924565b600068ffffffffffffffffff80841680612b4757612b47612982565b92169190910492915050565b68ffffffffffffffffff8181168382160190808211156129ef576129ef612924565b60006001600160801b0380841680612b4757612b4761298256fea2646970667358221220550c75acc865c7a6a6e9fb545fd73cc0508b43221bd1b597b50b574fcf32515a64736f6c63430008150033","linkReferences":{}},"methodIdentifiers":{"HASH_CREATION_CODE_APE()":"3600566b","SWAP_ROUTER()":"c6005893","VAULT()":"411557d1","burnAndSwap(address,uint256,(address,address,int8),uint256,uint256,uint24)":"06f486c1","getAddressAPE(address,uint256)":"b730f5e7","mint(address,uint256,(address,address,int8),uint144)":"41f961ed","mintWithETH(address,uint256,(address,address,int8))":"ad7b1aa6","onERC1155BatchReceived(address,address,uint256[],uint256[],bytes)":"bc197c81","onERC1155Received(address,address,uint256,uint256,bytes)":"f23a6e61","priceOfAPE((address,address,int8))":"58c6bdbd","priceOfTEA((address,address,int8))":"58676d0c","quoteBurn(bool,(address,address,int8),uint256)":"a4e59a9f","quoteMint(bool,(address,address,int8),uint144)":"7ef3090a","swapAndMint(address,uint256,(address,address,int8),uint256,uint256,uint24)":"dba184ad"},"id":71}