{"abi":[{"type":"constructor","inputs":[{"name":"vault","type":"address","internalType":"address"},{"name":"oracle","type":"address","internalType":"address"},{"name":"uniswapV3Factory","type":"address","internalType":"address"}],"stateMutability":"nonpayable"},{"type":"function","name":"VAULT","inputs":[],"outputs":[{"name":"","type":"address","internalType":"contract IVault"}],"stateMutability":"view"},{"type":"function","name":"getAddressAPE","inputs":[{"name":"vaultId","type":"uint48","internalType":"uint48"}],"outputs":[{"name":"","type":"address","internalType":"address"}],"stateMutability":"view"},{"type":"function","name":"getReserves","inputs":[{"name":"vaultIds","type":"uint48[]","internalType":"uint48[]"}],"outputs":[{"name":"reserves","type":"tuple[]","internalType":"struct SirStructs.Reserves[]","components":[{"name":"reserveApes","type":"uint144","internalType":"uint144"},{"name":"reserveLPers","type":"uint144","internalType":"uint144"},{"name":"tickPriceX42","type":"int64","internalType":"int64"}]}],"stateMutability":"view"},{"type":"function","name":"getVaultStatus","inputs":[{"name":"vaultParams","type":"tuple","internalType":"struct SirStructs.VaultParameters","components":[{"name":"debtToken","type":"address","internalType":"address"},{"name":"collateralToken","type":"address","internalType":"address"},{"name":"leverageTier","type":"int8","internalType":"int8"}]}],"outputs":[{"name":"","type":"uint8","internalType":"enum Assistant.VaultStatus"}],"stateMutability":"view"},{"type":"function","name":"priceOfAPE","inputs":[{"name":"vaultParams","type":"tuple","internalType":"struct SirStructs.VaultParameters","components":[{"name":"debtToken","type":"address","internalType":"address"},{"name":"collateralToken","type":"address","internalType":"address"},{"name":"leverageTier","type":"int8","internalType":"int8"}]}],"outputs":[{"name":"num","type":"uint256","internalType":"uint256"},{"name":"den","type":"uint256","internalType":"uint256"}],"stateMutability":"view"},{"type":"function","name":"priceOfTEA","inputs":[{"name":"vaultParams","type":"tuple","internalType":"struct SirStructs.VaultParameters","components":[{"name":"debtToken","type":"address","internalType":"address"},{"name":"collateralToken","type":"address","internalType":"address"},{"name":"leverageTier","type":"int8","internalType":"int8"}]}],"outputs":[{"name":"num","type":"uint256","internalType":"uint256"},{"name":"den","type":"uint256","internalType":"uint256"}],"stateMutability":"view"},{"type":"function","name":"quoteBurn","inputs":[{"name":"isAPE","type":"bool","internalType":"bool"},{"name":"vaultParams","type":"tuple","internalType":"struct SirStructs.VaultParameters","components":[{"name":"debtToken","type":"address","internalType":"address"},{"name":"collateralToken","type":"address","internalType":"address"},{"name":"leverageTier","type":"int8","internalType":"int8"}]},{"name":"amountTokens","type":"uint256","internalType":"uint256"}],"outputs":[{"name":"amountCollateral","type":"uint144","internalType":"uint144"}],"stateMutability":"view"},{"type":"function","name":"quoteCollateralToDebtToken","inputs":[{"name":"debtToken","type":"address","internalType":"address"},{"name":"collateralToken","type":"address","internalType":"address"},{"name":"amountCollateral","type":"uint256","internalType":"uint256"}],"outputs":[{"name":"amountDebtToken","type":"uint256","internalType":"uint256"}],"stateMutability":"view"},{"type":"function","name":"quoteMint","inputs":[{"name":"isAPE","type":"bool","internalType":"bool"},{"name":"vaultParams","type":"tuple","internalType":"struct SirStructs.VaultParameters","components":[{"name":"debtToken","type":"address","internalType":"address"},{"name":"collateralToken","type":"address","internalType":"address"},{"name":"leverageTier","type":"int8","internalType":"int8"}]},{"name":"amountCollateral","type":"uint144","internalType":"uint144"}],"outputs":[{"name":"amountTokens","type":"uint256","internalType":"uint256"}],"stateMutability":"view"},{"type":"function","name":"quoteMintWithDebtToken","inputs":[{"name":"isAPE","type":"bool","internalType":"bool"},{"name":"vaultParams","type":"tuple","internalType":"struct SirStructs.VaultParameters","components":[{"name":"debtToken","type":"address","internalType":"address"},{"name":"collateralToken","type":"address","internalType":"address"},{"name":"leverageTier","type":"int8","internalType":"int8"}]},{"name":"amountDebtToken","type":"uint256","internalType":"uint256"}],"outputs":[{"name":"amountTokens","type":"uint256","internalType":"uint256"},{"name":"amountCollateral","type":"uint256","internalType":"uint256"}],"stateMutability":"view"},{"type":"error","name":"AmountTooLow","inputs":[]},{"type":"error","name":"TEAMaxSupplyExceeded","inputs":[]},{"type":"error","name":"TooMuchCollateral","inputs":[]},{"type":"error","name":"VaultDoesNotExist","inputs":[]}],"bytecode":{"object":"0x610100604052348015610010575f5ffd5b5060405161294d38038061294d83398101604081905261002f91610103565b6001600160a01b0380841660805282811660a052811660c0524660010361006d57735e55c9e631fae526cd4b0526c4818d6e0a9ef0e360e0526100e0565b4662aa36a7036100945773e3c07ebf66b9d070b589bcca30903891f71a92be60e0526100e0565b60405162461bcd60e51b815260206004820152601560248201527f4e6574776f726b206e6f7420737570706f727465640000000000000000000000604482015260640160405180910390fd5b505050610143565b80516001600160a01b03811681146100fe575f5ffd5b919050565b5f5f5f60608486031215610115575f5ffd5b61011e846100e8565b925061012c602085016100e8565b915061013a604085016100e8565b90509250925092565b60805160a05160c05160e0516127596101f45f395f6107c601525f6118dd01525f81816104e9015261071301525f81816101160152818161042201528181610931015281816109cf01528181610a7e01528181610afd01528181610b9a01528181610c7101528181610d6a01528181610de301528181611087015281816112900152818161135101528181611446015281816114e0015281816115d0015281816116e5015261183f01526127595ff3fe608060405234801561000f575f5ffd5b506004361061009b575f3560e01c806358c6bdbd1161006357806358c6bdbd146101635780637ef3090a146101765780638d0f784414610189578063a0193ec41461019c578063a4e59a9f146101bc575f5ffd5b8063049354b91461009f5780632f3ccd42146100c857806337961f8d146100e9578063411557d11461011157806358676d0c14610150575b5f5ffd5b6100b26100ad366004611dfa565b6101e7565b6040516100bf9190611e14565b60405180910390f35b6100db6100d6366004611e4e565b6104bf565b6040519081526020016100bf565b6100fc6100f7366004611e99565b6106e6565b604080519283526020830191909152016100bf565b6101387f000000000000000000000000000000000000000000000000000000000000000081565b6040516001600160a01b0390911681526020016100bf565b6100fc61015e366004611dfa565b61092c565b6100fc610171366004611dfa565b610af8565b6100db610184366004611eea565b610c6d565b610138610197366004611f44565b61128a565b6101af6101aa366004611f5f565b6112c3565b6040516100bf9190611fd0565b6101cf6101ca366004611e99565b6114dc565b6040516001600160901b0390911681526020016100bf565b5f6101f86040830160208401612043565b6001600160a01b03163b5f0361020f57505f919050565b61021c6020830183612043565b6001600160a01b03163b5f0361023357505f919050565b5f6102446040840160208501612043565b60408051600481526024810182526020810180516001600160e01b03166318160ddd60e01b17905290516001600160a01b039290921691610285919061205e565b5f60405180830381855afa9150503d805f81146102bd576040519150601f19603f3d011682016040523d82523d5f602084013e6102c2565b606091505b50509050806102d357505f92915050565b6102e06020840184612043565b60408051600481526024810182526020810180516001600160e01b03166318160ddd60e01b17905290516001600160a01b039290921691610321919061205e565b5f60405180830381855afa9150503d805f8114610359576040519150601f19603f3d011682016040523d82523d5f602084013e61035e565b606091505b5050809150508061037157505f92915050565b6003196103846060850160408601612081565b5f0b12806103a35750600261039f6060850160408601612081565b5f0b135b156103b057505f92915050565b6103bb8360646118d7565b1580156103d157506103cf836101f46118d7565b155b80156103e657506103e483610bb86118d7565b155b80156103fb57506103f9836127106118d7565b155b156104095750600192915050565b604051630bb7cc4160e21b81525f906001600160a01b037f00000000000000000000000000000000000000000000000000000000000000001690632edf31049061045790879060040161209c565b606060405180830381865afa158015610472573d5f5f3e3d5ffd5b505050506040513d601f19601f82011682018060405250810190610496919061214e565b9050806040015165ffffffffffff165f036104b5575060029392505050565b5060039392505050565b6040516279904f60e91b81526001600160a01b03848116600483015283811660248301525f9182917f0000000000000000000000000000000000000000000000000000000000000000169063f3209e0090604401602060405180830381865afa15801561052e573d5f5f3e3d5ffd5b505050506040513d601f19601f8201168201806040525081019061055291906121a0565b90505f816001600160a01b0316633850c7bd6040518163ffffffff1660e01b815260040160e060405180830381865afa158015610591573d5f5f3e3d5ffd5b505050506040513d601f19601f820116820180604052508101906105b591906121cc565b50505050505090505f826001600160a01b031663d21220a76040518163ffffffff1660e01b8152600401602060405180830381865afa1580156105fa573d5f5f3e3d5ffd5b505050506040513d601f19601f8201168201806040525081019061061e91906121a0565b6001600160a01b0316866001600160a01b03161490506001600160801b038016826001600160a01b031611610697575f6106616001600160a01b03841680612278565b9050811561067d57610678600160c01b878361193a565b61068c565b61068c8187600160c01b61193a565b9450505050506106df565b5f6106b56001600160a01b038416806801000000000000000061193a565b905081156106cc57610678600160801b878361193a565b61068c8187600160801b61193a565b5050505b9392505050565b5f5f825f0361070857604051631fbaba3560e01b815260040160405180910390fd5b5f6001600160a01b037f00000000000000000000000000000000000000000000000000000000000000001663c7dd5c0a6107456020880188612043565b6107556040890160208a01612043565b6040516001600160e01b031960e085901b1681526001600160a01b03928316600482015291166024820152604401602060405180830381865afa15801561079e573d5f5f3e3d5ffd5b505050506040513d601f19601f820116820180604052508101906107c2919061228f565b90507f00000000000000000000000000000000000000000000000000000000000000006001600160a01b031663c6a5026a6040518060a00160405280885f0160208101906108109190612043565b6001600160a01b031681526020018860200160208101906108319190612043565b6001600160a01b03908116825260208083018a905262ffffff8088166040808601919091525f60609586015280516001600160e01b031960e089901b16815286518516600482015292860151841660248401528501516044830152928401519092166064830152608090920151909116608482015260a401608060405180830381865afa1580156108c4573d5f5f3e3d5ffd5b505050506040513d601f19601f820116820180604052508101906108e891906122b1565b5091935050506001600160901b0382111561091657604051635baa913560e01b815260040160405180910390fd5b610921868684610c6d565b925050935093915050565b5f5f5f7f00000000000000000000000000000000000000000000000000000000000000006001600160a01b031663fbd98edf856040518263ffffffff1660e01b815260040161097b919061209c565b606060405180830381865afa158015610996573d5f5f3e3d5ffd5b505050506040513d601f19601f820116820180604052508101906109ba9190612300565b905080602001516001600160901b031692505f7f00000000000000000000000000000000000000000000000000000000000000006001600160a01b0316632edf3104866040518263ffffffff1660e01b8152600401610a19919061209c565b606060405180830381865afa158015610a34573d5f5f3e3d5ffd5b505050506040513d601f19601f82011682018060405250810190610a58919061214e565b604081810151905163bd85b03960e01b815265ffffffffffff90911660048201529091507f00000000000000000000000000000000000000000000000000000000000000006001600160a01b03169063bd85b03990602401602060405180830381865afa158015610acb573d5f5f3e3d5ffd5b505050506040513d601f19601f82011682018060405250810190610aef9190612346565b92505050915091565b5f5f5f7f00000000000000000000000000000000000000000000000000000000000000006001600160a01b031663fbd98edf856040518263ffffffff1660e01b8152600401610b47919061209c565b606060405180830381865afa158015610b62573d5f5f3e3d5ffd5b505050506040513d601f19601f82011682018060405250810190610b869190612300565b9050805f01516001600160901b031692505f7f00000000000000000000000000000000000000000000000000000000000000006001600160a01b0316632edf3104866040518263ffffffff1660e01b8152600401610be4919061209c565b606060405180830381865afa158015610bff573d5f5f3e3d5ffd5b505050506040513d601f19601f82011682018060405250810190610c23919061214e565b9050610c32816040015161128a565b6001600160a01b03166318160ddd6040518163ffffffff1660e01b8152600401602060405180830381865afa158015610acb573d5f5f3e3d5ffd5b5f5f7f00000000000000000000000000000000000000000000000000000000000000006001600160a01b0316632edf3104856040518263ffffffff1660e01b8152600401610cbb919061209c565b606060405180830381865afa158015610cd6573d5f5f3e3d5ffd5b505050506040513d601f19601f82011682018060405250810190610cfa919061214e565b9050806040015165ffffffffffff165f03610d2857604051634d827f1760e01b815260040160405180910390fd5b826001600160901b03165f03610d5157604051631fbaba3560e01b815260040160405180910390fd5b60405163fbd98edf60e01b81525f906001600160a01b037f0000000000000000000000000000000000000000000000000000000000000000169063fbd98edf90610d9f90889060040161209c565b606060405180830381865afa158015610dba573d5f5f3e3d5ffd5b505050506040513d601f19601f82011682018060405250810190610dde9190612300565b90505f7f00000000000000000000000000000000000000000000000000000000000000006001600160a01b031663458e8e6b6040518163ffffffff1660e01b815260040161010060405180830381865afa158015610e3e573d5f5f3e3d5ffd5b505050506040513d601f19601f82011682018060405250810190610e6291906123b5565b9050610ece604051806040016040528060078152602001664d696e74696e6760c81b81525088610ead576040518060400160405280600381526020016254454160e81b8152506119e0565b6040518060400160405280600381526020016241504560e81b8152506119e0565b861561103d575f8080610ee760608a0160408b01612081565b5f0b12610f25576127109150610f036060890160408a01612081565b835151610f1e9161ffff90911660ff9091161b612710612443565b9050610f66565b5f610f3660608a0160408b01612081565b610f3f90612456565b60ff16612710901b9050809250835f01515f015161ffff1681610f629190612443565b9150505b5f81610f7b846001600160901b038b16612278565b610f859190612486565b90505f610f95876040015161128a565b90505f816001600160a01b03166318160ddd6040518163ffffffff1660e01b8152600401602060405180830381865afa158015610fd4573d5f5f3e3d5ffd5b505050506040513d601f19601f82011682018060405250810190610ff89190612346565b9050801561101c576110178184895f01516001600160901b031661193a565b611031565b8651611031906001600160901b031684612443565b9850505050505061126a565b602081015151612710905f906110579061ffff1683612443565b604080870151905163bd85b03960e01b815265ffffffffffff90911660048201529091505f906001600160a01b037f0000000000000000000000000000000000000000000000000000000000000000169063bd85b03990602401602060405180830381865afa1580156110cc573d5f5f3e3d5ffd5b505050506040513d601f19601f820116820180604052508101906110f09190612346565b9050801561111e5761111981896001600160901b031687602001516001600160901b031661193a565b611145565b61114561113160408b0160208c01612043565b6020870151611140908b612499565b611a29565b96508061ffff606067016345785d8a00006301e133806001611169600c600a61259b565b6111779063781a75c0612278565b61118191906125a9565b61118b91906125bc565b6111969060016125e9565b6111b0906001600160481b031666f2089eaf20dbec612278565b6111ba9190612486565b6001600160481b03166001600160801b0316901b6111d89190612608565b6001600160801b03166111eb91906125a9565b87111561120b57604051636deac20760e01b815260040160405180910390fd5b5f82611220856001600160901b038c16612278565b61122a9190612486565b6001600160901b0316905061126388828415611246578b611255565b6020890151611255908d612499565b6001600160901b031661193a565b9750505050505b835f036106db57604051631fbaba3560e01b815260040160405180910390fd5b5f6112bd7f00000000000000000000000000000000000000000000000000000000000000008365ffffffffffff16611c09565b92915050565b60608167ffffffffffffffff8111156112de576112de6120ef565b60405190808252806020026020018201604052801561132757816020015b604080516060810182525f80825260208083018290529282015282525f199092019101816112fc5790505b50604080516060810182525f808252602082018190529181018290529192505b838110156114d4577f00000000000000000000000000000000000000000000000000000000000000006001600160a01b031663d2f3fd0986868481811061139057611390612635565b90506020020160208101906113a59190611f44565b6040516001600160e01b031960e084901b16815265ffffffffffff9091166004820152602401606060405180830381865afa1580156113e6573d5f5f3e3d5ffd5b505050506040513d601f19601f8201168201806040525081019061140a9190612649565b6040805163fbd98edf60e01b815282516001600160a01b039081166004830152602084015181166024830152918301515f0b60448201529193507f0000000000000000000000000000000000000000000000000000000000000000169063fbd98edf90606401606060405180830381865afa15801561148b573d5f5f3e3d5ffd5b505050506040513d601f19601f820116820180604052508101906114af9190612300565b8382815181106114c1576114c1612635565b6020908102919091010152600101611347565b505092915050565b5f5f7f00000000000000000000000000000000000000000000000000000000000000006001600160a01b0316632edf3104856040518263ffffffff1660e01b815260040161152a919061209c565b606060405180830381865afa158015611545573d5f5f3e3d5ffd5b505050506040513d601f19601f82011682018060405250810190611569919061214e565b9050806040015165ffffffffffff165f0361159757604051634d827f1760e01b815260040160405180910390fd5b825f036115b757604051631fbaba3560e01b815260040160405180910390fd5b60405163fbd98edf60e01b81525f906001600160a01b037f0000000000000000000000000000000000000000000000000000000000000000169063fbd98edf9061160590889060040161209c565b606060405180830381865afa158015611620573d5f5f3e3d5ffd5b505050506040513d601f19601f820116820180604052508101906116449190612300565b9050851561181a575f61165a836040015161128a565b90505f816001600160a01b03166318160ddd6040518163ffffffff1660e01b8152600401602060405180830381865afa158015611699573d5f5f3e3d5ffd5b505050506040513d601f19601f820116820180604052508101906116bd9190612346565b90505f6116d7845f01516001600160901b0316888461193a565b6001600160901b031690505f7f00000000000000000000000000000000000000000000000000000000000000006001600160a01b031663458e8e6b6040518163ffffffff1660e01b815260040161010060405180830381865afa158015611740573d5f5f3e3d5ffd5b505050506040513d601f19601f8201168201806040525081019061176491906123b5565b90505f808061177960608d0160408e01612081565b5f0b126117b757612710915061179560608c0160408d01612081565b8351516117b09161ffff90911660ff9091161b612710612443565b90506117f8565b5f6117c860608d0160408e01612081565b6117d190612456565b60ff16612710901b9050809250835f01515f015161ffff16816117f49190612443565b9150505b806118038386612278565b61180d9190612486565b98505050505050506118ce565b604082810151905163bd85b03960e01b815265ffffffffffff90911660048201525f907f00000000000000000000000000000000000000000000000000000000000000006001600160a01b03169063bd85b03990602401602060405180830381865afa15801561188c573d5f5f3e3d5ffd5b505050506040513d601f19601f820116820180604052508101906118b09190612346565b90506118ca82602001516001600160901b0316868361193a565b9350505b50509392505050565b5f6119277f000000000000000000000000000000000000000000000000000000000000000061192261190f6040870160208801612043565b61191c6020880188612043565b86611c69565b611cd3565b6001600160a01b03163b15159392505050565b5f80805f19858709858702925082811083820303915050805f0361196e575f8411611963575f5ffd5b5082900490506106df565b808411611979575f5ffd5b5f8486880960026001871981018816978890046003810283188082028403028082028403028082028403028082028403028082028403029081029092039091025f889003889004909101858311909403939093029303949094049190911702949350505050565b611a2582826040516024016119f69291906126bf565b60408051601f198184030181529190526020810180516001600160e01b0316634b5c427760e01b179052611db9565b5050565b5f5f836001600160a01b03166318160ddd6040518163ffffffff1660e01b8152600401602060405180830381865afa158015611a67573d5f5f3e3d5ffd5b505050506040513d601f19601f82011682018060405250810190611a8b9190612346565b9050620f424061ffff606067016345785d8a00006301e133806001611ab2600c600a61259b565b611ac09063781a75c0612278565b611aca91906125a9565b611ad491906125bc565b611adf9060016125e9565b611af9906001600160481b031666f2089eaf20dbec612278565b611b039190612486565b6001600160481b03166001600160801b0316901b611b219190612608565b611b2b9190612608565b6001600160801b03168111611b5557611b4783620f42406126ec565b6001600160901b0316611c01565b611c0161ffff606067016345785d8a00006301e133806001611b79600c600a61259b565b611b879063781a75c0612278565b611b9191906125a9565b611b9b91906125bc565b611ba69060016125e9565b611bc0906001600160481b031666f2089eaf20dbec612278565b611bca9190612486565b6001600160481b03166001600160801b0316901b611be89190612608565b6001600160801b0316846001600160901b03168361193a565b949350505050565b5f604051835f5260ff600b53826020527f21c35dbe1b344a2488cf3321d6ce542f8e9f305544ff09e4993a62319a497c1f6040526055600b20601452806040525061d6945f52600160345350506017601e206001600160a01b0316919050565b604080516060810182525f8082526020820181905291810191909152826001600160a01b0316846001600160a01b03161115611ca3579192915b50604080516060810182526001600160a01b03948516815292909316602083015262ffffff169181019190915290565b5f81602001516001600160a01b0316825f01516001600160a01b031610611cf8575f5ffd5b815160208084015160408086015181516001600160a01b0395861681860152949092168482015262ffffff90911660608085019190915281518085038201815260808501909252815191909201206001600160f81b031960a08401529085901b6bffffffffffffffffffffffff191660a183015260b58201527fe34f199b19b2b4f47f68442619d555527d244f78a3297ea89325f843f87b8b5460d582015260f50160408051601f1981840301815291905280516020909101209392505050565b611dc281611dc5565b50565b5f6a636f6e736f6c652e6c6f6790505f5f835160208501845afa505050565b5f60608284031215611df4575f5ffd5b50919050565b5f60608284031215611e0a575f5ffd5b6106df8383611de4565b6020810160048310611e3457634e487b7160e01b5f52602160045260245ffd5b91905290565b6001600160a01b0381168114611dc2575f5ffd5b5f5f5f60608486031215611e60575f5ffd5b8335611e6b81611e3a565b92506020840135611e7b81611e3a565b929592945050506040919091013590565b8015158114611dc2575f5ffd5b5f5f5f60a08486031215611eab575f5ffd5b8335611eb681611e8c565b9250611ec58560208601611de4565b929592945050506080919091013590565b6001600160901b0381168114611dc2575f5ffd5b5f5f5f60a08486031215611efc575f5ffd5b8335611f0781611e8c565b9250611f168560208601611de4565b91506080840135611f2681611ed6565b809150509250925092565b65ffffffffffff81168114611dc2575f5ffd5b5f60208284031215611f54575f5ffd5b81356106df81611f31565b5f5f60208385031215611f70575f5ffd5b823567ffffffffffffffff811115611f86575f5ffd5b8301601f81018513611f96575f5ffd5b803567ffffffffffffffff811115611fac575f5ffd5b8560208260051b8401011115611fc0575f5ffd5b6020919091019590945092505050565b602080825282518282018190525f918401906040840190835b818110156120385783516001600160901b0381511684526001600160901b036020820151166020850152604081015160070b604085015250606083019250602084019350600181019050611fe9565b509095945050505050565b5f60208284031215612053575f5ffd5b81356106df81611e3a565b5f82518060208501845e5f920191825250919050565b805f0b8114611dc2575f5ffd5b5f60208284031215612091575f5ffd5b81356106df81612074565b6060810182356120ab81611e3a565b6001600160a01b0316825260208301356120c481611e3a565b6001600160a01b0316602083015260408301356120e081612074565b805f0b60408401525092915050565b634e487b7160e01b5f52604160045260245ffd5b6040516060810167ffffffffffffffff8111828210171561213257634e487b7160e01b5f52604160045260245ffd5b60405290565b8051600781900b8114612149575f5ffd5b919050565b5f606082840312801561215f575f5ffd5b50612168612103565b825161217381611ed6565b815261218160208401612138565b6020820152604083015161219481611f31565b60408201529392505050565b5f602082840312156121b0575f5ffd5b81516106df81611e3a565b805161ffff81168114612149575f5ffd5b5f5f5f5f5f5f5f60e0888a0312156121e2575f5ffd5b87516121ed81611e3a565b8097505060208801518060020b8114612204575f5ffd5b9550612212604089016121bb565b9450612220606089016121bb565b935061222e608089016121bb565b925060a088015160ff81168114612243575f5ffd5b60c089015190925061225481611e8c565b8091505092959891949750929550565b634e487b7160e01b5f52601160045260245ffd5b80820281158282048414176112bd576112bd612264565b5f6020828403121561229f575f5ffd5b815162ffffff811681146106df575f5ffd5b5f5f5f5f608085870312156122c4575f5ffd5b845160208601519094506122d781611e3a565b604086015190935063ffffffff811681146122f0575f5ffd5b6060959095015193969295505050565b5f6060828403128015612311575f5ffd5b5061231a612103565b825161232581611ed6565b8152602083015161233581611ed6565b602082015261219460408401612138565b5f60208284031215612356575f5ffd5b5051919050565b5f6060828403121561236d575f5ffd5b612375612103565b9050612380826121bb565b815261238e602083016121bb565b6020820152604082015164ffffffffff811681146123aa575f5ffd5b604082015292915050565b5f6101008284031280156123c7575f5ffd5b506040516080810167ffffffffffffffff811182821017156123f757634e487b7160e01b5f52604160045260245ffd5b604052612404848461235d565b8152612413846060850161235d565b602082015260c083015161242681611e8c565b604082015261243760e084016121bb565b60608201529392505050565b808201808211156112bd576112bd612264565b5f81810b6080810161246a5761246a612264565b5f0392915050565b634e487b7160e01b5f52601260045260245ffd5b5f8261249457612494612472565b500490565b6001600160901b0381811683821601908111156112bd576112bd612264565b6001815b60018411156124f3578085048111156124d7576124d7612264565b60018416156124e557908102905b60019390931c9280026124bc565b935093915050565b5f82612509575060016112bd565b8161251557505f6112bd565b816001811461252b576002811461253557612551565b60019150506112bd565b60ff84111561254657612546612264565b50506001821b6112bd565b5060208310610133831016604e8410600b8410161715612574575081810a6112bd565b6125805f1984846124b8565b805f190482111561259357612593612264565b029392505050565b5f6106df60ff8416836124fb565b818103818111156112bd576112bd612264565b5f6001600160481b038316806125d4576125d4612472565b806001600160481b0384160491505092915050565b6001600160481b0381811683821601908111156112bd576112bd612264565b5f6001600160801b0383168061262057612620612472565b806001600160801b0384160491505092915050565b634e487b7160e01b5f52603260045260245ffd5b5f606082840312801561265a575f5ffd5b50612663612103565b825161266e81611e3a565b8152602083015161267e81611e3a565b6020820152604083015161219481612074565b5f81518084528060208401602086015e5f602082860101526020601f19601f83011685010191505092915050565b604081525f6126d16040830185612691565b82810360208401526126e38185612691565b95945050505050565b5f6001600160901b0382166001600160901b0384166001600160901b0381830216925081830481148215176114d4576114d461226456fea2646970667358221220ba97a0153bcd7ffb34eb415293984f6dd981640b89b847dc238db38df88e8f3964736f6c634300081c0033","linkReferences":{}},"methodIdentifiers":{"VAULT()":"411557d1","getAddressAPE(uint48)":"8d0f7844","getReserves(uint48[])":"a0193ec4","getVaultStatus((address,address,int8))":"049354b9","priceOfAPE((address,address,int8))":"58c6bdbd","priceOfTEA((address,address,int8))":"58676d0c","quoteBurn(bool,(address,address,int8),uint256)":"a4e59a9f","quoteCollateralToDebtToken(address,address,uint256)":"2f3ccd42","quoteMint(bool,(address,address,int8),uint144)":"7ef3090a","quoteMintWithDebtToken(bool,(address,address,int8),uint256)":"37961f8d"},"id":108}