{"abi":[{"type":"constructor","inputs":[{"name":"vault","type":"address","internalType":"address"},{"name":"oracle","type":"address","internalType":"address"},{"name":"uniswapV3Factory","type":"address","internalType":"address"}],"stateMutability":"nonpayable"},{"type":"function","name":"VAULT","inputs":[],"outputs":[{"name":"","type":"address","internalType":"contract IVault"}],"stateMutability":"view"},{"type":"function","name":"getAddressAPE","inputs":[{"name":"vaultId","type":"uint48","internalType":"uint48"}],"outputs":[{"name":"","type":"address","internalType":"address"}],"stateMutability":"view"},{"type":"function","name":"getReserves","inputs":[{"name":"vaultIds","type":"uint48[]","internalType":"uint48[]"}],"outputs":[{"name":"reserves","type":"tuple[]","internalType":"struct SirStructs.Reserves[]","components":[{"name":"reserveApes","type":"uint144","internalType":"uint144"},{"name":"reserveLPers","type":"uint144","internalType":"uint144"},{"name":"tickPriceX42","type":"int64","internalType":"int64"}]}],"stateMutability":"view"},{"type":"function","name":"getVaultStatus","inputs":[{"name":"vaultParams","type":"tuple","internalType":"struct SirStructs.VaultParameters","components":[{"name":"debtToken","type":"address","internalType":"address"},{"name":"collateralToken","type":"address","internalType":"address"},{"name":"leverageTier","type":"int8","internalType":"int8"}]}],"outputs":[{"name":"","type":"uint8","internalType":"enum Assistant.VaultStatus"}],"stateMutability":"view"},{"type":"function","name":"priceOfAPE","inputs":[{"name":"vaultParams","type":"tuple","internalType":"struct SirStructs.VaultParameters","components":[{"name":"debtToken","type":"address","internalType":"address"},{"name":"collateralToken","type":"address","internalType":"address"},{"name":"leverageTier","type":"int8","internalType":"int8"}]}],"outputs":[{"name":"num","type":"uint256","internalType":"uint256"},{"name":"den","type":"uint256","internalType":"uint256"}],"stateMutability":"view"},{"type":"function","name":"priceOfTEA","inputs":[{"name":"vaultParams","type":"tuple","internalType":"struct SirStructs.VaultParameters","components":[{"name":"debtToken","type":"address","internalType":"address"},{"name":"collateralToken","type":"address","internalType":"address"},{"name":"leverageTier","type":"int8","internalType":"int8"}]}],"outputs":[{"name":"num","type":"uint256","internalType":"uint256"},{"name":"den","type":"uint256","internalType":"uint256"}],"stateMutability":"view"},{"type":"function","name":"quoteBurn","inputs":[{"name":"isAPE","type":"bool","internalType":"bool"},{"name":"vaultParams","type":"tuple","internalType":"struct SirStructs.VaultParameters","components":[{"name":"debtToken","type":"address","internalType":"address"},{"name":"collateralToken","type":"address","internalType":"address"},{"name":"leverageTier","type":"int8","internalType":"int8"}]},{"name":"amountTokens","type":"uint256","internalType":"uint256"}],"outputs":[{"name":"amountCollateral","type":"uint144","internalType":"uint144"}],"stateMutability":"view"},{"type":"function","name":"quoteCollateralToDebtToken","inputs":[{"name":"debtToken","type":"address","internalType":"address"},{"name":"collateralToken","type":"address","internalType":"address"},{"name":"amountCollateral","type":"uint256","internalType":"uint256"}],"outputs":[{"name":"amountDebtToken","type":"uint256","internalType":"uint256"}],"stateMutability":"view"},{"type":"function","name":"quoteMint","inputs":[{"name":"isAPE","type":"bool","internalType":"bool"},{"name":"vaultParams","type":"tuple","internalType":"struct SirStructs.VaultParameters","components":[{"name":"debtToken","type":"address","internalType":"address"},{"name":"collateralToken","type":"address","internalType":"address"},{"name":"leverageTier","type":"int8","internalType":"int8"}]},{"name":"amountCollateral","type":"uint144","internalType":"uint144"}],"outputs":[{"name":"amountTokens","type":"uint256","internalType":"uint256"}],"stateMutability":"view"},{"type":"function","name":"quoteMintWithDebtToken","inputs":[{"name":"isAPE","type":"bool","internalType":"bool"},{"name":"vaultParams","type":"tuple","internalType":"struct SirStructs.VaultParameters","components":[{"name":"debtToken","type":"address","internalType":"address"},{"name":"collateralToken","type":"address","internalType":"address"},{"name":"leverageTier","type":"int8","internalType":"int8"}]},{"name":"amountDebtToken","type":"uint256","internalType":"uint256"}],"outputs":[{"name":"amountTokens","type":"uint256","internalType":"uint256"},{"name":"amountCollateral","type":"uint256","internalType":"uint256"}],"stateMutability":"view"},{"type":"error","name":"AmountTooLow","inputs":[]},{"type":"error","name":"TEAMaxSupplyExceeded","inputs":[]},{"type":"error","name":"TooMuchCollateral","inputs":[]},{"type":"error","name":"VaultDoesNotExist","inputs":[]}],"bytecode":{"object":"0x610100604052348015610010575f5ffd5b5060405161281738038061281783398101604081905261002f91610103565b6001600160a01b0380841660805282811660a052811660c0524660010361006d57735e55c9e631fae526cd4b0526c4818d6e0a9ef0e360e0526100e0565b4662aa36a7036100945773e3c07ebf66b9d070b589bcca30903891f71a92be60e0526100e0565b60405162461bcd60e51b815260206004820152601560248201527f4e6574776f726b206e6f7420737570706f727465640000000000000000000000604482015260640160405180910390fd5b505050610143565b80516001600160a01b03811681146100fe575f5ffd5b919050565b5f5f5f60608486031215610115575f5ffd5b61011e846100e8565b925061012c602085016100e8565b915061013a604085016100e8565b90509250925092565b60805160a05160c05160e0516126236101f45f395f6107c601525f61187301525f81816104e9015261071301525f81816101160152818161042201528181610931015281816109cf01528181610a7e01528181610afd01528181610b9a01528181610c7101528181610d6a01528181610de30152818161101d01528181611226015281816112e7015281816113dc01528181611476015281816115660152818161167b01526117d501526126235ff3fe608060405234801561000f575f5ffd5b506004361061009b575f3560e01c806358c6bdbd1161006357806358c6bdbd146101635780637ef3090a146101765780638d0f784414610189578063a0193ec41461019c578063a4e59a9f146101bc575f5ffd5b8063049354b91461009f5780632f3ccd42146100c857806337961f8d146100e9578063411557d11461011157806358676d0c14610150575b5f5ffd5b6100b26100ad366004611d1c565b6101e7565b6040516100bf9190611d36565b60405180910390f35b6100db6100d6366004611d73565b6104bf565b6040519081526020016100bf565b6100fc6100f7366004611dbe565b6106e6565b604080519283526020830191909152016100bf565b6101387f000000000000000000000000000000000000000000000000000000000000000081565b6040516001600160a01b0390911681526020016100bf565b6100fc61015e366004611d1c565b61092c565b6100fc610171366004611d1c565b610af8565b6100db610184366004611e0f565b610c6d565b610138610197366004611e69565b611220565b6101af6101aa366004611e84565b611259565b6040516100bf9190611ef5565b6101cf6101ca366004611dbe565b611472565b6040516001600160901b0390911681526020016100bf565b5f6101f86040830160208401611f68565b6001600160a01b03163b5f0361020f57505f919050565b61021c6020830183611f68565b6001600160a01b03163b5f0361023357505f919050565b5f6102446040840160208501611f68565b60408051600481526024810182526020810180516001600160e01b03166318160ddd60e01b17905290516001600160a01b0392909216916102859190611f83565b5f60405180830381855afa9150503d805f81146102bd576040519150601f19603f3d011682016040523d82523d5f602084013e6102c2565b606091505b50509050806102d357505f92915050565b6102e06020840184611f68565b60408051600481526024810182526020810180516001600160e01b03166318160ddd60e01b17905290516001600160a01b0392909216916103219190611f83565b5f60405180830381855afa9150503d805f8114610359576040519150601f19603f3d011682016040523d82523d5f602084013e61035e565b606091505b5050809150508061037157505f92915050565b6003196103846060850160408601611fa6565b5f0b12806103a35750600261039f6060850160408601611fa6565b5f0b135b156103b057505f92915050565b6103bb83606461186d565b1580156103d157506103cf836101f461186d565b155b80156103e657506103e483610bb861186d565b155b80156103fb57506103f98361271061186d565b155b156104095750600192915050565b604051630bb7cc4160e21b81525f906001600160a01b037f00000000000000000000000000000000000000000000000000000000000000001690632edf310490610457908790600401611fc1565b606060405180830381865afa158015610472573d5f5f3e3d5ffd5b505050506040513d601f19601f820116820180604052508101906104969190612073565b9050806040015165ffffffffffff165f036104b5575060029392505050565b5060039392505050565b6040516279904f60e91b81526001600160a01b03848116600483015283811660248301525f9182917f0000000000000000000000000000000000000000000000000000000000000000169063f3209e0090604401602060405180830381865afa15801561052e573d5f5f3e3d5ffd5b505050506040513d601f19601f8201168201806040525081019061055291906120c5565b90505f816001600160a01b0316633850c7bd6040518163ffffffff1660e01b815260040160e060405180830381865afa158015610591573d5f5f3e3d5ffd5b505050506040513d601f19601f820116820180604052508101906105b591906120f1565b50505050505090505f826001600160a01b031663d21220a76040518163ffffffff1660e01b8152600401602060405180830381865afa1580156105fa573d5f5f3e3d5ffd5b505050506040513d601f19601f8201168201806040525081019061061e91906120c5565b6001600160a01b0316866001600160a01b03161490506001600160801b038016826001600160a01b031611610697575f6106616001600160a01b0384168061219d565b9050811561067d57610678600160c01b87836118d0565b61068c565b61068c8187600160c01b6118d0565b9450505050506106df565b5f6106b56001600160a01b03841680680100000000000000006118d0565b905081156106cc57610678600160801b87836118d0565b61068c8187600160801b6118d0565b5050505b9392505050565b5f5f825f0361070857604051631fbaba3560e01b815260040160405180910390fd5b5f6001600160a01b037f00000000000000000000000000000000000000000000000000000000000000001663c7dd5c0a6107456020880188611f68565b6107556040890160208a01611f68565b6040516001600160e01b031960e085901b1681526001600160a01b03928316600482015291166024820152604401602060405180830381865afa15801561079e573d5f5f3e3d5ffd5b505050506040513d601f19601f820116820180604052508101906107c291906121b4565b90507f00000000000000000000000000000000000000000000000000000000000000006001600160a01b031663c6a5026a6040518060a00160405280885f0160208101906108109190611f68565b6001600160a01b031681526020018860200160208101906108319190611f68565b6001600160a01b03908116825260208083018a905262ffffff8088166040808601919091525f60609586015280516001600160e01b031960e089901b16815286518516600482015292860151841660248401528501516044830152928401519092166064830152608090920151909116608482015260a401608060405180830381865afa1580156108c4573d5f5f3e3d5ffd5b505050506040513d601f19601f820116820180604052508101906108e891906121d6565b5091935050506001600160901b0382111561091657604051635baa913560e01b815260040160405180910390fd5b610921868684610c6d565b925050935093915050565b5f5f5f7f00000000000000000000000000000000000000000000000000000000000000006001600160a01b031663fbd98edf856040518263ffffffff1660e01b815260040161097b9190611fc1565b606060405180830381865afa158015610996573d5f5f3e3d5ffd5b505050506040513d601f19601f820116820180604052508101906109ba9190612225565b905080602001516001600160901b031692505f7f00000000000000000000000000000000000000000000000000000000000000006001600160a01b0316632edf3104866040518263ffffffff1660e01b8152600401610a199190611fc1565b606060405180830381865afa158015610a34573d5f5f3e3d5ffd5b505050506040513d601f19601f82011682018060405250810190610a589190612073565b604081810151905163bd85b03960e01b815265ffffffffffff90911660048201529091507f00000000000000000000000000000000000000000000000000000000000000006001600160a01b03169063bd85b03990602401602060405180830381865afa158015610acb573d5f5f3e3d5ffd5b505050506040513d601f19601f82011682018060405250810190610aef919061226b565b92505050915091565b5f5f5f7f00000000000000000000000000000000000000000000000000000000000000006001600160a01b031663fbd98edf856040518263ffffffff1660e01b8152600401610b479190611fc1565b606060405180830381865afa158015610b62573d5f5f3e3d5ffd5b505050506040513d601f19601f82011682018060405250810190610b869190612225565b9050805f01516001600160901b031692505f7f00000000000000000000000000000000000000000000000000000000000000006001600160a01b0316632edf3104866040518263ffffffff1660e01b8152600401610be49190611fc1565b606060405180830381865afa158015610bff573d5f5f3e3d5ffd5b505050506040513d601f19601f82011682018060405250810190610c239190612073565b9050610c328160400151611220565b6001600160a01b03166318160ddd6040518163ffffffff1660e01b8152600401602060405180830381865afa158015610acb573d5f5f3e3d5ffd5b5f5f7f00000000000000000000000000000000000000000000000000000000000000006001600160a01b0316632edf3104856040518263ffffffff1660e01b8152600401610cbb9190611fc1565b606060405180830381865afa158015610cd6573d5f5f3e3d5ffd5b505050506040513d601f19601f82011682018060405250810190610cfa9190612073565b9050806040015165ffffffffffff165f03610d2857604051634d827f1760e01b815260040160405180910390fd5b826001600160901b03165f03610d5157604051631fbaba3560e01b815260040160405180910390fd5b60405163fbd98edf60e01b81525f906001600160a01b037f0000000000000000000000000000000000000000000000000000000000000000169063fbd98edf90610d9f908890600401611fc1565b606060405180830381865afa158015610dba573d5f5f3e3d5ffd5b505050506040513d601f19601f82011682018060405250810190610dde9190612225565b90505f7f00000000000000000000000000000000000000000000000000000000000000006001600160a01b031663458e8e6b6040518163ffffffff1660e01b815260040161010060405180830381865afa158015610e3e573d5f5f3e3d5ffd5b505050506040513d601f19601f82011682018060405250810190610e6291906122da565b90508615610fd3575f8080610e7d60608a0160408b01611fa6565b5f0b12610ebb576127109150610e996060890160408a01611fa6565b835151610eb49161ffff90911660ff9091161b612710612368565b9050610efc565b5f610ecc60608a0160408b01611fa6565b610ed59061237b565b60ff16612710901b9050809250835f01515f015161ffff1681610ef89190612368565b9150505b5f81610f11846001600160901b038b1661219d565b610f1b91906123ab565b90505f610f2b8760400151611220565b90505f816001600160a01b03166318160ddd6040518163ffffffff1660e01b8152600401602060405180830381865afa158015610f6a573d5f5f3e3d5ffd5b505050506040513d601f19601f82011682018060405250810190610f8e919061226b565b90508015610fb257610fad8184895f01516001600160901b03166118d0565b610fc7565b8651610fc7906001600160901b031684612368565b98505050505050611200565b602081015151612710905f90610fed9061ffff1683612368565b604080870151905163bd85b03960e01b815265ffffffffffff90911660048201529091505f906001600160a01b037f0000000000000000000000000000000000000000000000000000000000000000169063bd85b03990602401602060405180830381865afa158015611062573d5f5f3e3d5ffd5b505050506040513d601f19601f82011682018060405250810190611086919061226b565b905080156110b4576110af81896001600160901b031687602001516001600160901b03166118d0565b6110db565b6110db6110c760408b0160208c01611f68565b60208701516110d6908b6123be565b611976565b96508061ffff606067016345785d8a00006301e1338060016110ff600c600a6124c0565b61110d9063781a75c061219d565b61111791906124ce565b61112191906124e1565b61112c90600161250e565b611146906001600160481b031666f2089eaf20dbec61219d565b61115091906123ab565b6001600160481b03166001600160801b0316901b61116e919061252d565b6001600160801b031661118191906124ce565b8711156111a157604051636deac20760e01b815260040160405180910390fd5b5f826111b6856001600160901b038c1661219d565b6111c091906123ab565b6001600160901b031690506111f9888284156111dc578b6111eb565b60208901516111eb908d6123be565b6001600160901b03166118d0565b9750505050505b835f036106db57604051631fbaba3560e01b815260040160405180910390fd5b5f6112537f00000000000000000000000000000000000000000000000000000000000000008365ffffffffffff16611b56565b92915050565b60608167ffffffffffffffff81111561127457611274612014565b6040519080825280602002602001820160405280156112bd57816020015b604080516060810182525f80825260208083018290529282015282525f199092019101816112925790505b50604080516060810182525f808252602082018190529181018290529192505b8381101561146a577f00000000000000000000000000000000000000000000000000000000000000006001600160a01b031663d2f3fd098686848181106113265761132661255a565b905060200201602081019061133b9190611e69565b6040516001600160e01b031960e084901b16815265ffffffffffff9091166004820152602401606060405180830381865afa15801561137c573d5f5f3e3d5ffd5b505050506040513d601f19601f820116820180604052508101906113a0919061256e565b6040805163fbd98edf60e01b815282516001600160a01b039081166004830152602084015181166024830152918301515f0b60448201529193507f0000000000000000000000000000000000000000000000000000000000000000169063fbd98edf90606401606060405180830381865afa158015611421573d5f5f3e3d5ffd5b505050506040513d601f19601f820116820180604052508101906114459190612225565b8382815181106114575761145761255a565b60209081029190910101526001016112dd565b505092915050565b5f5f7f00000000000000000000000000000000000000000000000000000000000000006001600160a01b0316632edf3104856040518263ffffffff1660e01b81526004016114c09190611fc1565b606060405180830381865afa1580156114db573d5f5f3e3d5ffd5b505050506040513d601f19601f820116820180604052508101906114ff9190612073565b9050806040015165ffffffffffff165f0361152d57604051634d827f1760e01b815260040160405180910390fd5b825f0361154d57604051631fbaba3560e01b815260040160405180910390fd5b60405163fbd98edf60e01b81525f906001600160a01b037f0000000000000000000000000000000000000000000000000000000000000000169063fbd98edf9061159b908890600401611fc1565b606060405180830381865afa1580156115b6573d5f5f3e3d5ffd5b505050506040513d601f19601f820116820180604052508101906115da9190612225565b905085156117b0575f6115f08360400151611220565b90505f816001600160a01b03166318160ddd6040518163ffffffff1660e01b8152600401602060405180830381865afa15801561162f573d5f5f3e3d5ffd5b505050506040513d601f19601f82011682018060405250810190611653919061226b565b90505f61166d845f01516001600160901b031688846118d0565b6001600160901b031690505f7f00000000000000000000000000000000000000000000000000000000000000006001600160a01b031663458e8e6b6040518163ffffffff1660e01b815260040161010060405180830381865afa1580156116d6573d5f5f3e3d5ffd5b505050506040513d601f19601f820116820180604052508101906116fa91906122da565b90505f808061170f60608d0160408e01611fa6565b5f0b1261174d57612710915061172b60608c0160408d01611fa6565b8351516117469161ffff90911660ff9091161b612710612368565b905061178e565b5f61175e60608d0160408e01611fa6565b6117679061237b565b60ff16612710901b9050809250835f01515f015161ffff168161178a9190612368565b9150505b80611799838661219d565b6117a391906123ab565b9850505050505050611864565b604082810151905163bd85b03960e01b815265ffffffffffff90911660048201525f907f00000000000000000000000000000000000000000000000000000000000000006001600160a01b03169063bd85b03990602401602060405180830381865afa158015611822573d5f5f3e3d5ffd5b505050506040513d601f19601f82011682018060405250810190611846919061226b565b905061186082602001516001600160901b031686836118d0565b9350505b50509392505050565b5f6118bd7f00000000000000000000000000000000000000000000000000000000000000006118b86118a56040870160208801611f68565b6118b26020880188611f68565b86611bb6565b611c20565b6001600160a01b03163b15159392505050565b5f80805f19858709858702925082811083820303915050805f03611904575f84116118f9575f5ffd5b5082900490506106df565b80841161190f575f5ffd5b5f8486880960026001871981018816978890046003810283188082028403028082028403028082028403028082028403028082028403029081029092039091025f889003889004909101858311909403939093029303949094049190911702949350505050565b5f5f836001600160a01b03166318160ddd6040518163ffffffff1660e01b8152600401602060405180830381865afa1580156119b4573d5f5f3e3d5ffd5b505050506040513d601f19601f820116820180604052508101906119d8919061226b565b9050620f424061ffff606067016345785d8a00006301e1338060016119ff600c600a6124c0565b611a0d9063781a75c061219d565b611a1791906124ce565b611a2191906124e1565b611a2c90600161250e565b611a46906001600160481b031666f2089eaf20dbec61219d565b611a5091906123ab565b6001600160481b03166001600160801b0316901b611a6e919061252d565b611a78919061252d565b6001600160801b03168111611aa257611a9483620f42406125b6565b6001600160901b0316611b4e565b611b4e61ffff606067016345785d8a00006301e133806001611ac6600c600a6124c0565b611ad49063781a75c061219d565b611ade91906124ce565b611ae891906124e1565b611af390600161250e565b611b0d906001600160481b031666f2089eaf20dbec61219d565b611b1791906123ab565b6001600160481b03166001600160801b0316901b611b35919061252d565b6001600160801b0316846001600160901b0316836118d0565b949350505050565b5f604051835f5260ff600b53826020527f21c35dbe1b344a2488cf3321d6ce542f8e9f305544ff09e4993a62319a497c1f6040526055600b20601452806040525061d6945f52600160345350506017601e206001600160a01b0316919050565b604080516060810182525f8082526020820181905291810191909152826001600160a01b0316846001600160a01b03161115611bf0579192915b50604080516060810182526001600160a01b03948516815292909316602083015262ffffff169181019190915290565b5f81602001516001600160a01b0316825f01516001600160a01b031610611c45575f5ffd5b815160208084015160408086015181516001600160a01b0395861681860152949092168482015262ffffff90911660608085019190915281518085038201815260808501909252815191909201206001600160f81b031960a08401529085901b6bffffffffffffffffffffffff191660a183015260b58201527fe34f199b19b2b4f47f68442619d555527d244f78a3297ea89325f843f87b8b5460d582015260f50160408051601f1981840301815291905280516020909101209392505050565b5f60608284031215611d16575f5ffd5b50919050565b5f60608284031215611d2c575f5ffd5b6106df8383611d06565b6020810160048310611d5657634e487b7160e01b5f52602160045260245ffd5b91905290565b6001600160a01b0381168114611d70575f5ffd5b50565b5f5f5f60608486031215611d85575f5ffd5b8335611d9081611d5c565b92506020840135611da081611d5c565b929592945050506040919091013590565b8015158114611d70575f5ffd5b5f5f5f60a08486031215611dd0575f5ffd5b8335611ddb81611db1565b9250611dea8560208601611d06565b929592945050506080919091013590565b6001600160901b0381168114611d70575f5ffd5b5f5f5f60a08486031215611e21575f5ffd5b8335611e2c81611db1565b9250611e3b8560208601611d06565b91506080840135611e4b81611dfb565b809150509250925092565b65ffffffffffff81168114611d70575f5ffd5b5f60208284031215611e79575f5ffd5b81356106df81611e56565b5f5f60208385031215611e95575f5ffd5b823567ffffffffffffffff811115611eab575f5ffd5b8301601f81018513611ebb575f5ffd5b803567ffffffffffffffff811115611ed1575f5ffd5b8560208260051b8401011115611ee5575f5ffd5b6020919091019590945092505050565b602080825282518282018190525f918401906040840190835b81811015611f5d5783516001600160901b0381511684526001600160901b036020820151166020850152604081015160070b604085015250606083019250602084019350600181019050611f0e565b509095945050505050565b5f60208284031215611f78575f5ffd5b81356106df81611d5c565b5f82518060208501845e5f920191825250919050565b805f0b8114611d70575f5ffd5b5f60208284031215611fb6575f5ffd5b81356106df81611f99565b606081018235611fd081611d5c565b6001600160a01b031682526020830135611fe981611d5c565b6001600160a01b03166020830152604083013561200581611f99565b805f0b60408401525092915050565b634e487b7160e01b5f52604160045260245ffd5b6040516060810167ffffffffffffffff8111828210171561205757634e487b7160e01b5f52604160045260245ffd5b60405290565b8051600781900b811461206e575f5ffd5b919050565b5f6060828403128015612084575f5ffd5b5061208d612028565b825161209881611dfb565b81526120a66020840161205d565b602082015260408301516120b981611e56565b60408201529392505050565b5f602082840312156120d5575f5ffd5b81516106df81611d5c565b805161ffff8116811461206e575f5ffd5b5f5f5f5f5f5f5f60e0888a031215612107575f5ffd5b875161211281611d5c565b8097505060208801518060020b8114612129575f5ffd5b9550612137604089016120e0565b9450612145606089016120e0565b9350612153608089016120e0565b925060a088015160ff81168114612168575f5ffd5b60c089015190925061217981611db1565b8091505092959891949750929550565b634e487b7160e01b5f52601160045260245ffd5b808202811582820484141761125357611253612189565b5f602082840312156121c4575f5ffd5b815162ffffff811681146106df575f5ffd5b5f5f5f5f608085870312156121e9575f5ffd5b845160208601519094506121fc81611d5c565b604086015190935063ffffffff81168114612215575f5ffd5b6060959095015193969295505050565b5f6060828403128015612236575f5ffd5b5061223f612028565b825161224a81611dfb565b8152602083015161225a81611dfb565b60208201526120b96040840161205d565b5f6020828403121561227b575f5ffd5b5051919050565b5f60608284031215612292575f5ffd5b61229a612028565b90506122a5826120e0565b81526122b3602083016120e0565b6020820152604082015164ffffffffff811681146122cf575f5ffd5b604082015292915050565b5f6101008284031280156122ec575f5ffd5b506040516080810167ffffffffffffffff8111828210171561231c57634e487b7160e01b5f52604160045260245ffd5b6040526123298484612282565b81526123388460608501612282565b602082015260c083015161234b81611db1565b604082015261235c60e084016120e0565b60608201529392505050565b8082018082111561125357611253612189565b5f81810b6080810161238f5761238f612189565b5f0392915050565b634e487b7160e01b5f52601260045260245ffd5b5f826123b9576123b9612397565b500490565b6001600160901b03818116838216019081111561125357611253612189565b6001815b6001841115612418578085048111156123fc576123fc612189565b600184161561240a57908102905b60019390931c9280026123e1565b935093915050565b5f8261242e57506001611253565b8161243a57505f611253565b8160018114612450576002811461245a57612476565b6001915050611253565b60ff84111561246b5761246b612189565b50506001821b611253565b5060208310610133831016604e8410600b8410161715612499575081810a611253565b6124a55f1984846123dd565b805f19048211156124b8576124b8612189565b029392505050565b5f6106df60ff841683612420565b8181038181111561125357611253612189565b5f6001600160481b038316806124f9576124f9612397565b806001600160481b0384160491505092915050565b6001600160481b03818116838216019081111561125357611253612189565b5f6001600160801b0383168061254557612545612397565b806001600160801b0384160491505092915050565b634e487b7160e01b5f52603260045260245ffd5b5f606082840312801561257f575f5ffd5b50612588612028565b825161259381611d5c565b815260208301516125a381611d5c565b602082015260408301516120b981611f99565b5f6001600160901b0382166001600160901b0384166001600160901b03818302169250818304811482151761146a5761146a61218956fea2646970667358221220e6ada5e75a72215e100ca40170593e3c0033554dcc3565803b979f1d92f27e1964736f6c634300081c0033","linkReferences":{}},"methodIdentifiers":{"VAULT()":"411557d1","getAddressAPE(uint48)":"8d0f7844","getReserves(uint48[])":"a0193ec4","getVaultStatus((address,address,int8))":"049354b9","priceOfAPE((address,address,int8))":"58c6bdbd","priceOfTEA((address,address,int8))":"58676d0c","quoteBurn(bool,(address,address,int8),uint256)":"a4e59a9f","quoteCollateralToDebtToken(address,address,uint256)":"2f3ccd42","quoteMint(bool,(address,address,int8),uint144)":"7ef3090a","quoteMintWithDebtToken(bool,(address,address,int8),uint256)":"37961f8d"},"id":34}