{"abi":[{"type":"constructor","inputs":[{"name":"vault_","type":"address","internalType":"address"},{"name":"uniswapV3Factory","type":"address","internalType":"address"}],"stateMutability":"nonpayable"},{"type":"function","name":"VAULT","inputs":[],"outputs":[{"name":"","type":"address","internalType":"contract IVault"}],"stateMutability":"view"},{"type":"function","name":"getAddressAPE","inputs":[{"name":"vaultId","type":"uint48","internalType":"uint48"}],"outputs":[{"name":"","type":"address","internalType":"address"}],"stateMutability":"view"},{"type":"function","name":"getReserves","inputs":[{"name":"vaultIds","type":"uint48[]","internalType":"uint48[]"}],"outputs":[{"name":"reserves","type":"tuple[]","internalType":"struct SirStructs.Reserves[]","components":[{"name":"reserveApes","type":"uint144","internalType":"uint144"},{"name":"reserveLPers","type":"uint144","internalType":"uint144"},{"name":"tickPriceX42","type":"int64","internalType":"int64"}]}],"stateMutability":"view"},{"type":"function","name":"getVaultStatus","inputs":[{"name":"vaultParams","type":"tuple","internalType":"struct SirStructs.VaultParameters","components":[{"name":"debtToken","type":"address","internalType":"address"},{"name":"collateralToken","type":"address","internalType":"address"},{"name":"leverageTier","type":"int8","internalType":"int8"}]}],"outputs":[{"name":"","type":"uint8","internalType":"enum Assistant.VaultStatus"}],"stateMutability":"view"},{"type":"function","name":"priceOfAPE","inputs":[{"name":"vaultParams","type":"tuple","internalType":"struct SirStructs.VaultParameters","components":[{"name":"debtToken","type":"address","internalType":"address"},{"name":"collateralToken","type":"address","internalType":"address"},{"name":"leverageTier","type":"int8","internalType":"int8"}]}],"outputs":[{"name":"num","type":"uint256","internalType":"uint256"},{"name":"den","type":"uint256","internalType":"uint256"}],"stateMutability":"view"},{"type":"function","name":"priceOfTEA","inputs":[{"name":"vaultParams","type":"tuple","internalType":"struct SirStructs.VaultParameters","components":[{"name":"debtToken","type":"address","internalType":"address"},{"name":"collateralToken","type":"address","internalType":"address"},{"name":"leverageTier","type":"int8","internalType":"int8"}]}],"outputs":[{"name":"num","type":"uint256","internalType":"uint256"},{"name":"den","type":"uint256","internalType":"uint256"}],"stateMutability":"view"},{"type":"function","name":"quoteBurn","inputs":[{"name":"isAPE","type":"bool","internalType":"bool"},{"name":"vaultParams","type":"tuple","internalType":"struct SirStructs.VaultParameters","components":[{"name":"debtToken","type":"address","internalType":"address"},{"name":"collateralToken","type":"address","internalType":"address"},{"name":"leverageTier","type":"int8","internalType":"int8"}]},{"name":"amountTokens","type":"uint256","internalType":"uint256"}],"outputs":[{"name":"amountCollateral","type":"uint144","internalType":"uint144"}],"stateMutability":"view"},{"type":"function","name":"quoteMint","inputs":[{"name":"isAPE","type":"bool","internalType":"bool"},{"name":"vaultParams","type":"tuple","internalType":"struct SirStructs.VaultParameters","components":[{"name":"debtToken","type":"address","internalType":"address"},{"name":"collateralToken","type":"address","internalType":"address"},{"name":"leverageTier","type":"int8","internalType":"int8"}]},{"name":"amountCollateral","type":"uint144","internalType":"uint144"}],"outputs":[{"name":"amountTokens","type":"uint256","internalType":"uint256"}],"stateMutability":"view"},{"type":"error","name":"AmountTooLow","inputs":[]},{"type":"error","name":"TEAMaxSupplyExceeded","inputs":[]},{"type":"error","name":"VaultDoesNotExist","inputs":[]}],"bytecode":{"object":"0x60c060405234801561000f575f5ffd5b5060405161214f38038061214f83398101604081905261002e91610060565b6001600160a01b039081166080521660a052610091565b80516001600160a01b038116811461005b575f5ffd5b919050565b5f5f60408385031215610071575f5ffd5b61007a83610045565b915061008860208401610045565b90509250929050565b60805160a0516120276101285f395f818160b7015281816103e60152818161048801528181610526015281816105d501528181610654015281816106f1015281816107c8015281816108c10152818161093a01528181610b7401528181610d8701528181610e4801528181610f3d01528181610fd7015281816110c7015281816111dc015261133601525f6113d401526120275ff3fe608060405234801561000f575f5ffd5b5060043610610085575f3560e01c80637ef3090a116100585780637ef3090a1461012c5780638d0f78441461014d578063a0193ec414610160578063a4e59a9f14610180575f5ffd5b8063049354b914610089578063411557d1146100b257806358676d0c146100f157806358c6bdbd14610119575b5f5ffd5b61009c610097366004611883565b6101ab565b6040516100a9919061189d565b60405180910390f35b6100d97f000000000000000000000000000000000000000000000000000000000000000081565b6040516001600160a01b0390911681526020016100a9565b6101046100ff366004611883565b610483565b604080519283526020830191909152016100a9565b610104610127366004611883565b61064f565b61013f61013a3660046118e7565b6107c4565b6040519081526020016100a9565b6100d961015b366004611941565b610d81565b61017361016e36600461195c565b610dba565b6040516100a991906119cd565b61019361018e366004611a40565b610fd3565b6040516001600160901b0390911681526020016100a9565b5f6101bc6040830160208401611a90565b6001600160a01b03163b5f036101d357505f919050565b6101e06020830183611a90565b6001600160a01b03163b5f036101f757505f919050565b5f6102086040840160208501611a90565b60408051600481526024810182526020810180516001600160e01b03166318160ddd60e01b17905290516001600160a01b0392909216916102499190611aab565b5f60405180830381855afa9150503d805f8114610281576040519150601f19603f3d011682016040523d82523d5f602084013e610286565b606091505b505090508061029757505f92915050565b6102a46020840184611a90565b60408051600481526024810182526020810180516001600160e01b03166318160ddd60e01b17905290516001600160a01b0392909216916102e59190611aab565b5f60405180830381855afa9150503d805f811461031d576040519150601f19603f3d011682016040523d82523d5f602084013e610322565b606091505b5050809150508061033557505f92915050565b6003196103486060850160408601611ace565b5f0b1280610367575060026103636060850160408601611ace565b5f0b135b1561037457505f92915050565b61037f8360646113ce565b1580156103955750610393836101f46113ce565b155b80156103aa57506103a883610bb86113ce565b155b80156103bf57506103bd836127106113ce565b155b156103cd5750600192915050565b604051630bb7cc4160e21b81525f906001600160a01b037f00000000000000000000000000000000000000000000000000000000000000001690632edf31049061041b908790600401611ae9565b606060405180830381865afa158015610436573d5f5f3e3d5ffd5b505050506040513d601f19601f8201168201806040525081019061045a9190611b9b565b9050806040015165ffffffffffff165f03610479575060029392505050565b5060039392505050565b5f5f5f7f00000000000000000000000000000000000000000000000000000000000000006001600160a01b031663fbd98edf856040518263ffffffff1660e01b81526004016104d29190611ae9565b606060405180830381865afa1580156104ed573d5f5f3e3d5ffd5b505050506040513d601f19601f820116820180604052508101906105119190611bed565b905080602001516001600160901b031692505f7f00000000000000000000000000000000000000000000000000000000000000006001600160a01b0316632edf3104866040518263ffffffff1660e01b81526004016105709190611ae9565b606060405180830381865afa15801561058b573d5f5f3e3d5ffd5b505050506040513d601f19601f820116820180604052508101906105af9190611b9b565b604081810151905163bd85b03960e01b815265ffffffffffff90911660048201529091507f00000000000000000000000000000000000000000000000000000000000000006001600160a01b03169063bd85b03990602401602060405180830381865afa158015610622573d5f5f3e3d5ffd5b505050506040513d601f19601f820116820180604052508101906106469190611c33565b92505050915091565b5f5f5f7f00000000000000000000000000000000000000000000000000000000000000006001600160a01b031663fbd98edf856040518263ffffffff1660e01b815260040161069e9190611ae9565b606060405180830381865afa1580156106b9573d5f5f3e3d5ffd5b505050506040513d601f19601f820116820180604052508101906106dd9190611bed565b9050805f01516001600160901b031692505f7f00000000000000000000000000000000000000000000000000000000000000006001600160a01b0316632edf3104866040518263ffffffff1660e01b815260040161073b9190611ae9565b606060405180830381865afa158015610756573d5f5f3e3d5ffd5b505050506040513d601f19601f8201168201806040525081019061077a9190611b9b565b90506107898160400151610d81565b6001600160a01b03166318160ddd6040518163ffffffff1660e01b8152600401602060405180830381865afa158015610622573d5f5f3e3d5ffd5b5f5f7f00000000000000000000000000000000000000000000000000000000000000006001600160a01b0316632edf3104856040518263ffffffff1660e01b81526004016108129190611ae9565b606060405180830381865afa15801561082d573d5f5f3e3d5ffd5b505050506040513d601f19601f820116820180604052508101906108519190611b9b565b9050806040015165ffffffffffff165f0361087f57604051634d827f1760e01b815260040160405180910390fd5b826001600160901b03165f036108a857604051631fbaba3560e01b815260040160405180910390fd5b60405163fbd98edf60e01b81525f906001600160a01b037f0000000000000000000000000000000000000000000000000000000000000000169063fbd98edf906108f6908890600401611ae9565b606060405180830381865afa158015610911573d5f5f3e3d5ffd5b505050506040513d601f19601f820116820180604052508101906109359190611bed565b90505f7f00000000000000000000000000000000000000000000000000000000000000006001600160a01b031663458e8e6b6040518163ffffffff1660e01b815260040161010060405180830381865afa158015610995573d5f5f3e3d5ffd5b505050506040513d601f19601f820116820180604052508101906109b99190611cb3565b90508615610b2a575f80806109d460608a0160408b01611ace565b5f0b12610a125761271091506109f06060890160408a01611ace565b835151610a0b9161ffff90911660ff9091161b612710611d55565b9050610a53565b5f610a2360608a0160408b01611ace565b610a2c90611d68565b60ff16612710901b9050809250835f01515f015161ffff1681610a4f9190611d55565b9150505b5f81610a68846001600160901b038b16611d84565b610a729190611daf565b90505f610a828760400151610d81565b90505f816001600160a01b03166318160ddd6040518163ffffffff1660e01b8152600401602060405180830381865afa158015610ac1573d5f5f3e3d5ffd5b505050506040513d601f19601f82011682018060405250810190610ae59190611c33565b90508015610b0957610b048184895f01516001600160901b0316611431565b610b1e565b8651610b1e906001600160901b031684611d55565b98505050505050610d57565b602081015151612710905f90610b449061ffff1683611d55565b604080870151905163bd85b03960e01b815265ffffffffffff90911660048201529091505f906001600160a01b037f0000000000000000000000000000000000000000000000000000000000000000169063bd85b03990602401602060405180830381865afa158015610bb9573d5f5f3e3d5ffd5b505050506040513d601f19601f82011682018060405250810190610bdd9190611c33565b90508015610c0b57610c0681896001600160901b031687602001516001600160901b0316611431565b610c32565b610c32610c1e60408b0160208c01611a90565b6020870151610c2d908b611dc2565b6114dd565b96508061ffff606067016345785d8a00006301e133806001610c56600c600a611ec4565b610c649063781a75c0611d84565b610c6e9190611ed2565b610c789190611ee5565b610c83906001611f12565b610c9d906001600160481b031666f38a31408ae338611d84565b610ca79190611daf565b6001600160481b03166001600160801b0316901b610cc59190611f31565b6001600160801b0316610cd89190611ed2565b871115610cf857604051636deac20760e01b815260040160405180910390fd5b5f82610d0d856001600160901b038c16611d84565b610d179190611daf565b6001600160901b03169050610d5088828415610d33578b610d42565b6020890151610d42908d611dc2565b6001600160901b0316611431565b9750505050505b835f03610d7757604051631fbaba3560e01b815260040160405180910390fd5b5050509392505050565b5f610db47f00000000000000000000000000000000000000000000000000000000000000008365ffffffffffff166116bd565b92915050565b60608167ffffffffffffffff811115610dd557610dd5611b3c565b604051908082528060200260200182016040528015610e1e57816020015b604080516060810182525f80825260208083018290529282015282525f19909201910181610df35790505b50604080516060810182525f808252602082018190529181018290529192505b83811015610fcb577f00000000000000000000000000000000000000000000000000000000000000006001600160a01b031663d2f3fd09868684818110610e8757610e87611f5e565b9050602002016020810190610e9c9190611941565b6040516001600160e01b031960e084901b16815265ffffffffffff9091166004820152602401606060405180830381865afa158015610edd573d5f5f3e3d5ffd5b505050506040513d601f19601f82011682018060405250810190610f019190611f72565b6040805163fbd98edf60e01b815282516001600160a01b039081166004830152602084015181166024830152918301515f0b60448201529193507f0000000000000000000000000000000000000000000000000000000000000000169063fbd98edf90606401606060405180830381865afa158015610f82573d5f5f3e3d5ffd5b505050506040513d601f19601f82011682018060405250810190610fa69190611bed565b838281518110610fb857610fb8611f5e565b6020908102919091010152600101610e3e565b505092915050565b5f5f7f00000000000000000000000000000000000000000000000000000000000000006001600160a01b0316632edf3104856040518263ffffffff1660e01b81526004016110219190611ae9565b606060405180830381865afa15801561103c573d5f5f3e3d5ffd5b505050506040513d601f19601f820116820180604052508101906110609190611b9b565b9050806040015165ffffffffffff165f0361108e57604051634d827f1760e01b815260040160405180910390fd5b825f036110ae57604051631fbaba3560e01b815260040160405180910390fd5b60405163fbd98edf60e01b81525f906001600160a01b037f0000000000000000000000000000000000000000000000000000000000000000169063fbd98edf906110fc908890600401611ae9565b606060405180830381865afa158015611117573d5f5f3e3d5ffd5b505050506040513d601f19601f8201168201806040525081019061113b9190611bed565b90508515611311575f6111518360400151610d81565b90505f816001600160a01b03166318160ddd6040518163ffffffff1660e01b8152600401602060405180830381865afa158015611190573d5f5f3e3d5ffd5b505050506040513d601f19601f820116820180604052508101906111b49190611c33565b90505f6111ce845f01516001600160901b03168884611431565b6001600160901b031690505f7f00000000000000000000000000000000000000000000000000000000000000006001600160a01b031663458e8e6b6040518163ffffffff1660e01b815260040161010060405180830381865afa158015611237573d5f5f3e3d5ffd5b505050506040513d601f19601f8201168201806040525081019061125b9190611cb3565b90505f808061127060608d0160408e01611ace565b5f0b126112ae57612710915061128c60608c0160408d01611ace565b8351516112a79161ffff90911660ff9091161b612710611d55565b90506112ef565b5f6112bf60608d0160408e01611ace565b6112c890611d68565b60ff16612710901b9050809250835f01515f015161ffff16816112eb9190611d55565b9150505b806112fa8386611d84565b6113049190611daf565b98505050505050506113c5565b604082810151905163bd85b03960e01b815265ffffffffffff90911660048201525f907f00000000000000000000000000000000000000000000000000000000000000006001600160a01b03169063bd85b03990602401602060405180830381865afa158015611383573d5f5f3e3d5ffd5b505050506040513d601f19601f820116820180604052508101906113a79190611c33565b90506113c182602001516001600160901b03168683611431565b9350505b50509392505050565b5f61141e7f00000000000000000000000000000000000000000000000000000000000000006114196114066040870160208801611a90565b6114136020880188611a90565b8661171d565b611787565b6001600160a01b03163b15159392505050565b5f80805f19858709858702925082811083820303915050805f03611465575f841161145a575f5ffd5b5082900490506114d6565b808411611470575f5ffd5b5f848688098519600190810187169687900496828603819004959092119093035f82900391909104909201919091029190911760038402600290811880860282030280860282030280860282030280860282030280860282030280860290910302029150505b9392505050565b5f5f836001600160a01b03166318160ddd6040518163ffffffff1660e01b8152600401602060405180830381865afa15801561151b573d5f5f3e3d5ffd5b505050506040513d601f19601f8201168201806040525081019061153f9190611c33565b9050620f424061ffff606067016345785d8a00006301e133806001611566600c600a611ec4565b6115749063781a75c0611d84565b61157e9190611ed2565b6115889190611ee5565b611593906001611f12565b6115ad906001600160481b031666f38a31408ae338611d84565b6115b79190611daf565b6001600160481b03166001600160801b0316901b6115d59190611f31565b6115df9190611f31565b6001600160801b03168111611609576115fb83620f4240611fba565b6001600160901b03166116b5565b6116b561ffff606067016345785d8a00006301e13380600161162d600c600a611ec4565b61163b9063781a75c0611d84565b6116459190611ed2565b61164f9190611ee5565b61165a906001611f12565b611674906001600160481b031666f38a31408ae338611d84565b61167e9190611daf565b6001600160481b03166001600160801b0316901b61169c9190611f31565b6001600160801b0316846001600160901b031683611431565b949350505050565b5f604051835f5260ff600b53826020527f21c35dbe1b344a2488cf3321d6ce542f8e9f305544ff09e4993a62319a497c1f6040526055600b20601452806040525061d6945f52600160345350506017601e206001600160a01b0316919050565b604080516060810182525f8082526020820181905291810191909152826001600160a01b0316846001600160a01b03161115611757579192915b50604080516060810182526001600160a01b03948516815292909316602083015262ffffff169181019190915290565b5f81602001516001600160a01b0316825f01516001600160a01b0316106117ac575f5ffd5b815160208084015160408086015181516001600160a01b0395861681860152949092168482015262ffffff90911660608085019190915281518085038201815260808501909252815191909201206001600160f81b031960a08401529085901b6bffffffffffffffffffffffff191660a183015260b58201527fe34f199b19b2b4f47f68442619d555527d244f78a3297ea89325f843f87b8b5460d582015260f50160408051601f1981840301815291905280516020909101209392505050565b5f6060828403121561187d575f5ffd5b50919050565b5f60608284031215611893575f5ffd5b6114d6838361186d565b60208101600483106118bd57634e487b7160e01b5f52602160045260245ffd5b91905290565b80151581146118d0575f5ffd5b50565b6001600160901b03811681146118d0575f5ffd5b5f5f5f60a084860312156118f9575f5ffd5b8335611904816118c3565b9250611913856020860161186d565b91506080840135611923816118d3565b809150509250925092565b65ffffffffffff811681146118d0575f5ffd5b5f60208284031215611951575f5ffd5b81356114d68161192e565b5f5f6020838503121561196d575f5ffd5b823567ffffffffffffffff811115611983575f5ffd5b8301601f81018513611993575f5ffd5b803567ffffffffffffffff8111156119a9575f5ffd5b8560208260051b84010111156119bd575f5ffd5b6020919091019590945092505050565b602080825282518282018190525f918401906040840190835b81811015611a355783516001600160901b0381511684526001600160901b036020820151166020850152604081015160070b6040850152506060830192506020840193506001810190506119e6565b509095945050505050565b5f5f5f60a08486031215611a52575f5ffd5b8335611a5d816118c3565b9250611a6c856020860161186d565b9150608084013590509250925092565b6001600160a01b03811681146118d0575f5ffd5b5f60208284031215611aa0575f5ffd5b81356114d681611a7c565b5f82518060208501845e5f920191825250919050565b805f0b81146118d0575f5ffd5b5f60208284031215611ade575f5ffd5b81356114d681611ac1565b606081018235611af881611a7c565b6001600160a01b031682526020830135611b1181611a7c565b6001600160a01b031660208301526040830135611b2d81611ac1565b805f0b60408401525092915050565b634e487b7160e01b5f52604160045260245ffd5b6040516060810167ffffffffffffffff81118282101715611b7f57634e487b7160e01b5f52604160045260245ffd5b60405290565b8051600781900b8114611b96575f5ffd5b919050565b5f6060828403128015611bac575f5ffd5b50611bb5611b50565b8251611bc0816118d3565b8152611bce60208401611b85565b60208201526040830151611be18161192e565b60408201529392505050565b5f6060828403128015611bfe575f5ffd5b50611c07611b50565b8251611c12816118d3565b81526020830151611c22816118d3565b6020820152611be160408401611b85565b5f60208284031215611c43575f5ffd5b5051919050565b805161ffff81168114611b96575f5ffd5b5f60608284031215611c6b575f5ffd5b611c73611b50565b9050611c7e82611c4a565b8152611c8c60208301611c4a565b6020820152604082015164ffffffffff81168114611ca8575f5ffd5b604082015292915050565b5f610100828403128015611cc5575f5ffd5b506040516080810167ffffffffffffffff81118282101715611cf557634e487b7160e01b5f52604160045260245ffd5b604052611d028484611c5b565b8152611d118460608501611c5b565b602082015260c0830151611d24816118c3565b6040820152611d3560e08401611c4a565b60608201529392505050565b634e487b7160e01b5f52601160045260245ffd5b80820180821115610db457610db4611d41565b5f81810b60808101611d7c57611d7c611d41565b5f0392915050565b8082028115828204841417610db457610db4611d41565b634e487b7160e01b5f52601260045260245ffd5b5f82611dbd57611dbd611d9b565b500490565b6001600160901b038181168382160190811115610db457610db4611d41565b6001815b6001841115611e1c57808504811115611e0057611e00611d41565b6001841615611e0e57908102905b60019390931c928002611de5565b935093915050565b5f82611e3257506001610db4565b81611e3e57505f610db4565b8160018114611e545760028114611e5e57611e7a565b6001915050610db4565b60ff841115611e6f57611e6f611d41565b50506001821b610db4565b5060208310610133831016604e8410600b8410161715611e9d575081810a610db4565b611ea95f198484611de1565b805f1904821115611ebc57611ebc611d41565b029392505050565b5f6114d660ff841683611e24565b81810381811115610db457610db4611d41565b5f6001600160481b03831680611efd57611efd611d9b565b806001600160481b0384160491505092915050565b6001600160481b038181168382160190811115610db457610db4611d41565b5f6001600160801b03831680611f4957611f49611d9b565b806001600160801b0384160491505092915050565b634e487b7160e01b5f52603260045260245ffd5b5f6060828403128015611f83575f5ffd5b50611f8c611b50565b8251611f9781611a7c565b81526020830151611fa781611a7c565b60208201526040830151611be181611ac1565b5f6001600160901b0382166001600160901b0384166001600160901b038183021692508183048114821517610fcb57610fcb611d4156fea26469706673582212204ac7ae182fd003e604145e7cdc89b92aa9beae995025e58f6b3c8046429de0f964736f6c634300081c0033","linkReferences":{}},"methodIdentifiers":{"VAULT()":"411557d1","getAddressAPE(uint48)":"8d0f7844","getReserves(uint48[])":"a0193ec4","getVaultStatus((address,address,int8))":"049354b9","priceOfAPE((address,address,int8))":"58c6bdbd","priceOfTEA((address,address,int8))":"58676d0c","quoteBurn(bool,(address,address,int8),uint256)":"a4e59a9f","quoteMint(bool,(address,address,int8),uint144)":"7ef3090a"},"id":70}