{"abi":[{"type":"constructor","inputs":[{"name":"vault_","type":"address","internalType":"address"}],"stateMutability":"nonpayable"},{"type":"function","name":"VAULT","inputs":[],"outputs":[{"name":"","type":"address","internalType":"contract IVault"}],"stateMutability":"view"},{"type":"function","name":"getAddressAPE","inputs":[{"name":"vaultId","type":"uint48","internalType":"uint48"}],"outputs":[{"name":"","type":"address","internalType":"address"}],"stateMutability":"view"},{"type":"function","name":"getVaultStatus","inputs":[{"name":"vaultParams","type":"tuple","internalType":"struct SirStructs.VaultParameters","components":[{"name":"debtToken","type":"address","internalType":"address"},{"name":"collateralToken","type":"address","internalType":"address"},{"name":"leverageTier","type":"int8","internalType":"int8"}]}],"outputs":[{"name":"","type":"uint8","internalType":"enum Assistant.VaultStatus"}],"stateMutability":"view"},{"type":"function","name":"priceOfAPE","inputs":[{"name":"vaultParams","type":"tuple","internalType":"struct SirStructs.VaultParameters","components":[{"name":"debtToken","type":"address","internalType":"address"},{"name":"collateralToken","type":"address","internalType":"address"},{"name":"leverageTier","type":"int8","internalType":"int8"}]}],"outputs":[{"name":"num","type":"uint256","internalType":"uint256"},{"name":"den","type":"uint256","internalType":"uint256"}],"stateMutability":"view"},{"type":"function","name":"priceOfTEA","inputs":[{"name":"vaultParams","type":"tuple","internalType":"struct SirStructs.VaultParameters","components":[{"name":"debtToken","type":"address","internalType":"address"},{"name":"collateralToken","type":"address","internalType":"address"},{"name":"leverageTier","type":"int8","internalType":"int8"}]}],"outputs":[{"name":"num","type":"uint256","internalType":"uint256"},{"name":"den","type":"uint256","internalType":"uint256"}],"stateMutability":"view"},{"type":"function","name":"quoteBurn","inputs":[{"name":"isAPE","type":"bool","internalType":"bool"},{"name":"vaultParams","type":"tuple","internalType":"struct SirStructs.VaultParameters","components":[{"name":"debtToken","type":"address","internalType":"address"},{"name":"collateralToken","type":"address","internalType":"address"},{"name":"leverageTier","type":"int8","internalType":"int8"}]},{"name":"amountTokens","type":"uint256","internalType":"uint256"}],"outputs":[{"name":"amountCollateral","type":"uint144","internalType":"uint144"}],"stateMutability":"view"},{"type":"function","name":"quoteMint","inputs":[{"name":"isAPE","type":"bool","internalType":"bool"},{"name":"vaultParams","type":"tuple","internalType":"struct SirStructs.VaultParameters","components":[{"name":"debtToken","type":"address","internalType":"address"},{"name":"collateralToken","type":"address","internalType":"address"},{"name":"leverageTier","type":"int8","internalType":"int8"}]},{"name":"amountCollateral","type":"uint144","internalType":"uint144"}],"outputs":[{"name":"amountTokens","type":"uint256","internalType":"uint256"}],"stateMutability":"view"},{"type":"error","name":"VaultCanBeCreated","inputs":[]}],"bytecode":{"object":"0x60a0604052348015600f57600080fd5b50604051611e14380380611e14833981016040819052602c91603c565b6001600160a01b0316608052606a565b600060208284031215604d57600080fd5b81516001600160a01b0381168114606357600080fd5b9392505050565b608051611d206100f46000396000818160b0015281816103d10152818161047801528181610519015281816105ca0152818161064d015281816106ee015281816107ca015281816108500152818161092401528181610b3801528181610c0801528181610d7701528181610daf01528181610e3501528181610f0901526110f10152611d206000f3fe608060405234801561001057600080fd5b506004361061007d5760003560e01c806358c6bdbd1161005b57806358c6bdbd146101125780637ef3090a146101255780638d0f784414610146578063a4e59a9f1461015957600080fd5b8063049354b914610082578063411557d1146100ab57806358676d0c146100ea575b600080fd5b6100956100903660046116fa565b610184565b6040516100a29190611716565b60405180910390f35b6100d27f000000000000000000000000000000000000000000000000000000000000000081565b6040516001600160a01b0390911681526020016100a2565b6100fd6100f83660046116fa565b610471565b604080519283526020830191909152016100a2565b6100fd6101203660046116fa565b610646565b610138610133366004611764565b6107c5565b6040519081526020016100a2565b6100d26101543660046117c2565b610d70565b61016c6101673660046117df565b610daa565b6040516001600160901b0390911681526020016100a2565b6000610196604083016020840161183a565b6001600160a01b03163b6000036101af57506000919050565b6101bc602083018361183a565b6001600160a01b03163b6000036101d557506001919050565b60006101e7604084016020850161183a565b60408051600481526024810182526020810180516001600160e01b03166318160ddd60e01b17905290516001600160a01b0392909216916102289190611855565b600060405180830381855afa9150503d8060008114610263576040519150601f19603f3d011682016040523d82523d6000602084013e610268565b606091505b505090508061027a5750600092915050565b610287602084018461183a565b60408051600481526024810182526020810180516001600160e01b03166318160ddd60e01b17905290516001600160a01b0392909216916102c89190611855565b600060405180830381855afa9150503d8060008114610303576040519150601f19603f3d011682016040523d82523d6000602084013e610308565b606091505b5050809150508061031c5750600092915050565b60031961032f6060850160408601611896565b60000b12806103505750600261034b6060850160408601611896565b60000b135b1561035e5750600092915050565b6103698360646111c1565b15801561037f575061037d836101f46111c1565b155b8015610394575061039283610bb86111c1565b155b80156103a957506103a7836127106111c1565b155b156103b75750600192915050565b604051630bb7cc4160e21b81526000906001600160a01b037f00000000000000000000000000000000000000000000000000000000000000001690632edf3104906104069087906004016118b1565b606060405180830381865afa158015610423573d6000803e3d6000fd5b505050506040513d601f19601f820116820180604052508101906104479190611946565b9050806040015165ffffffffffff16600003610467575060029392505050565b5060039392505050565b60008060007f00000000000000000000000000000000000000000000000000000000000000006001600160a01b031663fbd98edf856040518263ffffffff1660e01b81526004016104c291906118b1565b606060405180830381865afa1580156104df573d6000803e3d6000fd5b505050506040513d601f19601f82011682018060405250810190610503919061199a565b905080602001516001600160901b0316925060007f00000000000000000000000000000000000000000000000000000000000000006001600160a01b0316632edf3104866040518263ffffffff1660e01b815260040161056391906118b1565b606060405180830381865afa158015610580573d6000803e3d6000fd5b505050506040513d601f19601f820116820180604052508101906105a49190611946565b604081810151905163bd85b03960e01b815265ffffffffffff90911660048201529091507f00000000000000000000000000000000000000000000000000000000000000006001600160a01b03169063bd85b03990602401602060405180830381865afa158015610619573d6000803e3d6000fd5b505050506040513d601f19601f8201168201806040525081019061063d91906119e2565b92505050915091565b60008060007f00000000000000000000000000000000000000000000000000000000000000006001600160a01b031663fbd98edf856040518263ffffffff1660e01b815260040161069791906118b1565b606060405180830381865afa1580156106b4573d6000803e3d6000fd5b505050506040513d601f19601f820116820180604052508101906106d8919061199a565b905080600001516001600160901b0316925060007f00000000000000000000000000000000000000000000000000000000000000006001600160a01b0316632edf3104866040518263ffffffff1660e01b815260040161073891906118b1565b606060405180830381865afa158015610755573d6000803e3d6000fd5b505050506040513d601f19601f820116820180604052508101906107799190611946565b90506107888160400151610d70565b6001600160a01b03166318160ddd6040518163ffffffff1660e01b8152600401602060405180830381865afa158015610619573d6000803e3d6000fd5b6000807f00000000000000000000000000000000000000000000000000000000000000006001600160a01b031663458e8e6b6040518163ffffffff1660e01b8152600401608060405180830381865afa158015610826573d6000803e3d6000fd5b505050506040513d601f19601f8201168201806040525081019061084a9190611a0d565b905060007f00000000000000000000000000000000000000000000000000000000000000006001600160a01b0316632edf3104866040518263ffffffff1660e01b815260040161089a91906118b1565b606060405180830381865afa1580156108b7573d6000803e3d6000fd5b505050506040513d601f19601f820116820180604052508101906108db9190611946565b9050806040015165ffffffffffff1660000361090a5760405163f4f51ab360e01b815260040160405180910390fd5b60405163fbd98edf60e01b81526000906001600160a01b037f0000000000000000000000000000000000000000000000000000000000000000169063fbd98edf906109599089906004016118b1565b606060405180830381865afa158015610976573d6000803e3d6000fd5b505050506040513d601f19601f8201168201806040525081019061099a919061199a565b90508615610b1257600080806109b660608a0160408b01611896565b60000b126109f55761271091506109d36060890160408a01611896565b60ff16856000015161ffff16901b6127106109ee9190611ab2565b9050610a35565b6000610a0760608a0160408b01611896565b610a1090611ac5565b60ff16612710901b9050809250856000015161ffff1681610a319190611ab2565b9150505b600081610a4b846001600160901b038b16611ae3565b610a559190611b10565b90506000610a668660400151610d70565b90506000816001600160a01b03166318160ddd6040518163ffffffff1660e01b8152600401602060405180830381865afa158015610aa8573d6000803e3d6000fd5b505050506040513d601f19601f82011682018060405250810190610acc91906119e2565b90508015610af157610aec818488600001516001600160901b0316611219565b610b06565b8551610b06906001600160901b031684611ab2565b98505050505050610d66565b6040828101519051631b3f2b0160e21b815265ffffffffffff90911660048201526000907f00000000000000000000000000000000000000000000000000000000000000006001600160a01b031690636cfcac0490602401602060405180830381865afa158015610b87573d6000803e3d6000fd5b505050506040513d601f19601f82011682018060405250810190610bab9190611b24565b90506000610bbe878660200151846112cd565b9050806040015183602001818151610bd69190611b47565b6001600160901b0316905250604084810151905163bd85b03960e01b815265ffffffffffff90911660048201526000907f00000000000000000000000000000000000000000000000000000000000000006001600160a01b03169063bd85b03990602401602060405180830381865afa158015610c57573d6000803e3d6000fd5b505050506040513d601f19601f82011682018060405250810190610c7b91906119e2565b905060008115610caf57610caa8284606001516001600160901b031687602001516001600160901b0316611219565b610cdb565b610cdb610cc260408c0160208d0161183a565b86602001518560600151610cd69190611b47565b611362565b9050610ce78183611ab2565b9150826060015185602001818151610cff9190611b47565b6001600160901b03169052508115610d3b57610d368284600001516001600160901b031687602001516001600160901b0316611219565b610d5f565b610d5f610d4e60408c0160208d0161183a565b60208701518551610cd69190611b47565b9750505050505b5050509392505050565b6000610da47f00000000000000000000000000000000000000000000000000000000000000008365ffffffffffff1661152b565b92915050565b6000807f00000000000000000000000000000000000000000000000000000000000000006001600160a01b031663458e8e6b6040518163ffffffff1660e01b8152600401608060405180830381865afa158015610e0b573d6000803e3d6000fd5b505050506040513d601f19601f82011682018060405250810190610e2f9190611a0d565b905060007f00000000000000000000000000000000000000000000000000000000000000006001600160a01b0316632edf3104866040518263ffffffff1660e01b8152600401610e7f91906118b1565b606060405180830381865afa158015610e9c573d6000803e3d6000fd5b505050506040513d601f19601f82011682018060405250810190610ec09190611946565b9050806040015165ffffffffffff16600003610eef5760405163f4f51ab360e01b815260040160405180910390fd5b60405163fbd98edf60e01b81526000906001600160a01b037f0000000000000000000000000000000000000000000000000000000000000000169063fbd98edf90610f3e9089906004016118b1565b606060405180830381865afa158015610f5b573d6000803e3d6000fd5b505050506040513d601f19601f82011682018060405250810190610f7f919061199a565b905086156110cb576000610f968360400151610d70565b90506000816001600160a01b03166318160ddd6040518163ffffffff1660e01b8152600401602060405180830381865afa158015610fd8573d6000803e3d6000fd5b505050506040513d601f19601f82011682018060405250810190610ffc91906119e2565b9050600061101884600001516001600160901b03168984611219565b6001600160901b031690506000808061103760608d0160408e01611896565b60000b1261107657612710915061105460608c0160408d01611896565b60ff16886000015161ffff16901b61271061106f9190611ab2565b90506110b6565b600061108860608d0160408e01611896565b61109190611ac5565b60ff16612710901b9050809250886000015161ffff16816110b29190611ab2565b9150505b806110c18385611ae3565b610b069190611b10565b604082810151905163bd85b03960e01b815265ffffffffffff90911660048201526000907f00000000000000000000000000000000000000000000000000000000000000006001600160a01b03169063bd85b03990602401602060405180830381865afa158015611140573d6000803e3d6000fd5b505050506040513d601f19601f8201168201806040525081019061116491906119e2565b9050600061118083602001516001600160901b03168884611219565b6001600160901b03169050600061271090506000866020015161ffff166127106111aa9190611ab2565b9050806111b78385611ae3565b610d5f9190611b10565b6000611206731f98431c8ad98523631ae4a59f267346ea31f9846112016111ee604087016020880161183a565b6111fb602088018861183a565b8661158e565b6115f9565b6001600160a01b03163b15159392505050565b6000808060001985870985870292508281108382030391505080600003611252576000841161124757600080fd5b5082900490506112c6565b80841161125e57600080fd5b600084868809851960019081018716968790049682860381900495909211909303600082900391909104909201919091029190911760038402600290811880860282030280860282030280860282030280860282030280860282030280860290910302029150505b9392505050565b60408051608081018252600080825260208201819052918101829052606081019190915261271061ffff84168101806001600160901b03871683028161131557611315611afa565b046001600160901b039081168085526109f69703811660ff95909516850296909604861660208401819052600a850487166060850181905294039390930390941660408201529392505050565b600080836001600160a01b03166318160ddd6040518163ffffffff1660e01b8152600401602060405180830381865afa1580156113a3573d6000803e3d6000fd5b505050506040513d601f19601f820116820180604052508101906113c791906119e2565b905061ffff606067016345785d8a00006301e1338060016113ea600c600a611c4d565b6113f89063781a75c0611ae3565b6114029190611c5c565b61140c9190611c6f565b611417906001611c9d565b611431906001600160481b031666f38a31408ae338611ae3565b61143b9190611b10565b6001600160481b03166001600160801b0316901b6114599190611cbc565b6001600160801b0316811161147757826001600160901b0316611523565b61152361ffff606067016345785d8a00006301e13380600161149b600c600a611c4d565b6114a99063781a75c0611ae3565b6114b39190611c5c565b6114bd9190611c6f565b6114c8906001611c9d565b6114e2906001600160481b031666f38a31408ae338611ae3565b6114ec9190611b10565b6001600160481b03166001600160801b0316901b61150a9190611cbc565b6001600160801b0316846001600160901b031683611219565b949350505050565b60006040518360005260ff600b53826020527f21c35dbe1b344a2488cf3321d6ce542f8e9f305544ff09e4993a62319a497c1f6040526055600b20601452806040525061d694600052600160345350506017601e206001600160a01b0316919050565b6040805160608101825260008082526020820181905291810191909152826001600160a01b0316846001600160a01b031611156115c9579192915b50604080516060810182526001600160a01b03948516815292909316602083015262ffffff169181019190915290565b600081602001516001600160a01b031682600001516001600160a01b03161061162157600080fd5b815160208084015160408086015181516001600160a01b0395861681860152949092168482015262ffffff90911660608085019190915281518085038201815260808501909252815191909201206001600160f81b031960a08401529085901b6bffffffffffffffffffffffff191660a183015260b58201527fe34f199b19b2b4f47f68442619d555527d244f78a3297ea89325f843f87b8b5460d582015260f50160408051601f1981840301815291905280516020909101209392505050565b6000606082840312156116f457600080fd5b50919050565b60006060828403121561170c57600080fd5b6112c683836116e2565b602081016004831061173857634e487b7160e01b600052602160045260246000fd5b91905290565b801515811461174c57600080fd5b50565b6001600160901b038116811461174c57600080fd5b600080600060a0848603121561177957600080fd5b83356117848161173e565b925061179385602086016116e2565b915060808401356117a38161174f565b809150509250925092565b65ffffffffffff8116811461174c57600080fd5b6000602082840312156117d457600080fd5b81356112c6816117ae565b600080600060a084860312156117f457600080fd5b83356117ff8161173e565b925061180e85602086016116e2565b9150608084013590509250925092565b80356001600160a01b038116811461183557600080fd5b919050565b60006020828403121561184c57600080fd5b6112c68261181e565b6000825160005b81811015611876576020818601810151858301520161185c565b506000920191825250919050565b8035600081900b811461183557600080fd5b6000602082840312156118a857600080fd5b6112c682611884565b606081016001600160a01b036118c68461181e565b1682526001600160a01b036118dd6020850161181e565b1660208301526118ef60408401611884565b60000b604083015292915050565b6040516060810167ffffffffffffffff8111828210171561192e57634e487b7160e01b600052604160045260246000fd5b60405290565b8051600781900b811461183557600080fd5b6000606082840312801561195957600080fd5b506119626118fd565b825161196d8161174f565b815261197b60208401611934565b6020820152604083015161198e816117ae565b60408201529392505050565b600060608284031280156119ad57600080fd5b506119b66118fd565b82516119c18161174f565b815260208301516119d18161174f565b602082015261198e60408401611934565b6000602082840312156119f457600080fd5b5051919050565b805161ffff8116811461183557600080fd5b60006080828403128015611a2057600080fd5b506040516080810167ffffffffffffffff81118282101715611a5257634e487b7160e01b600052604160045260246000fd5b604052611a5e836119fb565b8152611a6c602084016119fb565b60208201526040830151611a7f8161173e565b6040820152611a90606084016119fb565b60608201529392505050565b634e487b7160e01b600052601160045260246000fd5b80820180821115610da457610da4611a9c565b600081810b60808101611ada57611ada611a9c565b60000392915050565b8082028115828204841417610da457610da4611a9c565b634e487b7160e01b600052601260045260246000fd5b600082611b1f57611b1f611afa565b500490565b600060208284031215611b3657600080fd5b815160ff811681146112c657600080fd5b6001600160901b038181168382160190811115610da457610da4611a9c565b6001815b6001841115611ba157808504811115611b8557611b85611a9c565b6001841615611b9357908102905b60019390931c928002611b6a565b935093915050565b600082611bb857506001610da4565b81611bc557506000610da4565b8160018114611bdb5760028114611be557611c01565b6001915050610da4565b60ff841115611bf657611bf6611a9c565b50506001821b610da4565b5060208310610133831016604e8410600b8410161715611c24575081810a610da4565b611c316000198484611b66565b8060001904821115611c4557611c45611a9c565b029392505050565b60006112c660ff841683611ba9565b81810381811115610da457610da4611a9c565b60006001600160481b03831680611c8857611c88611afa565b806001600160481b0384160491505092915050565b6001600160481b038181168382160190811115610da457610da4611a9c565b60006001600160801b03831680611cd557611cd5611afa565b806001600160801b038416049150509291505056fea264697066735822122032bfbf9b1e05f228c8fd93521294188a896b96958900e322457202141aae17c064736f6c634300081a0033","linkReferences":{}},"methodIdentifiers":{"VAULT()":"411557d1","getAddressAPE(uint48)":"8d0f7844","getVaultStatus((address,address,int8))":"049354b9","priceOfAPE((address,address,int8))":"58c6bdbd","priceOfTEA((address,address,int8))":"58676d0c","quoteBurn(bool,(address,address,int8),uint256)":"a4e59a9f","quoteMint(bool,(address,address,int8),uint144)":"7ef3090a"},"id":69}