{"abi":[{"type":"constructor","inputs":[{"name":"vault","type":"address","internalType":"address"},{"name":"oracle","type":"address","internalType":"address"},{"name":"uniswapV3Factory","type":"address","internalType":"address"}],"stateMutability":"nonpayable"},{"type":"function","name":"VAULT","inputs":[],"outputs":[{"name":"","type":"address","internalType":"contract IVault"}],"stateMutability":"view"},{"type":"function","name":"getAddressAPE","inputs":[{"name":"vaultId","type":"uint48","internalType":"uint48"}],"outputs":[{"name":"","type":"address","internalType":"address"}],"stateMutability":"view"},{"type":"function","name":"getReserves","inputs":[{"name":"vaultIds","type":"uint48[]","internalType":"uint48[]"}],"outputs":[{"name":"reserves","type":"tuple[]","internalType":"struct SirStructs.Reserves[]","components":[{"name":"reserveApes","type":"uint144","internalType":"uint144"},{"name":"reserveLPers","type":"uint144","internalType":"uint144"},{"name":"tickPriceX42","type":"int64","internalType":"int64"}]}],"stateMutability":"view"},{"type":"function","name":"getVaultStatus","inputs":[{"name":"vaultParams","type":"tuple","internalType":"struct SirStructs.VaultParameters","components":[{"name":"debtToken","type":"address","internalType":"address"},{"name":"collateralToken","type":"address","internalType":"address"},{"name":"leverageTier","type":"int8","internalType":"int8"}]}],"outputs":[{"name":"","type":"uint8","internalType":"enum Assistant.VaultStatus"}],"stateMutability":"view"},{"type":"function","name":"priceOfAPE","inputs":[{"name":"vaultParams","type":"tuple","internalType":"struct SirStructs.VaultParameters","components":[{"name":"debtToken","type":"address","internalType":"address"},{"name":"collateralToken","type":"address","internalType":"address"},{"name":"leverageTier","type":"int8","internalType":"int8"}]}],"outputs":[{"name":"num","type":"uint256","internalType":"uint256"},{"name":"den","type":"uint256","internalType":"uint256"}],"stateMutability":"view"},{"type":"function","name":"priceOfTEA","inputs":[{"name":"vaultParams","type":"tuple","internalType":"struct SirStructs.VaultParameters","components":[{"name":"debtToken","type":"address","internalType":"address"},{"name":"collateralToken","type":"address","internalType":"address"},{"name":"leverageTier","type":"int8","internalType":"int8"}]}],"outputs":[{"name":"num","type":"uint256","internalType":"uint256"},{"name":"den","type":"uint256","internalType":"uint256"}],"stateMutability":"view"},{"type":"function","name":"quoteBurn","inputs":[{"name":"isAPE","type":"bool","internalType":"bool"},{"name":"vaultParams","type":"tuple","internalType":"struct SirStructs.VaultParameters","components":[{"name":"debtToken","type":"address","internalType":"address"},{"name":"collateralToken","type":"address","internalType":"address"},{"name":"leverageTier","type":"int8","internalType":"int8"}]},{"name":"amountTokens","type":"uint256","internalType":"uint256"}],"outputs":[{"name":"amountCollateral","type":"uint144","internalType":"uint144"}],"stateMutability":"view"},{"type":"function","name":"quoteMint","inputs":[{"name":"isAPE","type":"bool","internalType":"bool"},{"name":"vaultParams","type":"tuple","internalType":"struct SirStructs.VaultParameters","components":[{"name":"debtToken","type":"address","internalType":"address"},{"name":"collateralToken","type":"address","internalType":"address"},{"name":"leverageTier","type":"int8","internalType":"int8"}]},{"name":"amountCollateral","type":"uint144","internalType":"uint144"}],"outputs":[{"name":"amountTokens","type":"uint256","internalType":"uint256"}],"stateMutability":"view"},{"type":"function","name":"quoteMintWithDebtToken","inputs":[{"name":"isAPE","type":"bool","internalType":"bool"},{"name":"vaultParams","type":"tuple","internalType":"struct SirStructs.VaultParameters","components":[{"name":"debtToken","type":"address","internalType":"address"},{"name":"collateralToken","type":"address","internalType":"address"},{"name":"leverageTier","type":"int8","internalType":"int8"}]},{"name":"amountDebtToken","type":"uint256","internalType":"uint256"}],"outputs":[{"name":"amountTokens","type":"uint256","internalType":"uint256"}],"stateMutability":"view"},{"type":"error","name":"AmountTooLow","inputs":[]},{"type":"error","name":"TEAMaxSupplyExceeded","inputs":[]},{"type":"error","name":"TooMuchCollateral","inputs":[]},{"type":"error","name":"VaultDoesNotExist","inputs":[]}],"bytecode":{"object":"0x610100604052348015610010575f5ffd5b506040516124e33803806124e383398101604081905261002f91610103565b6001600160a01b0380841660805282811660a052811660c0524660010361006d57735e55c9e631fae526cd4b0526c4818d6e0a9ef0e360e0526100e0565b4662aa36a7036100945773e3c07ebf66b9d070b589bcca30903891f71a92be60e0526100e0565b60405162461bcd60e51b815260206004820152601560248201527f4e6574776f726b206e6f7420737570706f727465640000000000000000000000604482015260640160405180910390fd5b505050610143565b80516001600160a01b03811681146100fe575f5ffd5b919050565b5f5f5f60608486031215610115575f5ffd5b61011e846100e8565b925061012c602085016100e8565b915061013a604085016100e8565b90509250925092565b60805160a05160c05160e0516122f76101ec5f395f61058101525f61163901525f6104cd01525f818160e301528181610404015281816106ed0152818161078b0152818161083a015281816108b90152818161095601528181610a2d01528181610b2601528181610b9f01528181610dd901528181610fec015281816110ad015281816111a20152818161123c0152818161132c01528181611441015261159b01526122f75ff3fe608060405234801561000f575f5ffd5b5060043610610090575f3560e01c806358c6bdbd1161006357806358c6bdbd146101455780637ef3090a146101585780638d0f78441461016b578063a0193ec41461017e578063a4e59a9f1461019e575f5ffd5b8063049354b91461009457806337961f8d146100bd578063411557d1146100de57806358676d0c1461011d575b5f5ffd5b6100a76100a2366004611ae2565b6101c9565b6040516100b49190611afc565b60405180910390f35b6100d06100cb366004611b32565b6104a1565b6040519081526020016100b4565b6101057f000000000000000000000000000000000000000000000000000000000000000081565b6040516001600160a01b0390911681526020016100b4565b61013061012b366004611ae2565b6106e8565b604080519283526020830191909152016100b4565b610130610153366004611ae2565b6108b4565b6100d0610166366004611b82565b610a29565b610105610179366004611bdc565b610fe6565b61019161018c366004611bf7565b61101f565b6040516100b49190611c68565b6101b16101ac366004611b32565b611238565b6040516001600160901b0390911681526020016100b4565b5f6101da6040830160208401611cef565b6001600160a01b03163b5f036101f157505f919050565b6101fe6020830183611cef565b6001600160a01b03163b5f0361021557505f919050565b5f6102266040840160208501611cef565b60408051600481526024810182526020810180516001600160e01b03166318160ddd60e01b17905290516001600160a01b0392909216916102679190611d0a565b5f60405180830381855afa9150503d805f811461029f576040519150601f19603f3d011682016040523d82523d5f602084013e6102a4565b606091505b50509050806102b557505f92915050565b6102c26020840184611cef565b60408051600481526024810182526020810180516001600160e01b03166318160ddd60e01b17905290516001600160a01b0392909216916103039190611d0a565b5f60405180830381855afa9150503d805f811461033b576040519150601f19603f3d011682016040523d82523d5f602084013e610340565b606091505b5050809150508061035357505f92915050565b6003196103666060850160408601611d2d565b5f0b1280610385575060026103816060850160408601611d2d565b5f0b135b1561039257505f92915050565b61039d836064611633565b1580156103b357506103b1836101f4611633565b155b80156103c857506103c683610bb8611633565b155b80156103dd57506103db83612710611633565b155b156103eb5750600192915050565b604051630bb7cc4160e21b81525f906001600160a01b037f00000000000000000000000000000000000000000000000000000000000000001690632edf310490610439908790600401611d48565b606060405180830381865afa158015610454573d5f5f3e3d5ffd5b505050506040513d601f19601f820116820180604052508101906104789190611dfa565b9050806040015165ffffffffffff165f03610497575060029392505050565b5060039392505050565b5f815f036104c257604051631fbaba3560e01b815260040160405180910390fd5b5f6001600160a01b037f00000000000000000000000000000000000000000000000000000000000000001663c7dd5c0a6104ff6020870187611cef565b61050f6040880160208901611cef565b6040516001600160e01b031960e085901b1681526001600160a01b03928316600482015291166024820152604401602060405180830381865afa158015610558573d5f5f3e3d5ffd5b505050506040513d601f19601f8201168201806040525081019061057c9190611e4c565b90505f7f00000000000000000000000000000000000000000000000000000000000000006001600160a01b031663c6a5026a6040518060a00160405280885f0160208101906105cb9190611cef565b6001600160a01b031681526020018860200160208101906105ec9190611cef565b6001600160a01b03908116825260208083018a905262ffffff8089166040808601919091525f60609586015280516001600160e01b031960e089901b16815286518516600482015292860151841660248401528501516044830152928401519092166064830152608090920151909116608482015260a401608060405180830381865afa15801561067f573d5f5f3e3d5ffd5b505050506040513d601f19601f820116820180604052508101906106a39190611e6e565b5091925050506001600160901b038111156106d157604051635baa913560e01b815260040160405180910390fd5b6106dc868683610a29565b925050505b9392505050565b5f5f5f7f00000000000000000000000000000000000000000000000000000000000000006001600160a01b031663fbd98edf856040518263ffffffff1660e01b81526004016107379190611d48565b606060405180830381865afa158015610752573d5f5f3e3d5ffd5b505050506040513d601f19601f820116820180604052508101906107769190611ebd565b905080602001516001600160901b031692505f7f00000000000000000000000000000000000000000000000000000000000000006001600160a01b0316632edf3104866040518263ffffffff1660e01b81526004016107d59190611d48565b606060405180830381865afa1580156107f0573d5f5f3e3d5ffd5b505050506040513d601f19601f820116820180604052508101906108149190611dfa565b604081810151905163bd85b03960e01b815265ffffffffffff90911660048201529091507f00000000000000000000000000000000000000000000000000000000000000006001600160a01b03169063bd85b03990602401602060405180830381865afa158015610887573d5f5f3e3d5ffd5b505050506040513d601f19601f820116820180604052508101906108ab9190611f03565b92505050915091565b5f5f5f7f00000000000000000000000000000000000000000000000000000000000000006001600160a01b031663fbd98edf856040518263ffffffff1660e01b81526004016109039190611d48565b606060405180830381865afa15801561091e573d5f5f3e3d5ffd5b505050506040513d601f19601f820116820180604052508101906109429190611ebd565b9050805f01516001600160901b031692505f7f00000000000000000000000000000000000000000000000000000000000000006001600160a01b0316632edf3104866040518263ffffffff1660e01b81526004016109a09190611d48565b606060405180830381865afa1580156109bb573d5f5f3e3d5ffd5b505050506040513d601f19601f820116820180604052508101906109df9190611dfa565b90506109ee8160400151610fe6565b6001600160a01b03166318160ddd6040518163ffffffff1660e01b8152600401602060405180830381865afa158015610887573d5f5f3e3d5ffd5b5f5f7f00000000000000000000000000000000000000000000000000000000000000006001600160a01b0316632edf3104856040518263ffffffff1660e01b8152600401610a779190611d48565b606060405180830381865afa158015610a92573d5f5f3e3d5ffd5b505050506040513d601f19601f82011682018060405250810190610ab69190611dfa565b9050806040015165ffffffffffff165f03610ae457604051634d827f1760e01b815260040160405180910390fd5b826001600160901b03165f03610b0d57604051631fbaba3560e01b815260040160405180910390fd5b60405163fbd98edf60e01b81525f906001600160a01b037f0000000000000000000000000000000000000000000000000000000000000000169063fbd98edf90610b5b908890600401611d48565b606060405180830381865afa158015610b76573d5f5f3e3d5ffd5b505050506040513d601f19601f82011682018060405250810190610b9a9190611ebd565b90505f7f00000000000000000000000000000000000000000000000000000000000000006001600160a01b031663458e8e6b6040518163ffffffff1660e01b815260040161010060405180830381865afa158015610bfa573d5f5f3e3d5ffd5b505050506040513d601f19601f82011682018060405250810190610c1e9190611f83565b90508615610d8f575f8080610c3960608a0160408b01611d2d565b5f0b12610c77576127109150610c556060890160408a01611d2d565b835151610c709161ffff90911660ff9091161b612710612025565b9050610cb8565b5f610c8860608a0160408b01611d2d565b610c9190612038565b60ff16612710901b9050809250835f01515f015161ffff1681610cb49190612025565b9150505b5f81610ccd846001600160901b038b16612054565b610cd7919061207f565b90505f610ce78760400151610fe6565b90505f816001600160a01b03166318160ddd6040518163ffffffff1660e01b8152600401602060405180830381865afa158015610d26573d5f5f3e3d5ffd5b505050506040513d601f19601f82011682018060405250810190610d4a9190611f03565b90508015610d6e57610d698184895f01516001600160901b0316611696565b610d83565b8651610d83906001600160901b031684612025565b98505050505050610fbc565b602081015151612710905f90610da99061ffff1683612025565b604080870151905163bd85b03960e01b815265ffffffffffff90911660048201529091505f906001600160a01b037f0000000000000000000000000000000000000000000000000000000000000000169063bd85b03990602401602060405180830381865afa158015610e1e573d5f5f3e3d5ffd5b505050506040513d601f19601f82011682018060405250810190610e429190611f03565b90508015610e7057610e6b81896001600160901b031687602001516001600160901b0316611696565b610e97565b610e97610e8360408b0160208c01611cef565b6020870151610e92908b612092565b61173c565b96508061ffff606067016345785d8a00006301e133806001610ebb600c600a612194565b610ec99063781a75c0612054565b610ed391906121a2565b610edd91906121b5565b610ee89060016121e2565b610f02906001600160481b031666f38a31408ae338612054565b610f0c919061207f565b6001600160481b03166001600160801b0316901b610f2a9190612201565b6001600160801b0316610f3d91906121a2565b871115610f5d57604051636deac20760e01b815260040160405180910390fd5b5f82610f72856001600160901b038c16612054565b610f7c919061207f565b6001600160901b03169050610fb588828415610f98578b610fa7565b6020890151610fa7908d612092565b6001600160901b0316611696565b9750505050505b835f03610fdc57604051631fbaba3560e01b815260040160405180910390fd5b5050509392505050565b5f6110197f00000000000000000000000000000000000000000000000000000000000000008365ffffffffffff1661191c565b92915050565b60608167ffffffffffffffff81111561103a5761103a611d9b565b60405190808252806020026020018201604052801561108357816020015b604080516060810182525f80825260208083018290529282015282525f199092019101816110585790505b50604080516060810182525f808252602082018190529181018290529192505b83811015611230577f00000000000000000000000000000000000000000000000000000000000000006001600160a01b031663d2f3fd098686848181106110ec576110ec61222e565b90506020020160208101906111019190611bdc565b6040516001600160e01b031960e084901b16815265ffffffffffff9091166004820152602401606060405180830381865afa158015611142573d5f5f3e3d5ffd5b505050506040513d601f19601f820116820180604052508101906111669190612242565b6040805163fbd98edf60e01b815282516001600160a01b039081166004830152602084015181166024830152918301515f0b60448201529193507f0000000000000000000000000000000000000000000000000000000000000000169063fbd98edf90606401606060405180830381865afa1580156111e7573d5f5f3e3d5ffd5b505050506040513d601f19601f8201168201806040525081019061120b9190611ebd565b83828151811061121d5761121d61222e565b60209081029190910101526001016110a3565b505092915050565b5f5f7f00000000000000000000000000000000000000000000000000000000000000006001600160a01b0316632edf3104856040518263ffffffff1660e01b81526004016112869190611d48565b606060405180830381865afa1580156112a1573d5f5f3e3d5ffd5b505050506040513d601f19601f820116820180604052508101906112c59190611dfa565b9050806040015165ffffffffffff165f036112f357604051634d827f1760e01b815260040160405180910390fd5b825f0361131357604051631fbaba3560e01b815260040160405180910390fd5b60405163fbd98edf60e01b81525f906001600160a01b037f0000000000000000000000000000000000000000000000000000000000000000169063fbd98edf90611361908890600401611d48565b606060405180830381865afa15801561137c573d5f5f3e3d5ffd5b505050506040513d601f19601f820116820180604052508101906113a09190611ebd565b90508515611576575f6113b68360400151610fe6565b90505f816001600160a01b03166318160ddd6040518163ffffffff1660e01b8152600401602060405180830381865afa1580156113f5573d5f5f3e3d5ffd5b505050506040513d601f19601f820116820180604052508101906114199190611f03565b90505f611433845f01516001600160901b03168884611696565b6001600160901b031690505f7f00000000000000000000000000000000000000000000000000000000000000006001600160a01b031663458e8e6b6040518163ffffffff1660e01b815260040161010060405180830381865afa15801561149c573d5f5f3e3d5ffd5b505050506040513d601f19601f820116820180604052508101906114c09190611f83565b90505f80806114d560608d0160408e01611d2d565b5f0b126115135761271091506114f160608c0160408d01611d2d565b83515161150c9161ffff90911660ff9091161b612710612025565b9050611554565b5f61152460608d0160408e01611d2d565b61152d90612038565b60ff16612710901b9050809250835f01515f015161ffff16816115509190612025565b9150505b8061155f8386612054565b611569919061207f565b985050505050505061162a565b604082810151905163bd85b03960e01b815265ffffffffffff90911660048201525f907f00000000000000000000000000000000000000000000000000000000000000006001600160a01b03169063bd85b03990602401602060405180830381865afa1580156115e8573d5f5f3e3d5ffd5b505050506040513d601f19601f8201168201806040525081019061160c9190611f03565b905061162682602001516001600160901b03168683611696565b9350505b50509392505050565b5f6116837f000000000000000000000000000000000000000000000000000000000000000061167e61166b6040870160208801611cef565b6116786020880188611cef565b8661197c565b6119e6565b6001600160a01b03163b15159392505050565b5f80805f19858709858702925082811083820303915050805f036116ca575f84116116bf575f5ffd5b5082900490506106e1565b8084116116d5575f5ffd5b5f8486880960026001871981018816978890046003810283188082028403028082028403028082028403028082028403028082028403029081029092039091025f889003889004909101858311909403939093029303949094049190911702949350505050565b5f5f836001600160a01b03166318160ddd6040518163ffffffff1660e01b8152600401602060405180830381865afa15801561177a573d5f5f3e3d5ffd5b505050506040513d601f19601f8201168201806040525081019061179e9190611f03565b9050620f424061ffff606067016345785d8a00006301e1338060016117c5600c600a612194565b6117d39063781a75c0612054565b6117dd91906121a2565b6117e791906121b5565b6117f29060016121e2565b61180c906001600160481b031666f38a31408ae338612054565b611816919061207f565b6001600160481b03166001600160801b0316901b6118349190612201565b61183e9190612201565b6001600160801b031681116118685761185a83620f424061228a565b6001600160901b0316611914565b61191461ffff606067016345785d8a00006301e13380600161188c600c600a612194565b61189a9063781a75c0612054565b6118a491906121a2565b6118ae91906121b5565b6118b99060016121e2565b6118d3906001600160481b031666f38a31408ae338612054565b6118dd919061207f565b6001600160481b03166001600160801b0316901b6118fb9190612201565b6001600160801b0316846001600160901b031683611696565b949350505050565b5f604051835f5260ff600b53826020527f21c35dbe1b344a2488cf3321d6ce542f8e9f305544ff09e4993a62319a497c1f6040526055600b20601452806040525061d6945f52600160345350506017601e206001600160a01b0316919050565b604080516060810182525f8082526020820181905291810191909152826001600160a01b0316846001600160a01b031611156119b6579192915b50604080516060810182526001600160a01b03948516815292909316602083015262ffffff169181019190915290565b5f81602001516001600160a01b0316825f01516001600160a01b031610611a0b575f5ffd5b815160208084015160408086015181516001600160a01b0395861681860152949092168482015262ffffff90911660608085019190915281518085038201815260808501909252815191909201206001600160f81b031960a08401529085901b6bffffffffffffffffffffffff191660a183015260b58201527fe34f199b19b2b4f47f68442619d555527d244f78a3297ea89325f843f87b8b5460d582015260f50160408051601f1981840301815291905280516020909101209392505050565b5f60608284031215611adc575f5ffd5b50919050565b5f60608284031215611af2575f5ffd5b6106e18383611acc565b6020810160048310611b1c57634e487b7160e01b5f52602160045260245ffd5b91905290565b8015158114611b2f575f5ffd5b50565b5f5f5f60a08486031215611b44575f5ffd5b8335611b4f81611b22565b9250611b5e8560208601611acc565b9150608084013590509250925092565b6001600160901b0381168114611b2f575f5ffd5b5f5f5f60a08486031215611b94575f5ffd5b8335611b9f81611b22565b9250611bae8560208601611acc565b91506080840135611bbe81611b6e565b809150509250925092565b65ffffffffffff81168114611b2f575f5ffd5b5f60208284031215611bec575f5ffd5b81356106e181611bc9565b5f5f60208385031215611c08575f5ffd5b823567ffffffffffffffff811115611c1e575f5ffd5b8301601f81018513611c2e575f5ffd5b803567ffffffffffffffff811115611c44575f5ffd5b8560208260051b8401011115611c58575f5ffd5b6020919091019590945092505050565b602080825282518282018190525f918401906040840190835b81811015611cd05783516001600160901b0381511684526001600160901b036020820151166020850152604081015160070b604085015250606083019250602084019350600181019050611c81565b509095945050505050565b6001600160a01b0381168114611b2f575f5ffd5b5f60208284031215611cff575f5ffd5b81356106e181611cdb565b5f82518060208501845e5f920191825250919050565b805f0b8114611b2f575f5ffd5b5f60208284031215611d3d575f5ffd5b81356106e181611d20565b606081018235611d5781611cdb565b6001600160a01b031682526020830135611d7081611cdb565b6001600160a01b031660208301526040830135611d8c81611d20565b805f0b60408401525092915050565b634e487b7160e01b5f52604160045260245ffd5b6040516060810167ffffffffffffffff81118282101715611dde57634e487b7160e01b5f52604160045260245ffd5b60405290565b8051600781900b8114611df5575f5ffd5b919050565b5f6060828403128015611e0b575f5ffd5b50611e14611daf565b8251611e1f81611b6e565b8152611e2d60208401611de4565b60208201526040830151611e4081611bc9565b60408201529392505050565b5f60208284031215611e5c575f5ffd5b815162ffffff811681146106e1575f5ffd5b5f5f5f5f60808587031215611e81575f5ffd5b84516020860151909450611e9481611cdb565b604086015190935063ffffffff81168114611ead575f5ffd5b6060959095015193969295505050565b5f6060828403128015611ece575f5ffd5b50611ed7611daf565b8251611ee281611b6e565b81526020830151611ef281611b6e565b6020820152611e4060408401611de4565b5f60208284031215611f13575f5ffd5b5051919050565b805161ffff81168114611df5575f5ffd5b5f60608284031215611f3b575f5ffd5b611f43611daf565b9050611f4e82611f1a565b8152611f5c60208301611f1a565b6020820152604082015164ffffffffff81168114611f78575f5ffd5b604082015292915050565b5f610100828403128015611f95575f5ffd5b506040516080810167ffffffffffffffff81118282101715611fc557634e487b7160e01b5f52604160045260245ffd5b604052611fd28484611f2b565b8152611fe18460608501611f2b565b602082015260c0830151611ff481611b22565b604082015261200560e08401611f1a565b60608201529392505050565b634e487b7160e01b5f52601160045260245ffd5b8082018082111561101957611019612011565b5f81810b6080810161204c5761204c612011565b5f0392915050565b808202811582820484141761101957611019612011565b634e487b7160e01b5f52601260045260245ffd5b5f8261208d5761208d61206b565b500490565b6001600160901b03818116838216019081111561101957611019612011565b6001815b60018411156120ec578085048111156120d0576120d0612011565b60018416156120de57908102905b60019390931c9280026120b5565b935093915050565b5f8261210257506001611019565b8161210e57505f611019565b8160018114612124576002811461212e5761214a565b6001915050611019565b60ff84111561213f5761213f612011565b50506001821b611019565b5060208310610133831016604e8410600b841016171561216d575081810a611019565b6121795f1984846120b1565b805f190482111561218c5761218c612011565b029392505050565b5f6106e160ff8416836120f4565b8181038181111561101957611019612011565b5f6001600160481b038316806121cd576121cd61206b565b806001600160481b0384160491505092915050565b6001600160481b03818116838216019081111561101957611019612011565b5f6001600160801b038316806122195761221961206b565b806001600160801b0384160491505092915050565b634e487b7160e01b5f52603260045260245ffd5b5f6060828403128015612253575f5ffd5b5061225c611daf565b825161226781611cdb565b8152602083015161227781611cdb565b60208201526040830151611e4081611d20565b5f6001600160901b0382166001600160901b0384166001600160901b0381830216925081830481148215176112305761123061201156fea2646970667358221220e1509cc167ef5d04f4f1b2c8c8e8dc9e9733d4d73fc2dc0c0a2c1aaf6b2e53f164736f6c634300081c0033","linkReferences":{}},"methodIdentifiers":{"VAULT()":"411557d1","getAddressAPE(uint48)":"8d0f7844","getReserves(uint48[])":"a0193ec4","getVaultStatus((address,address,int8))":"049354b9","priceOfAPE((address,address,int8))":"58c6bdbd","priceOfTEA((address,address,int8))":"58676d0c","quoteBurn(bool,(address,address,int8),uint256)":"a4e59a9f","quoteMint(bool,(address,address,int8),uint144)":"7ef3090a","quoteMintWithDebtToken(bool,(address,address,int8),uint256)":"37961f8d"},"id":78}