{"abi":[{"type":"constructor","inputs":[{"name":"vault","type":"address","internalType":"address"},{"name":"oracle","type":"address","internalType":"address"},{"name":"uniswapV3Factory","type":"address","internalType":"address"}],"stateMutability":"nonpayable"},{"type":"function","name":"VAULT","inputs":[],"outputs":[{"name":"","type":"address","internalType":"contract IVault"}],"stateMutability":"view"},{"type":"function","name":"getAddressAPE","inputs":[{"name":"vaultId","type":"uint48","internalType":"uint48"}],"outputs":[{"name":"","type":"address","internalType":"address"}],"stateMutability":"view"},{"type":"function","name":"getReserves","inputs":[{"name":"vaultIds","type":"uint48[]","internalType":"uint48[]"}],"outputs":[{"name":"reserves","type":"tuple[]","internalType":"struct SirStructs.Reserves[]","components":[{"name":"reserveApes","type":"uint144","internalType":"uint144"},{"name":"reserveLPers","type":"uint144","internalType":"uint144"},{"name":"tickPriceX42","type":"int64","internalType":"int64"}]}],"stateMutability":"view"},{"type":"function","name":"getUserBalances","inputs":[{"name":"user","type":"address","internalType":"address"},{"name":"offset","type":"uint256","internalType":"uint256"},{"name":"numVaults","type":"uint256","internalType":"uint256"}],"outputs":[{"name":"apeBalances","type":"uint256[]","internalType":"uint256[]"},{"name":"teaBalances","type":"uint256[]","internalType":"uint256[]"},{"name":"unclaimedSirRewards","type":"uint80[]","internalType":"uint80[]"}],"stateMutability":"view"},{"type":"function","name":"getVaultStatus","inputs":[{"name":"vaultParams","type":"tuple","internalType":"struct SirStructs.VaultParameters","components":[{"name":"debtToken","type":"address","internalType":"address"},{"name":"collateralToken","type":"address","internalType":"address"},{"name":"leverageTier","type":"int8","internalType":"int8"}]}],"outputs":[{"name":"","type":"uint8","internalType":"enum Assistant.VaultStatus"}],"stateMutability":"view"},{"type":"function","name":"priceOfAPE","inputs":[{"name":"vaultParams","type":"tuple","internalType":"struct SirStructs.VaultParameters","components":[{"name":"debtToken","type":"address","internalType":"address"},{"name":"collateralToken","type":"address","internalType":"address"},{"name":"leverageTier","type":"int8","internalType":"int8"}]}],"outputs":[{"name":"num","type":"uint256","internalType":"uint256"},{"name":"den","type":"uint256","internalType":"uint256"}],"stateMutability":"view"},{"type":"function","name":"priceOfTEA","inputs":[{"name":"vaultParams","type":"tuple","internalType":"struct SirStructs.VaultParameters","components":[{"name":"debtToken","type":"address","internalType":"address"},{"name":"collateralToken","type":"address","internalType":"address"},{"name":"leverageTier","type":"int8","internalType":"int8"}]}],"outputs":[{"name":"num","type":"uint256","internalType":"uint256"},{"name":"den","type":"uint256","internalType":"uint256"}],"stateMutability":"view"},{"type":"function","name":"quoteBurn","inputs":[{"name":"isAPE","type":"bool","internalType":"bool"},{"name":"vaultParams","type":"tuple","internalType":"struct SirStructs.VaultParameters","components":[{"name":"debtToken","type":"address","internalType":"address"},{"name":"collateralToken","type":"address","internalType":"address"},{"name":"leverageTier","type":"int8","internalType":"int8"}]},{"name":"amountTokens","type":"uint256","internalType":"uint256"}],"outputs":[{"name":"amountCollateral","type":"uint144","internalType":"uint144"}],"stateMutability":"view"},{"type":"function","name":"quoteCollateralToDebtToken","inputs":[{"name":"debtToken","type":"address","internalType":"address"},{"name":"collateralToken","type":"address","internalType":"address"},{"name":"amountCollateral","type":"uint256","internalType":"uint256"}],"outputs":[{"name":"amountDebtToken","type":"uint256","internalType":"uint256"}],"stateMutability":"view"},{"type":"function","name":"quoteMint","inputs":[{"name":"isAPE","type":"bool","internalType":"bool"},{"name":"vaultParams","type":"tuple","internalType":"struct SirStructs.VaultParameters","components":[{"name":"debtToken","type":"address","internalType":"address"},{"name":"collateralToken","type":"address","internalType":"address"},{"name":"leverageTier","type":"int8","internalType":"int8"}]},{"name":"amountCollateral","type":"uint144","internalType":"uint144"}],"outputs":[{"name":"amountTokens","type":"uint256","internalType":"uint256"}],"stateMutability":"view"},{"type":"function","name":"quoteMintWithDebtToken","inputs":[{"name":"isAPE","type":"bool","internalType":"bool"},{"name":"vaultParams","type":"tuple","internalType":"struct SirStructs.VaultParameters","components":[{"name":"debtToken","type":"address","internalType":"address"},{"name":"collateralToken","type":"address","internalType":"address"},{"name":"leverageTier","type":"int8","internalType":"int8"}]},{"name":"amountDebtToken","type":"uint256","internalType":"uint256"}],"outputs":[{"name":"amountTokens","type":"uint256","internalType":"uint256"},{"name":"amountCollateral","type":"uint256","internalType":"uint256"}],"stateMutability":"view"},{"type":"error","name":"AmountTooLow","inputs":[]},{"type":"error","name":"TEAMaxSupplyExceeded","inputs":[]},{"type":"error","name":"TooMuchCollateral","inputs":[]},{"type":"error","name":"VaultDoesNotExist","inputs":[]}],"bytecode":{"object":"0x610100604052348015610010575f5ffd5b5060405161449e38038061449e8339818101604052810190610032919061021c565b8273ffffffffffffffffffffffffffffffffffffffff1660808173ffffffffffffffffffffffffffffffffffffffff16815250508173ffffffffffffffffffffffffffffffffffffffff1660a08173ffffffffffffffffffffffffffffffffffffffff16815250508073ffffffffffffffffffffffffffffffffffffffff1660c08173ffffffffffffffffffffffffffffffffffffffff16815250506001460361012357735e55c9e631fae526cd4b0526c4818d6e0a9ef0e373ffffffffffffffffffffffffffffffffffffffff1660e08173ffffffffffffffffffffffffffffffffffffffff16815250506101b6565b62aa36a7460361017a5773e3c07ebf66b9d070b589bcca30903891f71a92be73ffffffffffffffffffffffffffffffffffffffff1660e08173ffffffffffffffffffffffffffffffffffffffff16815250506101b5565b6040517f08c379a00000000000000000000000000000000000000000000000000000000081526004016101ac906102c6565b60405180910390fd5b5b5050506102e4565b5f5ffd5b5f73ffffffffffffffffffffffffffffffffffffffff82169050919050565b5f6101eb826101c2565b9050919050565b6101fb816101e1565b8114610205575f5ffd5b50565b5f81519050610216816101f2565b92915050565b5f5f5f60608486031215610233576102326101be565b5b5f61024086828701610208565b935050602061025186828701610208565b925050604061026286828701610208565b9150509250925092565b5f82825260208201905092915050565b7f4e6574776f726b206e6f7420737570706f7274656400000000000000000000005f82015250565b5f6102b060158361026c565b91506102bb8261027c565b602082019050919050565b5f6020820190508181035f8301526102dd816102a4565b9050919050565b60805160a05160c05160e0516140ed6103b15f395f610a9401525f6120e701525f818161068b01526109d501525f81816105c501528181610c2a01528181610c5101528181610d0701528181610da101528181610e4901528181610ee401528181610fb3015281816111dd015281816112b4015281816113830152818161148d015281816115ba015281816116550152818161182c01528181611abd01528181611b6601528181611c2701528181611cf401528181611e0d01528181611f53015261201401526140ed5ff3fe608060405234801561000f575f5ffd5b50600436106100a7575f3560e01c806358c6bdbd1161006f57806358c6bdbd1461018b5780637b6127fa146101bc5780637ef3090a146101ee5780638d0f78441461021e578063a0193ec41461024e578063a4e59a9f1461027e576100a7565b8063049354b9146100ab5780632f3ccd42146100db57806337961f8d1461010b578063411557d11461013c57806358676d0c1461015a575b5f5ffd5b6100c560048036038101906100c09190612829565b6102ae565b6040516100d291906128c7565b60405180910390f35b6100f560048036038101906100f0919061296d565b610687565b60405161010291906129cc565b60405180910390f35b61012560048036038101906101209190612a1a565b610997565b604051610133929190612a6a565b60405180910390f35b610144610c28565b6040516101519190612aec565b60405180910390f35b610174600480360381019061016f9190612829565b610c4c565b604051610182929190612a6a565b60405180910390f35b6101a560048036038101906101a09190612829565b610e44565b6040516101b3929190612a6a565b60405180910390f35b6101d660048036038101906101d19190612b05565b6110ce565b6040516101e593929190612cd8565b60405180910390f35b61020860048036038101906102039190612d69565b611489565b60405161021591906129cc565b60405180910390f35b61023860048036038101906102339190612df4565b611ab7565b6040516102459190612e2e565b60405180910390f35b61026860048036038101906102639190612ea8565b611af1565b6040516102759190613005565b60405180910390f35b61029860048036038101906102939190612a1a565b611cf0565b6040516102a59190613034565b60405180910390f35b5f5f8260200160208101906102c3919061304d565b73ffffffffffffffffffffffffffffffffffffffff163b036102e7575f9050610682565b5f825f0160208101906102fa919061304d565b73ffffffffffffffffffffffffffffffffffffffff163b0361031e575f9050610682565b5f826020016020810190610332919061304d565b73ffffffffffffffffffffffffffffffffffffffff166318160ddd60e01b604051602401604051602081830303815290604052907bffffffffffffffffffffffffffffffffffffffffffffffffffffffff19166020820180517bffffffffffffffffffffffffffffffffffffffffffffffffffffffff83818316178352505050506040516103c091906130ca565b5f60405180830381855afa9150503d805f81146103f8576040519150601f19603f3d011682016040523d82523d5f602084013e6103fd565b606091505b505090508061040f575f915050610682565b825f016020810190610421919061304d565b73ffffffffffffffffffffffffffffffffffffffff166318160ddd60e01b604051602401604051602081830303815290604052907bffffffffffffffffffffffffffffffffffffffffffffffffffffffff19166020820180517bffffffffffffffffffffffffffffffffffffffffffffffffffffffff83818316178352505050506040516104af91906130ca565b5f60405180830381855afa9150503d805f81146104e7576040519150601f19603f3d011682016040523d82523d5f602084013e6104ec565b606091505b50508091505080610500575f915050610682565b7ffffffffffffffffffffffffffffffffffffffffffffffffffffffffffffffffc5f0b8360400160208101906105369190613115565b5f0b128061055a575060025f0b8360400160208101906105569190613115565b5f0b135b15610568575f915050610682565b6105738360646120e0565b1580156105895750610587836101f46120e0565b155b801561059e575061059c83610bb86120e0565b155b80156105b357506105b1836127106120e0565b155b156105c2576001915050610682565b5f7f000000000000000000000000000000000000000000000000000000000000000073ffffffffffffffffffffffffffffffffffffffff16632edf3104856040518263ffffffff1660e01b815260040161061c91906131e2565b606060405180830381865afa158015610637573d5f5f3e3d5ffd5b505050506040513d601f19601f8201168201806040525081019061065b919061333a565b90505f816040015165ffffffffffff160361067b57600292505050610682565b6003925050505b919050565b5f5f7f000000000000000000000000000000000000000000000000000000000000000073ffffffffffffffffffffffffffffffffffffffff1663f3209e0086866040518363ffffffff1660e01b81526004016106e4929190613365565b602060405180830381865afa1580156106ff573d5f5f3e3d5ffd5b505050506040513d601f19601f8201168201806040525081019061072391906133a0565b90505f8173ffffffffffffffffffffffffffffffffffffffff16633850c7bd6040518163ffffffff1660e01b815260040160e060405180830381865afa15801561076f573d5f5f3e3d5ffd5b505050506040513d601f19601f8201168201806040525081019061079391906134ac565b50505050505090505f8273ffffffffffffffffffffffffffffffffffffffff1663d21220a76040518163ffffffff1660e01b8152600401602060405180830381865afa1580156107e5573d5f5f3e3d5ffd5b505050506040513d601f19601f8201168201806040525081019061080991906133a0565b73ffffffffffffffffffffffffffffffffffffffff168673ffffffffffffffffffffffffffffffffffffffff161490506fffffffffffffffffffffffffffffffff80168273ffffffffffffffffffffffffffffffffffffffff1611610902575f8273ffffffffffffffffffffffffffffffffffffffff168373ffffffffffffffffffffffffffffffffffffffff166108a19190613576565b905081156108d2576108cd7801000000000000000000000000000000000000000000000000878361215a565b6108f7565b6108f68187780100000000000000000000000000000000000000000000000061215a565b5b945050505050610990565b5f6109438373ffffffffffffffffffffffffffffffffffffffff168473ffffffffffffffffffffffffffffffffffffffff166801000000000000000061215a565b9050811561096c57610967700100000000000000000000000000000000878361215a565b610989565b610988818770010000000000000000000000000000000061215a565b5b9450505050505b9392505050565b5f5f5f83036109d2576040517f1fbaba3500000000000000000000000000000000000000000000000000000000815260040160405180910390fd5b5f7f000000000000000000000000000000000000000000000000000000000000000073ffffffffffffffffffffffffffffffffffffffff1663c7dd5c0a865f016020810190610a21919061304d565b876020016020810190610a34919061304d565b6040518363ffffffff1660e01b8152600401610a51929190613365565b602060405180830381865afa158015610a6c573d5f5f3e3d5ffd5b505050506040513d601f19601f82011682018060405250810190610a9091906135ef565b90507f000000000000000000000000000000000000000000000000000000000000000073ffffffffffffffffffffffffffffffffffffffff1663c6a5026a6040518060a00160405280885f016020810190610aeb919061304d565b73ffffffffffffffffffffffffffffffffffffffff168152602001886020016020810190610b19919061304d565b73ffffffffffffffffffffffffffffffffffffffff1681526020018781526020018462ffffff1681526020015f73ffffffffffffffffffffffffffffffffffffffff168152506040518263ffffffff1660e01b8152600401610b7b919061369e565b608060405180830381865afa158015610b96573d5f5f3e3d5ffd5b505050506040513d601f19601f82011682018060405250810190610bba9190613704565b9091509050508092505071ffffffffffffffffffffffffffffffffffff8016821115610c12576040517f5baa913500000000000000000000000000000000000000000000000000000000815260040160405180910390fd5b610c1d868684611489565b925050935093915050565b7f000000000000000000000000000000000000000000000000000000000000000081565b5f5f5f7f000000000000000000000000000000000000000000000000000000000000000073ffffffffffffffffffffffffffffffffffffffff1663fbd98edf856040518263ffffffff1660e01b8152600401610ca891906131e2565b606060405180830381865afa158015610cc3573d5f5f3e3d5ffd5b505050506040513d601f19601f82011682018060405250810190610ce791906137c9565b9050806020015171ffffffffffffffffffffffffffffffffffff1692505f7f000000000000000000000000000000000000000000000000000000000000000073ffffffffffffffffffffffffffffffffffffffff16632edf3104866040518263ffffffff1660e01b8152600401610d5e91906131e2565b606060405180830381865afa158015610d79573d5f5f3e3d5ffd5b505050506040513d601f19601f82011682018060405250810190610d9d919061333a565b90507f000000000000000000000000000000000000000000000000000000000000000073ffffffffffffffffffffffffffffffffffffffff1663bd85b03982604001516040518263ffffffff1660e01b8152600401610dfc9190613824565b602060405180830381865afa158015610e17573d5f5f3e3d5ffd5b505050506040513d601f19601f82011682018060405250810190610e3b919061383d565b92505050915091565b5f5f5f7f000000000000000000000000000000000000000000000000000000000000000073ffffffffffffffffffffffffffffffffffffffff1663fbd98edf856040518263ffffffff1660e01b8152600401610ea091906131e2565b606060405180830381865afa158015610ebb573d5f5f3e3d5ffd5b505050506040513d601f19601f82011682018060405250810190610edf91906137c9565b90505f7f000000000000000000000000000000000000000000000000000000000000000073ffffffffffffffffffffffffffffffffffffffff1663458e8e6b6040518163ffffffff1660e01b815260040161010060405180830381865afa158015610f4c573d5f5f3e3d5ffd5b505050506040513d601f19601f82011682018060405250810190610f709190613979565b9050610f9a825f0151825f01515f0151876040016020810190610f939190613115565b5f0b61224b565b71ffffffffffffffffffffffffffffffffffff1693505f7f000000000000000000000000000000000000000000000000000000000000000073ffffffffffffffffffffffffffffffffffffffff16632edf3104876040518263ffffffff1660e01b815260040161100a91906131e2565b606060405180830381865afa158015611025573d5f5f3e3d5ffd5b505050506040513d601f19601f82011682018060405250810190611049919061333a565b90506110588160400151611ab7565b73ffffffffffffffffffffffffffffffffffffffff166318160ddd6040518163ffffffff1660e01b8152600401602060405180830381865afa1580156110a0573d5f5f3e3d5ffd5b505050506040513d601f19601f820116820180604052508101906110c4919061383d565b9350505050915091565b60608060605f8467ffffffffffffffff8111156110ee576110ed61320f565b5b60405190808252806020026020018201604052801561111c5781602001602082028036833780820191505090505b5093508467ffffffffffffffff8111156111395761113861320f565b5b6040519080825280602002602001820160405280156111675781602001602082028036833780820191505090505b5092508467ffffffffffffffff8111156111845761118361320f565b5b6040519080825280602002602001820160405280156111b25781602001602082028036833780820191505090505b5091505f6001876111c391906139a5565b90505b85876111d291906139a5565b811161147e576112027f0000000000000000000000000000000000000000000000000000000000000000826122b8565b91508173ffffffffffffffffffffffffffffffffffffffff166370a08231896040518263ffffffff1660e01b815260040161123d9190612e2e565b602060405180830381865afa158015611258573d5f5f3e3d5ffd5b505050506040513d601f19601f8201168201806040525081019061127c919061383d565b856001898461128b91906139d8565b61129591906139d8565b815181106112a6576112a5613a0b565b5b6020026020010181815250507f000000000000000000000000000000000000000000000000000000000000000073ffffffffffffffffffffffffffffffffffffffff1662fdd58e89836040518363ffffffff1660e01b815260040161130c929190613a38565b602060405180830381865afa158015611327573d5f5f3e3d5ffd5b505050506040513d601f19601f8201168201806040525081019061134b919061383d565b846001898461135a91906139d8565b61136491906139d8565b8151811061137557611374613a0b565b5b6020026020010181815250507f000000000000000000000000000000000000000000000000000000000000000073ffffffffffffffffffffffffffffffffffffffff166346f90748828a6040518363ffffffff1660e01b81526004016113dc929190613a5f565b602060405180830381865afa1580156113f7573d5f5f3e3d5ffd5b505050506040513d601f19601f8201168201806040525081019061141b9190613ab0565b836001898461142a91906139d8565b61143491906139d8565b8151811061144557611444613a0b565b5b602002602001019069ffffffffffffffffffff16908169ffffffffffffffffffff1681525050808061147690613adb565b9150506111c6565b505093509350939050565b5f5f7f000000000000000000000000000000000000000000000000000000000000000073ffffffffffffffffffffffffffffffffffffffff16632edf3104856040518263ffffffff1660e01b81526004016114e491906131e2565b606060405180830381865afa1580156114ff573d5f5f3e3d5ffd5b505050506040513d601f19601f82011682018060405250810190611523919061333a565b90505f816040015165ffffffffffff160361156a576040517f4d827f1700000000000000000000000000000000000000000000000000000000815260040160405180910390fd5b5f8371ffffffffffffffffffffffffffffffffffff16036115b7576040517f1fbaba3500000000000000000000000000000000000000000000000000000000815260040160405180910390fd5b5f7f000000000000000000000000000000000000000000000000000000000000000073ffffffffffffffffffffffffffffffffffffffff1663fbd98edf866040518263ffffffff1660e01b815260040161161191906131e2565b606060405180830381865afa15801561162c573d5f5f3e3d5ffd5b505050506040513d601f19601f8201168201806040525081019061165091906137c9565b90505f7f000000000000000000000000000000000000000000000000000000000000000073ffffffffffffffffffffffffffffffffffffffff1663458e8e6b6040518163ffffffff1660e01b815260040161010060405180830381865afa1580156116bd573d5f5f3e3d5ffd5b505050506040513d601f19601f820116820180604052508101906116e19190613979565b90508615611801575f61170f86835f01515f01518960400160208101906117089190613115565b5f0b61224b565b71ffffffffffffffffffffffffffffffffffff1690505f6117338560400151611ab7565b90505f8173ffffffffffffffffffffffffffffffffffffffff166318160ddd6040518163ffffffff1660e01b8152600401602060405180830381865afa15801561177f573d5f5f3e3d5ffd5b505050506040513d601f19601f820116820180604052508101906117a3919061383d565b90505f81146117d3576117ce8184875f015171ffffffffffffffffffffffffffffffffffff1661215a565b6117f7565b845f015171ffffffffffffffffffffffffffffffffffff16836117f691906139a5565b5b9650505050611a74565b5f6118138683602001515f0151612326565b71ffffffffffffffffffffffffffffffffffff1690505f7f000000000000000000000000000000000000000000000000000000000000000073ffffffffffffffffffffffffffffffffffffffff1663bd85b03986604001516040518263ffffffff1660e01b81526004016118879190613824565b602060405180830381865afa1580156118a2573d5f5f3e3d5ffd5b505050506040513d601f19601f820116820180604052508101906118c6919061383d565b90505f811461190b57611906818871ffffffffffffffffffffffffffffffffffff16866020015171ffffffffffffffffffffffffffffffffffff1661215a565b611937565b611936886020016020810190611921919061304d565b8560200151896119319190613b22565b61236a565b5b95508061ffff8016606067016345785d8a000060016301e133806001600c600a6119619190613c96565b63781a75c06119709190613576565b61197a91906139d8565b6119849190613d21565b61198e9190613d51565b68ffffffffffffffffff1666c71fd7dfe24c006119ab9190613576565b6119b59190613d8d565b68ffffffffffffffffff166fffffffffffffffffffffffffffffffff16901b6119de9190613dd8565b6fffffffffffffffffffffffffffffffff166119fa91906139d8565b861115611a33576040517f6deac20700000000000000000000000000000000000000000000000000000000815260040160405180910390fd5b611a6f86835f8414611a455789611a56565b86602001518a611a559190613b22565b5b71ffffffffffffffffffffffffffffffffffff1661215a565b955050505b5f8403611aad576040517f1fbaba3500000000000000000000000000000000000000000000000000000000815260040160405180910390fd5b5050509392505050565b5f611aea7f00000000000000000000000000000000000000000000000000000000000000008365ffffffffffff166122b8565b9050919050565b60608282905067ffffffffffffffff811115611b1057611b0f61320f565b5b604051908082528060200260200182016040528015611b4957816020015b611b36612712565b815260200190600190039081611b2e5790505b509050611b5461275b565b5f5f90505b84849050811015611ce8577f000000000000000000000000000000000000000000000000000000000000000073ffffffffffffffffffffffffffffffffffffffff1663d2f3fd09868684818110611bb357611bb2613a0b565b5b9050602002016020810190611bc89190612df4565b6040518263ffffffff1660e01b8152600401611be49190613e17565b606060405180830381865afa158015611bff573d5f5f3e3d5ffd5b505050506040513d601f19601f82011682018060405250810190611c239190613ea5565b91507f000000000000000000000000000000000000000000000000000000000000000073ffffffffffffffffffffffffffffffffffffffff1663fbd98edf836040518263ffffffff1660e01b8152600401611c7e9190613f10565b606060405180830381865afa158015611c99573d5f5f3e3d5ffd5b505050506040513d601f19601f82011682018060405250810190611cbd91906137c9565b838281518110611cd057611ccf613a0b565b5b60200260200101819052508080600101915050611b59565b505092915050565b5f5f7f000000000000000000000000000000000000000000000000000000000000000073ffffffffffffffffffffffffffffffffffffffff16632edf3104856040518263ffffffff1660e01b8152600401611d4b91906131e2565b606060405180830381865afa158015611d66573d5f5f3e3d5ffd5b505050506040513d601f19601f82011682018060405250810190611d8a919061333a565b90505f816040015165ffffffffffff1603611dd1576040517f4d827f1700000000000000000000000000000000000000000000000000000000815260040160405180910390fd5b5f8303611e0a576040517f1fbaba3500000000000000000000000000000000000000000000000000000000815260040160405180910390fd5b5f7f000000000000000000000000000000000000000000000000000000000000000073ffffffffffffffffffffffffffffffffffffffff1663fbd98edf866040518263ffffffff1660e01b8152600401611e6491906131e2565b606060405180830381865afa158015611e7f573d5f5f3e3d5ffd5b505050506040513d601f19601f82011682018060405250810190611ea391906137c9565b90508515612011575f611eb98360400151611ab7565b90505f8173ffffffffffffffffffffffffffffffffffffffff166318160ddd6040518163ffffffff1660e01b8152600401602060405180830381865afa158015611f05573d5f5f3e3d5ffd5b505050506040513d601f19601f82011682018060405250810190611f29919061383d565b90505f611f4e845f015171ffffffffffffffffffffffffffffffffffff16888461215a565b90505f7f000000000000000000000000000000000000000000000000000000000000000073ffffffffffffffffffffffffffffffffffffffff1663458e8e6b6040518163ffffffff1660e01b815260040161010060405180830381865afa158015611fbb573d5f5f3e3d5ffd5b505050506040513d601f19601f82011682018060405250810190611fdf9190613979565b905061200682825f01515f01518b6040016020810190611fff9190613115565b5f0b61224b565b9650505050506120d7565b5f7f000000000000000000000000000000000000000000000000000000000000000073ffffffffffffffffffffffffffffffffffffffff1663bd85b03984604001516040518263ffffffff1660e01b815260040161206f9190613824565b602060405180830381865afa15801561208a573d5f5f3e3d5ffd5b505050506040513d601f19601f820116820180604052508101906120ae919061383d565b90506120d3826020015171ffffffffffffffffffffffffffffffffffff16868361215a565b9350505b50509392505050565b5f5f6121397f000000000000000000000000000000000000000000000000000000000000000061213486602001602081019061211c919061304d565b875f01602081019061212e919061304d565b876125ab565b612647565b73ffffffffffffffffffffffffffffffffffffffff163b1415905092915050565b5f5f5f5f198587098587029250828110838203039150505f810361218f575f8411612183575f5ffd5b83820492505050612244565b80841161219a575f5ffd5b5f8486880990508281118203915080830392505f856001877fffffffffffffffffffffffffffffffffffffffffffffffffffffffffffffffff030116905080860495508084049350600181825f0304019050808302841793505f600287600302189050808702600203810290508087026002038102905080870260020381029050808702600203810290508087026002038102905080870260020381029050808502955050505050505b9392505050565b5f5f5f5f841261226d576127109150838561ffff16901b612710019050612286565b5f845f03612710901b90508092508561ffff1681019150505b80828771ffffffffffffffffffffffffffffffffffff1602816122ac576122ab613cf4565b5b04925050509392505050565b5f604051835f5260ff600b53826020527f21c35dbe1b344a2488cf3321d6ce542f8e9f305544ff09e4993a62319a497c1f6040526055600b206014528060405261d6945f52600160345373ffffffffffffffffffffffffffffffffffffffff6017601e201691505092915050565b5f5f61271090505f8361ffff1661271001905080828671ffffffffffffffffffffffffffffffffffff16028161235f5761235e613cf4565b5b049250505092915050565b5f5f8373ffffffffffffffffffffffffffffffffffffffff166318160ddd6040518163ffffffff1660e01b8152600401602060405180830381865afa1580156123b5573d5f5f3e3d5ffd5b505050506040513d601f19601f820116820180604052508101906123d9919061383d565b9050620f424061ffff8016606067016345785d8a000060016301e133806001600c600a6124069190613c96565b63781a75c06124159190613576565b61241f91906139d8565b6124299190613d21565b6124339190613d51565b68ffffffffffffffffff1666c71fd7dfe24c006124509190613576565b61245a9190613d8d565b68ffffffffffffffffff166fffffffffffffffffffffffffffffffff16901b6124839190613dd8565b61248d9190613dd8565b6fffffffffffffffffffffffffffffffff1681116124cd57620f4240836124b49190613f29565b71ffffffffffffffffffffffffffffffffffff166125a2565b6125a161ffff8016606067016345785d8a000060016301e133806001600c600a6124f79190613c96565b63781a75c06125069190613576565b61251091906139d8565b61251a9190613d21565b6125249190613d51565b68ffffffffffffffffff1666c71fd7dfe24c006125419190613576565b61254b9190613d8d565b68ffffffffffffffffff166fffffffffffffffffffffffffffffffff16901b6125749190613dd8565b6fffffffffffffffffffffffffffffffff168471ffffffffffffffffffffffffffffffffffff168361215a565b5b91505092915050565b6125b36127a7565b8273ffffffffffffffffffffffffffffffffffffffff168473ffffffffffffffffffffffffffffffffffffffff1611156125f257828480945081955050505b60405180606001604052808573ffffffffffffffffffffffffffffffffffffffff1681526020018473ffffffffffffffffffffffffffffffffffffffff1681526020018362ffffff1681525090509392505050565b5f816020015173ffffffffffffffffffffffffffffffffffffffff16825f015173ffffffffffffffffffffffffffffffffffffffff1610612686575f5ffd5b82825f0151836020015184604001516040516020016126a793929190613f79565b604051602081830303815290604052805190602001207fe34f199b19b2b4f47f68442619d555527d244f78a3297ea89325f843f87b8b545f1b6040516020016126f293929190614070565b604051602081830303815290604052805190602001205f1c905092915050565b60405180606001604052805f71ffffffffffffffffffffffffffffffffffff1681526020015f71ffffffffffffffffffffffffffffffffffff1681526020015f60070b81525090565b60405180606001604052805f73ffffffffffffffffffffffffffffffffffffffff1681526020015f73ffffffffffffffffffffffffffffffffffffffff1681526020015f5f0b81525090565b60405180606001604052805f73ffffffffffffffffffffffffffffffffffffffff1681526020015f73ffffffffffffffffffffffffffffffffffffffff1681526020015f62ffffff1681525090565b5f604051905090565b5f5ffd5b5f5ffd5b5f5ffd5b5f606082840312156128205761281f612807565b5b81905092915050565b5f6060828403121561283e5761283d6127ff565b5b5f61284b8482850161280b565b91505092915050565b7f4e487b71000000000000000000000000000000000000000000000000000000005f52602160045260245ffd5b6004811061289257612891612854565b5b50565b5f8190506128a282612881565b919050565b5f6128b182612895565b9050919050565b6128c1816128a7565b82525050565b5f6020820190506128da5f8301846128b8565b92915050565b5f73ffffffffffffffffffffffffffffffffffffffff82169050919050565b5f612909826128e0565b9050919050565b612919816128ff565b8114612923575f5ffd5b50565b5f8135905061293481612910565b92915050565b5f819050919050565b61294c8161293a565b8114612956575f5ffd5b50565b5f8135905061296781612943565b92915050565b5f5f5f60608486031215612984576129836127ff565b5b5f61299186828701612926565b93505060206129a286828701612926565b92505060406129b386828701612959565b9150509250925092565b6129c68161293a565b82525050565b5f6020820190506129df5f8301846129bd565b92915050565b5f8115159050919050565b6129f9816129e5565b8114612a03575f5ffd5b50565b5f81359050612a14816129f0565b92915050565b5f5f5f60a08486031215612a3157612a306127ff565b5b5f612a3e86828701612a06565b9350506020612a4f8682870161280b565b9250506080612a6086828701612959565b9150509250925092565b5f604082019050612a7d5f8301856129bd565b612a8a60208301846129bd565b9392505050565b5f819050919050565b5f612ab4612aaf612aaa846128e0565b612a91565b6128e0565b9050919050565b5f612ac582612a9a565b9050919050565b5f612ad682612abb565b9050919050565b612ae681612acc565b82525050565b5f602082019050612aff5f830184612add565b92915050565b5f5f5f60608486031215612b1c57612b1b6127ff565b5b5f612b2986828701612926565b9350506020612b3a86828701612959565b9250506040612b4b86828701612959565b9150509250925092565b5f81519050919050565b5f82825260208201905092915050565b5f819050602082019050919050565b612b878161293a565b82525050565b5f612b988383612b7e565b60208301905092915050565b5f602082019050919050565b5f612bba82612b55565b612bc48185612b5f565b9350612bcf83612b6f565b805f5b83811015612bff578151612be68882612b8d565b9750612bf183612ba4565b925050600181019050612bd2565b5085935050505092915050565b5f81519050919050565b5f82825260208201905092915050565b5f819050602082019050919050565b5f69ffffffffffffffffffff82169050919050565b612c5381612c35565b82525050565b5f612c648383612c4a565b60208301905092915050565b5f602082019050919050565b5f612c8682612c0c565b612c908185612c16565b9350612c9b83612c26565b805f5b83811015612ccb578151612cb28882612c59565b9750612cbd83612c70565b925050600181019050612c9e565b5085935050505092915050565b5f6060820190508181035f830152612cf08186612bb0565b90508181036020830152612d048185612bb0565b90508181036040830152612d188184612c7c565b9050949350505050565b5f71ffffffffffffffffffffffffffffffffffff82169050919050565b612d4881612d22565b8114612d52575f5ffd5b50565b5f81359050612d6381612d3f565b92915050565b5f5f5f60a08486031215612d8057612d7f6127ff565b5b5f612d8d86828701612a06565b9350506020612d9e8682870161280b565b9250506080612daf86828701612d55565b9150509250925092565b5f65ffffffffffff82169050919050565b612dd381612db9565b8114612ddd575f5ffd5b50565b5f81359050612dee81612dca565b92915050565b5f60208284031215612e0957612e086127ff565b5b5f612e1684828501612de0565b91505092915050565b612e28816128ff565b82525050565b5f602082019050612e415f830184612e1f565b92915050565b5f5ffd5b5f5ffd5b5f5ffd5b5f5f83601f840112612e6857612e67612e47565b5b8235905067ffffffffffffffff811115612e8557612e84612e4b565b5b602083019150836020820283011115612ea157612ea0612e4f565b5b9250929050565b5f5f60208385031215612ebe57612ebd6127ff565b5b5f83013567ffffffffffffffff811115612edb57612eda612803565b5b612ee785828601612e53565b92509250509250929050565b5f81519050919050565b5f82825260208201905092915050565b5f819050602082019050919050565b612f2581612d22565b82525050565b5f8160070b9050919050565b612f4081612f2b565b82525050565b606082015f820151612f5a5f850182612f1c565b506020820151612f6d6020850182612f1c565b506040820151612f806040850182612f37565b50505050565b5f612f918383612f46565b60608301905092915050565b5f602082019050919050565b5f612fb382612ef3565b612fbd8185612efd565b9350612fc883612f0d565b805f5b83811015612ff8578151612fdf8882612f86565b9750612fea83612f9d565b925050600181019050612fcb565b5085935050505092915050565b5f6020820190508181035f83015261301d8184612fa9565b905092915050565b61302e81612d22565b82525050565b5f6020820190506130475f830184613025565b92915050565b5f60208284031215613062576130616127ff565b5b5f61306f84828501612926565b91505092915050565b5f81519050919050565b5f81905092915050565b8281835e5f83830152505050565b5f6130a482613078565b6130ae8185613082565b93506130be81856020860161308c565b80840191505092915050565b5f6130d5828461309a565b915081905092915050565b5f815f0b9050919050565b6130f4816130e0565b81146130fe575f5ffd5b50565b5f8135905061310f816130eb565b92915050565b5f6020828403121561312a576131296127ff565b5b5f61313784828501613101565b91505092915050565b5f61314e6020840184612926565b905092915050565b61315f816128ff565b82525050565b5f6131736020840184613101565b905092915050565b613184816130e0565b82525050565b6060820161319a5f830183613140565b6131a65f850182613156565b506131b46020830183613140565b6131c16020850182613156565b506131cf6040830183613165565b6131dc604085018261317b565b50505050565b5f6060820190506131f55f83018461318a565b92915050565b5f5ffd5b5f601f19601f8301169050919050565b7f4e487b71000000000000000000000000000000000000000000000000000000005f52604160045260245ffd5b613245826131ff565b810181811067ffffffffffffffff821117156132645761326361320f565b5b80604052505050565b5f6132766127f6565b9050613282828261323c565b919050565b5f8151905061329581612d3f565b92915050565b6132a481612f2b565b81146132ae575f5ffd5b50565b5f815190506132bf8161329b565b92915050565b5f815190506132d381612dca565b92915050565b5f606082840312156132ee576132ed6131fb565b5b6132f8606061326d565b90505f61330784828501613287565b5f83015250602061331a848285016132b1565b602083015250604061332e848285016132c5565b60408301525092915050565b5f6060828403121561334f5761334e6127ff565b5b5f61335c848285016132d9565b91505092915050565b5f6040820190506133785f830185612e1f565b6133856020830184612e1f565b9392505050565b5f8151905061339a81612910565b92915050565b5f602082840312156133b5576133b46127ff565b5b5f6133c28482850161338c565b91505092915050565b6133d4816128e0565b81146133de575f5ffd5b50565b5f815190506133ef816133cb565b92915050565b5f8160020b9050919050565b61340a816133f5565b8114613414575f5ffd5b50565b5f8151905061342581613401565b92915050565b5f61ffff82169050919050565b6134418161342b565b811461344b575f5ffd5b50565b5f8151905061345c81613438565b92915050565b5f60ff82169050919050565b61347781613462565b8114613481575f5ffd5b50565b5f815190506134928161346e565b92915050565b5f815190506134a6816129f0565b92915050565b5f5f5f5f5f5f5f60e0888a0312156134c7576134c66127ff565b5b5f6134d48a828b016133e1565b97505060206134e58a828b01613417565b96505060406134f68a828b0161344e565b95505060606135078a828b0161344e565b94505060806135188a828b0161344e565b93505060a06135298a828b01613484565b92505060c061353a8a828b01613498565b91505092959891949750929550565b7f4e487b71000000000000000000000000000000000000000000000000000000005f52601160045260245ffd5b5f6135808261293a565b915061358b8361293a565b92508282026135998161293a565b915082820484148315176135b0576135af613549565b5b5092915050565b5f62ffffff82169050919050565b6135ce816135b7565b81146135d8575f5ffd5b50565b5f815190506135e9816135c5565b92915050565b5f60208284031215613604576136036127ff565b5b5f613611848285016135db565b91505092915050565b613623816135b7565b82525050565b613632816128e0565b82525050565b60a082015f82015161364c5f850182613156565b50602082015161365f6020850182613156565b5060408201516136726040850182612b7e565b506060820151613685606085018261361a565b5060808201516136986080850182613629565b50505050565b5f60a0820190506136b15f830184613638565b92915050565b5f815190506136c581612943565b92915050565b5f63ffffffff82169050919050565b6136e3816136cb565b81146136ed575f5ffd5b50565b5f815190506136fe816136da565b92915050565b5f5f5f5f6080858703121561371c5761371b6127ff565b5b5f613729878288016136b7565b945050602061373a878288016133e1565b935050604061374b878288016136f0565b925050606061375c878288016136b7565b91505092959194509250565b5f6060828403121561377d5761377c6131fb565b5b613787606061326d565b90505f61379684828501613287565b5f8301525060206137a984828501613287565b60208301525060406137bd848285016132b1565b60408301525092915050565b5f606082840312156137de576137dd6127ff565b5b5f6137eb84828501613768565b91505092915050565b5f61380e61380961380484612db9565b612a91565b61293a565b9050919050565b61381e816137f4565b82525050565b5f6020820190506138375f830184613815565b92915050565b5f60208284031215613852576138516127ff565b5b5f61385f848285016136b7565b91505092915050565b5f64ffffffffff82169050919050565b61388181613868565b811461388b575f5ffd5b50565b5f8151905061389c81613878565b92915050565b5f606082840312156138b7576138b66131fb565b5b6138c1606061326d565b90505f6138d08482850161344e565b5f8301525060206138e38482850161344e565b60208301525060406138f78482850161388e565b60408301525092915050565b5f6101008284031215613919576139186131fb565b5b613923608061326d565b90505f613932848285016138a2565b5f830152506060613945848285016138a2565b60208301525060c061395984828501613498565b60408301525060e061396d8482850161344e565b60608301525092915050565b5f610100828403121561398f5761398e6127ff565b5b5f61399c84828501613903565b91505092915050565b5f6139af8261293a565b91506139ba8361293a565b92508282019050808211156139d2576139d1613549565b5b92915050565b5f6139e28261293a565b91506139ed8361293a565b9250828203905081811115613a0557613a04613549565b5b92915050565b7f4e487b71000000000000000000000000000000000000000000000000000000005f52603260045260245ffd5b5f604082019050613a4b5f830185612e1f565b613a5860208301846129bd565b9392505050565b5f604082019050613a725f8301856129bd565b613a7f6020830184612e1f565b9392505050565b613a8f81612c35565b8114613a99575f5ffd5b50565b5f81519050613aaa81613a86565b92915050565b5f60208284031215613ac557613ac46127ff565b5b5f613ad284828501613a9c565b91505092915050565b5f613ae58261293a565b91507fffffffffffffffffffffffffffffffffffffffffffffffffffffffffffffffff8203613b1757613b16613549565b5b600182019050919050565b5f613b2c82612d22565b9150613b3783612d22565b9250828201905071ffffffffffffffffffffffffffffffffffff811115613b6157613b60613549565b5b92915050565b5f8160011c9050919050565b5f5f8291508390505b6001851115613bbc57808604811115613b9857613b97613549565b5b6001851615613ba75780820291505b8081029050613bb585613b67565b9450613b7c565b94509492505050565b5f82613bd45760019050613c8f565b81613be1575f9050613c8f565b8160018114613bf75760028114613c0157613c30565b6001915050613c8f565b60ff841115613c1357613c12613549565b5b8360020a915084821115613c2a57613c29613549565b5b50613c8f565b5060208310610133831016604e8410600b8410161715613c655782820a905083811115613c6057613c5f613549565b5b613c8f565b613c728484846001613b73565b92509050818404811115613c8957613c88613549565b5b81810290505b9392505050565b5f613ca08261293a565b9150613cab83613462565b9250613cd87fffffffffffffffffffffffffffffffffffffffffffffffffffffffffffffffff8484613bc5565b905092915050565b5f68ffffffffffffffffff82169050919050565b7f4e487b71000000000000000000000000000000000000000000000000000000005f52601260045260245ffd5b5f613d2b82613ce0565b9150613d3683613ce0565b925082613d4657613d45613cf4565b5b828204905092915050565b5f613d5b82613ce0565b9150613d6683613ce0565b9250828201905068ffffffffffffffffff811115613d8757613d86613549565b5b92915050565b5f613d978261293a565b9150613da28361293a565b925082613db257613db1613cf4565b5b828204905092915050565b5f6fffffffffffffffffffffffffffffffff82169050919050565b5f613de282613dbd565b9150613ded83613dbd565b925082613dfd57613dfc613cf4565b5b828204905092915050565b613e1181612db9565b82525050565b5f602082019050613e2a5f830184613e08565b92915050565b5f81519050613e3e816130eb565b92915050565b5f60608284031215613e5957613e586131fb565b5b613e63606061326d565b90505f613e728482850161338c565b5f830152506020613e858482850161338c565b6020830152506040613e9984828501613e30565b60408301525092915050565b5f60608284031215613eba57613eb96127ff565b5b5f613ec784828501613e44565b91505092915050565b606082015f820151613ee45f850182613156565b506020820151613ef76020850182613156565b506040820151613f0a604085018261317b565b50505050565b5f606082019050613f235f830184613ed0565b92915050565b5f613f3382612d22565b9150613f3e83612d22565b9250828202613f4c81612d22565b91508282048414831517613f6357613f62613549565b5b5092915050565b613f73816135b7565b82525050565b5f606082019050613f8c5f830186612e1f565b613f996020830185612e1f565b613fa66040830184613f6a565b949350505050565b5f81905092915050565b7fff000000000000000000000000000000000000000000000000000000000000005f82015250565b5f613fec600183613fae565b9150613ff782613fb8565b600182019050919050565b5f8160601b9050919050565b5f61401882614002565b9050919050565b5f6140298261400e565b9050919050565b61404161403c826128ff565b61401f565b82525050565b5f819050919050565b5f819050919050565b61406a61406582614047565b614050565b82525050565b5f61407a82613fe0565b91506140868286614030565b6014820191506140968285614059565b6020820191506140a68284614059565b60208201915081905094935050505056fea26469706673582212200978519a9d6e90d288364693d65f6caa525eb6dd238dbc1b5c55752613c9c17164736f6c634300081c0033","linkReferences":{}},"methodIdentifiers":{"VAULT()":"411557d1","getAddressAPE(uint48)":"8d0f7844","getReserves(uint48[])":"a0193ec4","getUserBalances(address,uint256,uint256)":"7b6127fa","getVaultStatus((address,address,int8))":"049354b9","priceOfAPE((address,address,int8))":"58c6bdbd","priceOfTEA((address,address,int8))":"58676d0c","quoteBurn(bool,(address,address,int8),uint256)":"a4e59a9f","quoteCollateralToDebtToken(address,address,uint256)":"2f3ccd42","quoteMint(bool,(address,address,int8),uint144)":"7ef3090a","quoteMintWithDebtToken(bool,(address,address,int8),uint256)":"37961f8d"},"id":48}