{"abi":[{"type":"constructor","inputs":[{"name":"swapRouter_","type":"address","internalType":"address"},{"name":"vault_","type":"address","internalType":"address"},{"name":"hashCreationCodeAPE","type":"bytes32","internalType":"bytes32"}],"stateMutability":"nonpayable"},{"type":"function","name":"HASH_CREATION_CODE_APE","inputs":[],"outputs":[{"name":"","type":"bytes32","internalType":"bytes32"}],"stateMutability":"view"},{"type":"function","name":"SWAP_ROUTER","inputs":[],"outputs":[{"name":"","type":"address","internalType":"contract ISwapRouter"}],"stateMutability":"view"},{"type":"function","name":"VAULT","inputs":[],"outputs":[{"name":"","type":"address","internalType":"contract IVault"}],"stateMutability":"view"},{"type":"function","name":"burnAndSwap","inputs":[{"name":"ape","type":"address","internalType":"address"},{"name":"vaultId","type":"uint256","internalType":"uint256"},{"name":"vaultParams","type":"tuple","internalType":"struct SirStructs.VaultParameters","components":[{"name":"debtToken","type":"address","internalType":"address"},{"name":"collateralToken","type":"address","internalType":"address"},{"name":"leverageTier","type":"int8","internalType":"int8"}]},{"name":"amountTokens","type":"uint256","internalType":"uint256"},{"name":"minDebtToken","type":"uint256","internalType":"uint256"},{"name":"uniswapFeeTier","type":"uint24","internalType":"uint24"}],"outputs":[{"name":"amountDebtToken","type":"uint256","internalType":"uint256"}],"stateMutability":"nonpayable"},{"type":"function","name":"getAddressAPE","inputs":[{"name":"deployer","type":"address","internalType":"address"},{"name":"vaultId","type":"uint256","internalType":"uint256"}],"outputs":[{"name":"","type":"address","internalType":"address"}],"stateMutability":"view"},{"type":"function","name":"mint","inputs":[{"name":"ape","type":"address","internalType":"address"},{"name":"vaultId","type":"uint256","internalType":"uint256"},{"name":"vaultParams","type":"tuple","internalType":"struct SirStructs.VaultParameters","components":[{"name":"debtToken","type":"address","internalType":"address"},{"name":"collateralToken","type":"address","internalType":"address"},{"name":"leverageTier","type":"int8","internalType":"int8"}]},{"name":"amountCollateral","type":"uint144","internalType":"uint144"}],"outputs":[{"name":"amountTokens","type":"uint256","internalType":"uint256"}],"stateMutability":"nonpayable"},{"type":"function","name":"mintWithETH","inputs":[{"name":"ape","type":"address","internalType":"address"},{"name":"vaultId","type":"uint256","internalType":"uint256"},{"name":"vaultParams","type":"tuple","internalType":"struct SirStructs.VaultParameters","components":[{"name":"debtToken","type":"address","internalType":"address"},{"name":"collateralToken","type":"address","internalType":"address"},{"name":"leverageTier","type":"int8","internalType":"int8"}]}],"outputs":[{"name":"amountTokens","type":"uint256","internalType":"uint256"}],"stateMutability":"payable"},{"type":"function","name":"onERC1155BatchReceived","inputs":[{"name":"","type":"address","internalType":"address"},{"name":"","type":"address","internalType":"address"},{"name":"","type":"uint256[]","internalType":"uint256[]"},{"name":"","type":"uint256[]","internalType":"uint256[]"},{"name":"","type":"bytes","internalType":"bytes"}],"outputs":[{"name":"","type":"bytes4","internalType":"bytes4"}],"stateMutability":"nonpayable"},{"type":"function","name":"onERC1155Received","inputs":[{"name":"","type":"address","internalType":"address"},{"name":"","type":"address","internalType":"address"},{"name":"","type":"uint256","internalType":"uint256"},{"name":"","type":"uint256","internalType":"uint256"},{"name":"","type":"bytes","internalType":"bytes"}],"outputs":[{"name":"","type":"bytes4","internalType":"bytes4"}],"stateMutability":"nonpayable"},{"type":"function","name":"priceOfAPE","inputs":[{"name":"vaultParams","type":"tuple","internalType":"struct SirStructs.VaultParameters","components":[{"name":"debtToken","type":"address","internalType":"address"},{"name":"collateralToken","type":"address","internalType":"address"},{"name":"leverageTier","type":"int8","internalType":"int8"}]}],"outputs":[{"name":"num","type":"uint256","internalType":"uint256"},{"name":"den","type":"uint256","internalType":"uint256"}],"stateMutability":"view"},{"type":"function","name":"priceOfTEA","inputs":[{"name":"vaultParams","type":"tuple","internalType":"struct SirStructs.VaultParameters","components":[{"name":"debtToken","type":"address","internalType":"address"},{"name":"collateralToken","type":"address","internalType":"address"},{"name":"leverageTier","type":"int8","internalType":"int8"}]}],"outputs":[{"name":"num","type":"uint256","internalType":"uint256"},{"name":"den","type":"uint256","internalType":"uint256"}],"stateMutability":"view"},{"type":"function","name":"quoteBurn","inputs":[{"name":"isAPE","type":"bool","internalType":"bool"},{"name":"vaultParams","type":"tuple","internalType":"struct SirStructs.VaultParameters","components":[{"name":"debtToken","type":"address","internalType":"address"},{"name":"collateralToken","type":"address","internalType":"address"},{"name":"leverageTier","type":"int8","internalType":"int8"}]},{"name":"amountTokens","type":"uint256","internalType":"uint256"}],"outputs":[{"name":"amountCollateral","type":"uint144","internalType":"uint144"}],"stateMutability":"view"},{"type":"function","name":"quoteMint","inputs":[{"name":"isAPE","type":"bool","internalType":"bool"},{"name":"vaultParams","type":"tuple","internalType":"struct SirStructs.VaultParameters","components":[{"name":"debtToken","type":"address","internalType":"address"},{"name":"collateralToken","type":"address","internalType":"address"},{"name":"leverageTier","type":"int8","internalType":"int8"}]},{"name":"amountCollateral","type":"uint144","internalType":"uint144"}],"outputs":[{"name":"amountTokens","type":"uint256","internalType":"uint256"}],"stateMutability":"view"},{"type":"function","name":"swapAndMint","inputs":[{"name":"ape","type":"address","internalType":"address"},{"name":"vaultId","type":"uint256","internalType":"uint256"},{"name":"vaultParams","type":"tuple","internalType":"struct SirStructs.VaultParameters","components":[{"name":"debtToken","type":"address","internalType":"address"},{"name":"collateralToken","type":"address","internalType":"address"},{"name":"leverageTier","type":"int8","internalType":"int8"}]},{"name":"amountDebtToken","type":"uint256","internalType":"uint256"},{"name":"minCollateral","type":"uint256","internalType":"uint256"},{"name":"uniswapFeeTier","type":"uint24","internalType":"uint24"}],"outputs":[{"name":"amountTokens","type":"uint256","internalType":"uint256"}],"stateMutability":"nonpayable"},{"type":"error","name":"CollateralIsNotWETH","inputs":[]},{"type":"error","name":"NoETHSent","inputs":[]},{"type":"error","name":"VaultDoesNotExist","inputs":[]}],"bytecode":{"object":"0x60e060405234801561001057600080fd5b50604051612db9380380612db983398101604081905261002f91610066565b6001600160a01b0392831660a052911660c0526080526100a2565b80516001600160a01b038116811461006157600080fd5b919050565b60008060006060848603121561007b57600080fd5b6100848461004a565b92506100926020850161004a565b9150604084015190509250925092565b60805160a05160c051612c016101b86000396000818161015b015281816104060152818161048e0152818161068f015281816106da015281816107ec0152818161086a0152818161090b015281816109bc01528181610a3f01528181610ae001528181610b7201528181610be501528181610c6b01528181610d3f01528181610e7901528181610f7c0152818161104c015281816111b90152818161123f015281816113130152818161139801528181611524015281816116e101528181611791015281816118a301528181611a7101528181611b3b0152611c4d0152600081816102ef0152818161052101528181610551015281816119c50152611a00015260008181610127015261194d0152612c016000f3fe6080604052600436106100dd5760003560e01c8063a4e59a9f1161007f578063bc197c8111610059578063bc197c8114610295578063c6005893146102dd578063dba184ad14610311578063f23a6e611461033157600080fd5b8063a4e59a9f1461022a578063ad7b1aa614610262578063b730f5e71461027557600080fd5b806341f961ed116100bb57806341f961ed1461019557806358676d0c146101b557806358c6bdbd146101ea5780637ef3090a1461020a57600080fd5b806306f486c1146100e25780633600566b14610115578063411557d114610149575b600080fd5b3480156100ee57600080fd5b506101026100fd36600461221b565b61035e565b6040519081526020015b60405180910390f35b34801561012157600080fd5b506101027f000000000000000000000000000000000000000000000000000000000000000081565b34801561015557600080fd5b5061017d7f000000000000000000000000000000000000000000000000000000000000000081565b6040516001600160a01b03909116815260200161010c565b3480156101a157600080fd5b506101026101b03660046122a0565b610677565b3480156101c157600080fd5b506101d56101d03660046122f0565b610863565b6040805192835260208301919091520161010c565b3480156101f657600080fd5b506101d56102053660046122f0565b610a38565b34801561021657600080fd5b5061010261022536600461231a565b610be0565b34801561023657600080fd5b5061024a610245366004612364565b6111b4565b6040516001600160901b03909116815260200161010c565b6101026102703660046123a4565b6115f4565b34801561028157600080fd5b5061017d6102903660046123e1565b61191a565b3480156102a157600080fd5b506102c46102b0366004612499565b63bc197c8160e01b98975050505050505050565b6040516001600160e01b0319909116815260200161010c565b3480156102e957600080fd5b5061017d7f000000000000000000000000000000000000000000000000000000000000000081565b34801561031d57600080fd5b5061010261032c36600461221b565b611999565b34801561033d57600080fd5b506102c461034c366004612560565b63f23a6e6160e01b9695505050505050565b60006001600160a01b038716158015906103ef576040516323b872dd60e01b8152336004820152306024820152604481018690526001600160a01b038916906323b872dd906064016020604051808303816000875af11580156103c5573d6000803e3d6000fd5b505050506040513d601f19601f820116820180604052508101906103e991906125d8565b50610474565b604051637921219560e11b81526001600160a01b037f0000000000000000000000000000000000000000000000000000000000000000169063f242432a9061044190339030908c908b906004016125f5565b600060405180830381600087803b15801561045b57600080fd5b505af115801561046f573d6000803e3d6000fd5b505050505b6040516307f8c43160e31b81526000906001600160a01b037f00000000000000000000000000000000000000000000000000000000000000001690633fc62188906104c79085908b908b90600401612685565b6020604051808303816000875af11580156104e6573d6000803e3d6000fd5b505050506040513d601f19601f8201168201806040525081019061050a91906126a9565b905061054f61051f6040890160208a016126c6565b7f0000000000000000000000000000000000000000000000000000000000000000836001600160901b0316611cc6565b7f00000000000000000000000000000000000000000000000000000000000000006001600160a01b031663db3e21986040518061010001604052808a602001602081019061059d91906126c6565b6001600160a01b031681526020908101906105ba908c018c6126c6565b6001600160a01b031681526020018762ffffff168152602001336001600160a01b03168152602001428152602001888152602001846001600160901b0316815260200160006001600160a01b03168152506040518263ffffffff1660e01b81526004016106279190612756565b6020604051808303816000875af1158015610646573d6000803e3d6000fd5b505050506040513d601f19601f8201168201806040525081019061066a9190612765565b9998505050505050505050565b60006106bd61068c60408501602086016126c6565b337f0000000000000000000000000000000000000000000000000000000000000000856001600160901b0316611dcb565b6040516312980a1f60e31b81526001600160a01b038681161515917f0000000000000000000000000000000000000000000000000000000000000000909116906394c050f890610713908490889060040161277e565b6020604051808303816000875af1158015610732573d6000803e3d6000fd5b505050506040513d601f19601f820116820180604052508101906107569190612765565b915080156107d55760405163a9059cbb60e01b8152336004820152602481018390526001600160a01b0387169063a9059cbb906044016020604051808303816000875af11580156107ab573d6000803e3d6000fd5b505050506040513d601f19601f820116820180604052508101906107cf91906125d8565b5061085a565b604051637921219560e11b81526001600160a01b037f0000000000000000000000000000000000000000000000000000000000000000169063f242432a9061082790309033908a9088906004016125f5565b600060405180830381600087803b15801561084157600080fd5b505af1158015610855573d6000803e3d6000fd5b505050505b50949350505050565b60008060007f00000000000000000000000000000000000000000000000000000000000000006001600160a01b031663fbd98edf856040518263ffffffff1660e01b81526004016108b49190612794565b606060405180830381865afa1580156108d1573d6000803e3d6000fd5b505050506040513d601f19601f820116820180604052508101906108f591906127eb565b905080602001516001600160901b0316925060007f00000000000000000000000000000000000000000000000000000000000000006001600160a01b0316632edf3104866040518263ffffffff1660e01b81526004016109559190612794565b606060405180830381865afa158015610972573d6000803e3d6000fd5b505050506040513d601f19601f82011682018060405250810190610996919061283f565b604081810151905163bd85b03960e01b815265ffffffffffff90911660048201529091507f00000000000000000000000000000000000000000000000000000000000000006001600160a01b03169063bd85b03990602401602060405180830381865afa158015610a0b573d6000803e3d6000fd5b505050506040513d601f19601f82011682018060405250810190610a2f9190612765565b92505050915091565b60008060007f00000000000000000000000000000000000000000000000000000000000000006001600160a01b031663fbd98edf856040518263ffffffff1660e01b8152600401610a899190612794565b606060405180830381865afa158015610aa6573d6000803e3d6000fd5b505050506040513d601f19601f82011682018060405250810190610aca91906127eb565b905080600001516001600160901b0316925060007f00000000000000000000000000000000000000000000000000000000000000006001600160a01b0316632edf3104866040518263ffffffff1660e01b8152600401610b2a9190612794565b606060405180830381865afa158015610b47573d6000803e3d6000fd5b505050506040513d601f19601f82011682018060405250810190610b6b919061283f565b9050610ba37f0000000000000000000000000000000000000000000000000000000000000000826040015165ffffffffffff1661191a565b6001600160a01b03166318160ddd6040518163ffffffff1660e01b8152600401602060405180830381865afa158015610a0b573d6000803e3d6000fd5b6000807f00000000000000000000000000000000000000000000000000000000000000006001600160a01b031663458e8e6b6040518163ffffffff1660e01b8152600401608060405180830381865afa158015610c41573d6000803e3d6000fd5b505050506040513d601f19601f82011682018060405250810190610c6591906128a4565b905060007f00000000000000000000000000000000000000000000000000000000000000006001600160a01b0316632edf3104866040518263ffffffff1660e01b8152600401610cb59190612794565b606060405180830381865afa158015610cd2573d6000803e3d6000fd5b505050506040513d601f19601f82011682018060405250810190610cf6919061283f565b9050806040015165ffffffffffff16600003610d2557604051634d827f1760e01b815260040160405180910390fd5b60405163fbd98edf60e01b81526000906001600160a01b037f0000000000000000000000000000000000000000000000000000000000000000169063fbd98edf90610d74908990600401612794565b606060405180830381865afa158015610d91573d6000803e3d6000fd5b505050506040513d601f19601f82011682018060405250810190610db591906127eb565b90508615610f565760008080610dd160608a0160408b01612933565b60000b12610e10576127109150610dee6060890160408a01612933565b60ff16856000015161ffff16901b612710610e099190612964565b9050610e50565b6000610e2260608a0160408b01612933565b610e2b90612977565b60ff16612710901b9050809250856000015161ffff1681610e4c9190612964565b9150505b600081610e66846001600160901b038b16612995565b610e7091906129c2565b90506000610eaa7f0000000000000000000000000000000000000000000000000000000000000000876040015165ffffffffffff1661191a565b90506000816001600160a01b03166318160ddd6040518163ffffffff1660e01b8152600401602060405180830381865afa158015610eec573d6000803e3d6000fd5b505050506040513d601f19601f82011682018060405250810190610f109190612765565b90508015610f3557610f30818488600001516001600160901b0316611ed5565b610f4a565b8551610f4a906001600160901b031684612964565b985050505050506111aa565b6040828101519051631b3f2b0160e21b815265ffffffffffff90911660048201526000907f00000000000000000000000000000000000000000000000000000000000000006001600160a01b031690636cfcac0490602401602060405180830381865afa158015610fcb573d6000803e3d6000fd5b505050506040513d601f19601f82011682018060405250810190610fef91906129d6565b9050600061100287866020015184611f89565b905080604001518360200181815161101a91906129f9565b6001600160901b0316905250604084810151905163bd85b03960e01b815265ffffffffffff90911660048201526000907f00000000000000000000000000000000000000000000000000000000000000006001600160a01b03169063bd85b03990602401602060405180830381865afa15801561109b573d6000803e3d6000fd5b505050506040513d601f19601f820116820180604052508101906110bf9190612765565b9050600081156110f3576110ee8284606001516001600160901b031687602001516001600160901b0316611ed5565b61111f565b61111f61110660408c0160208d016126c6565b8660200151856060015161111a91906129f9565b61201e565b905061112b8183612964565b915082606001518560200181815161114391906129f9565b6001600160901b0316905250811561117f5761117a8284600001516001600160901b031687602001516001600160901b0316611ed5565b6111a3565b6111a361119260408c0160208d016126c6565b6020870151855161111a91906129f9565b9750505050505b5050509392505050565b6000807f00000000000000000000000000000000000000000000000000000000000000006001600160a01b031663458e8e6b6040518163ffffffff1660e01b8152600401608060405180830381865afa158015611215573d6000803e3d6000fd5b505050506040513d601f19601f8201168201806040525081019061123991906128a4565b905060007f00000000000000000000000000000000000000000000000000000000000000006001600160a01b0316632edf3104866040518263ffffffff1660e01b81526004016112899190612794565b606060405180830381865afa1580156112a6573d6000803e3d6000fd5b505050506040513d601f19601f820116820180604052508101906112ca919061283f565b9050806040015165ffffffffffff166000036112f957604051634d827f1760e01b815260040160405180910390fd5b60405163fbd98edf60e01b81526000906001600160a01b037f0000000000000000000000000000000000000000000000000000000000000000169063fbd98edf90611348908990600401612794565b606060405180830381865afa158015611365573d6000803e3d6000fd5b505050506040513d601f19601f8201168201806040525081019061138991906127eb565b905086156114fe5760006113c97f0000000000000000000000000000000000000000000000000000000000000000846040015165ffffffffffff1661191a565b90506000816001600160a01b03166318160ddd6040518163ffffffff1660e01b8152600401602060405180830381865afa15801561140b573d6000803e3d6000fd5b505050506040513d601f19601f8201168201806040525081019061142f9190612765565b9050600061144b84600001516001600160901b03168984611ed5565b6001600160901b031690506000808061146a60608d0160408e01612933565b60000b126114a957612710915061148760608c0160408d01612933565b60ff16886000015161ffff16901b6127106114a29190612964565b90506114e9565b60006114bb60608d0160408e01612933565b6114c490612977565b60ff16612710901b9050809250886000015161ffff16816114e59190612964565b9150505b806114f48385612995565b610f4a91906129c2565b604082810151905163bd85b03960e01b815265ffffffffffff90911660048201526000907f00000000000000000000000000000000000000000000000000000000000000006001600160a01b03169063bd85b03990602401602060405180830381865afa158015611573573d6000803e3d6000fd5b505050506040513d601f19601f820116820180604052508101906115979190612765565b905060006115b383602001516001600160901b03168884611ed5565b6001600160901b03169050600061271090506000866020015161ffff166127106115dd9190612964565b9050806115ea8385612995565b6111a391906129c2565b600073c02aaa39b223fe8d0a0e5c4f27ead9083c756cc261161b60408401602085016126c6565b6001600160a01b0316146116425760405163627bf55960e11b815260040160405180910390fd5b47600081900361166557604051630b7cc7c360e11b815260040160405180910390fd5b73c02aaa39b223fe8d0a0e5c4f27ead9083c756cc26001600160a01b031663d0e30db0826040518263ffffffff1660e01b81526004016000604051808303818588803b1580156116b457600080fd5b505af11580156116c8573d6000803e3d6000fd5b505060405163a9059cbb60e01b81526001600160a01b037f00000000000000000000000000000000000000000000000000000000000000001660048201526024810185905273c02aaa39b223fe8d0a0e5c4f27ead9083c756cc2935063a9059cbb925060440190506020604051808303816000875af115801561174f573d6000803e3d6000fd5b505050506040513d601f19601f8201168201806040525081019061177391906125d8565b506040516312980a1f60e31b81526001600160a01b038681161515917f0000000000000000000000000000000000000000000000000000000000000000909116906394c050f8906117ca908490889060040161277e565b6020604051808303816000875af11580156117e9573d6000803e3d6000fd5b505050506040513d601f19601f8201168201806040525081019061180d9190612765565b9250801561188c5760405163a9059cbb60e01b8152336004820152602481018490526001600160a01b0387169063a9059cbb906044016020604051808303816000875af1158015611862573d6000803e3d6000fd5b505050506040513d601f19601f8201168201806040525081019061188691906125d8565b50611911565b604051637921219560e11b81526001600160a01b037f0000000000000000000000000000000000000000000000000000000000000000169063f242432a906118de90309033908a9089906004016125f5565b600060405180830381600087803b1580156118f857600080fd5b505af115801561190c573d6000803e3d6000fd5b505050505b50509392505050565b6040516001600160f81b031960208201526bffffffffffffffffffffffff19606084901b166021820152603581018290527f000000000000000000000000000000000000000000000000000000000000000060558201526000906075016040516020818303038152906040528051906020012060001c90505b92915050565b60006119b36119ab60208701876126c6565b333087611dcb565b6119ea6119c360208701876126c6565b7f000000000000000000000000000000000000000000000000000000000000000086611cc6565b6040805161010081019091526001600160a01b037f0000000000000000000000000000000000000000000000000000000000000000169063414bf3899080611a3560208a018a6126c6565b6001600160a01b03168152602001886020016020810190611a5691906126c6565b6001600160a01b031681526020018562ffffff1681526020017f00000000000000000000000000000000000000000000000000000000000000006001600160a01b0316815260200142815260200187815260200186815260200160006001600160a01b03168152506040518263ffffffff1660e01b8152600401611ada9190612756565b6020604051808303816000875af1158015611af9573d6000803e3d6000fd5b505050506040513d601f19601f82011682018060405250810190611b1d9190612765565b506040516312980a1f60e31b81526001600160a01b038881161515917f0000000000000000000000000000000000000000000000000000000000000000909116906394c050f890611b749084908a9060040161277e565b6020604051808303816000875af1158015611b93573d6000803e3d6000fd5b505050506040513d601f19601f82011682018060405250810190611bb79190612765565b91508015611c365760405163a9059cbb60e01b8152336004820152602481018390526001600160a01b0389169063a9059cbb906044016020604051808303816000875af1158015611c0c573d6000803e3d6000fd5b505050506040513d601f19601f82011682018060405250810190611c3091906125d8565b50611cbb565b604051637921219560e11b81526001600160a01b037f0000000000000000000000000000000000000000000000000000000000000000169063f242432a90611c8890309033908c9088906004016125f5565b600060405180830381600087803b158015611ca257600080fd5b505af1158015611cb6573d6000803e3d6000fd5b505050505b509695505050505050565b604080516001600160a01b038481166024830152604480830185905283518084039091018152606490920183526020820180516001600160e01b031663095ea7b360e01b1790529151600092839290871691611d229190612a18565b6000604051808303816000865af19150503d8060008114611d5f576040519150601f19603f3d011682016040523d82523d6000602084013e611d64565b606091505b5091509150818015611d8e575080511580611d8e575080806020019051810190611d8e91906125d8565b611dc45760405162461bcd60e51b8152602060048201526002602482015261534160f01b60448201526064015b60405180910390fd5b5050505050565b604080516001600160a01b0385811660248301528481166044830152606480830185905283518084039091018152608490920183526020820180516001600160e01b03166323b872dd60e01b1790529151600092839290881691611e2f9190612a18565b6000604051808303816000865af19150503d8060008114611e6c576040519150601f19603f3d011682016040523d82523d6000602084013e611e71565b606091505b5091509150818015611e9b575080511580611e9b575080806020019051810190611e9b91906125d8565b611ecd5760405162461bcd60e51b815260206004820152600360248201526229aa2360e91b6044820152606401611dbb565b505050505050565b6000808060001985870985870292508281108382030391505080600003611f0e5760008411611f0357600080fd5b508290049050611f82565b808411611f1a57600080fd5b600084868809851960019081018716968790049682860381900495909211909303600082900391909104909201919091029190911760038402600290811880860282030280860282030280860282030280860282030280860282030280860290910302029150505b9392505050565b60408051608081018252600080825260208201819052918101829052606081019190915261271061ffff84168101806001600160901b038716830281611fd157611fd16129ac565b046001600160901b039081168085526109f69703811660ff95909516850296909604861660208401819052600a850487166060850181905294039390930390941660408201529392505050565b600080836001600160a01b03166318160ddd6040518163ffffffff1660e01b8152600401602060405180830381865afa15801561205f573d6000803e3d6000fd5b505050506040513d601f19601f820116820180604052508101906120839190612765565b905061ffff606067016345785d8a00006301e1338060016120a6600c600a612b2e565b6120b49063781a75c0612995565b6120be9190612b3d565b6120c89190612b50565b6120d3906001612b7e565b6120ed906001600160481b031666f38a31408ae338612995565b6120f791906129c2565b6001600160481b03166001600160801b0316901b6121159190612b9d565b6001600160801b0316811161213357826001600160901b03166121df565b6121df61ffff606067016345785d8a00006301e133806001612157600c600a612b2e565b6121659063781a75c0612995565b61216f9190612b3d565b6121799190612b50565b612184906001612b7e565b61219e906001600160481b031666f38a31408ae338612995565b6121a891906129c2565b6001600160481b03166001600160801b0316901b6121c69190612b9d565b6001600160801b0316846001600160901b031683611ed5565b949350505050565b80356001600160a01b03811681146121fe57600080fd5b919050565b60006060828403121561221557600080fd5b50919050565b600080600080600080610100878903121561223557600080fd5b61223e876121e7565b9550602087013594506122548860408901612203565b935060a0870135925060c0870135915060e087013562ffffff8116811461227a57600080fd5b809150509295509295509295565b6001600160901b038116811461229d57600080fd5b50565b60008060008060c085870312156122b657600080fd5b6122bf856121e7565b9350602085013592506122d58660408701612203565b915060a08501356122e581612288565b939692955090935050565b60006060828403121561230257600080fd5b611f828383612203565b801515811461229d57600080fd5b600080600060a0848603121561232f57600080fd5b833561233a8161230c565b92506123498560208601612203565b9150608084013561235981612288565b809150509250925092565b600080600060a0848603121561237957600080fd5b83356123848161230c565b92506123938560208601612203565b929592945050506080919091013590565b600080600060a084860312156123b957600080fd5b6123c2846121e7565b9250602084013591506123d88560408601612203565b90509250925092565b600080604083850312156123f457600080fd5b6123fd836121e7565b946020939093013593505050565b60008083601f84011261241d57600080fd5b50813567ffffffffffffffff81111561243557600080fd5b6020830191508360208260051b850101111561245057600080fd5b9250929050565b60008083601f84011261246957600080fd5b50813567ffffffffffffffff81111561248157600080fd5b60208301915083602082850101111561245057600080fd5b60008060008060008060008060a0898b0312156124b557600080fd5b6124be896121e7565b97506124cc60208a016121e7565b9650604089013567ffffffffffffffff8111156124e857600080fd5b6124f48b828c0161240b565b909750955050606089013567ffffffffffffffff81111561251457600080fd5b6125208b828c0161240b565b909550935050608089013567ffffffffffffffff81111561254057600080fd5b61254c8b828c01612457565b999c989b5096995094979396929594505050565b60008060008060008060a0878903121561257957600080fd5b612582876121e7565b9550612590602088016121e7565b94506040870135935060608701359250608087013567ffffffffffffffff8111156125ba57600080fd5b6125c689828a01612457565b979a9699509497509295939492505050565b6000602082840312156125ea57600080fd5b8151611f828161230c565b6001600160a01b0394851681529290931660208301526040820152606081019190915260a06080820181905260009082015260c00190565b8035600081900b81146121fe57600080fd5b6001600160a01b03612650826121e7565b1682526001600160a01b03612667602083016121e7565b1660208301526126796040820161262d565b60000b60408301525050565b831515815260a0810161269b602083018561263f565b826080830152949350505050565b6000602082840312156126bb57600080fd5b8151611f8281612288565b6000602082840312156126d857600080fd5b611f82826121e7565b80516001600160a01b03908116835260208083015182169084015260408083015162ffffff169084015260608083015191821690840152506080810151608083015260a081015160a083015260c081015160c083015260e081015161275160e08401826001600160a01b03169052565b505050565b610100810161199382846126e1565b60006020828403121561277757600080fd5b5051919050565b821515815260808101611f82602083018461263f565b60608101611993828461263f565b6040516060810167ffffffffffffffff811182821017156127d357634e487b7160e01b600052604160045260246000fd5b60405290565b8051600781900b81146121fe57600080fd5b600060608284031280156127fe57600080fd5b506128076127a2565b825161281281612288565b8152602083015161282281612288565b6020820152612833604084016127d9565b60408201529392505050565b6000606082840312801561285257600080fd5b5061285b6127a2565b825161286681612288565b8152612874602084016127d9565b6020820152604083015165ffffffffffff8116811461283357600080fd5b805161ffff811681146121fe57600080fd5b600060808284031280156128b757600080fd5b506040516080810167ffffffffffffffff811182821017156128e957634e487b7160e01b600052604160045260246000fd5b6040526128f583612892565b815261290360208401612892565b602082015260408301516129168161230c565b604082015261292760608401612892565b60608201529392505050565b60006020828403121561294557600080fd5b611f828261262d565b634e487b7160e01b600052601160045260246000fd5b808201808211156119935761199361294e565b600081810b6080810161298c5761298c61294e565b60000392915050565b80820281158282048414176119935761199361294e565b634e487b7160e01b600052601260045260246000fd5b6000826129d1576129d16129ac565b500490565b6000602082840312156129e857600080fd5b815160ff81168114611f8257600080fd5b6001600160901b0381811683821601908111156119935761199361294e565b6000825160005b81811015612a395760208186018101518583015201612a1f565b506000920191825250919050565b6001815b6001841115612a8257808504811115612a6657612a6661294e565b6001841615612a7457908102905b60019390931c928002612a4b565b935093915050565b600082612a9957506001611993565b81612aa657506000611993565b8160018114612abc5760028114612ac657612ae2565b6001915050611993565b60ff841115612ad757612ad761294e565b50506001821b611993565b5060208310610133831016604e8410600b8410161715612b05575081810a611993565b612b126000198484612a47565b8060001904821115612b2657612b2661294e565b029392505050565b6000611f8260ff841683612a8a565b818103818111156119935761199361294e565b60006001600160481b03831680612b6957612b696129ac565b806001600160481b0384160491505092915050565b6001600160481b0381811683821601908111156119935761199361294e565b60006001600160801b03831680612bb657612bb66129ac565b806001600160801b038416049150509291505056fea2646970667358221220196b9056a95f4e96388d3111b36f49d98495aea95f5278a70bb1b37ec628a10664736f6c634300081a0033","linkReferences":{}},"methodIdentifiers":{"HASH_CREATION_CODE_APE()":"3600566b","SWAP_ROUTER()":"c6005893","VAULT()":"411557d1","burnAndSwap(address,uint256,(address,address,int8),uint256,uint256,uint24)":"06f486c1","getAddressAPE(address,uint256)":"b730f5e7","mint(address,uint256,(address,address,int8),uint144)":"41f961ed","mintWithETH(address,uint256,(address,address,int8))":"ad7b1aa6","onERC1155BatchReceived(address,address,uint256[],uint256[],bytes)":"bc197c81","onERC1155Received(address,address,uint256,uint256,bytes)":"f23a6e61","priceOfAPE((address,address,int8))":"58c6bdbd","priceOfTEA((address,address,int8))":"58676d0c","quoteBurn(bool,(address,address,int8),uint256)":"a4e59a9f","quoteMint(bool,(address,address,int8),uint144)":"7ef3090a","swapAndMint(address,uint256,(address,address,int8),uint256,uint256,uint24)":"dba184ad"},"id":68}