{"abi":[{"type":"constructor","inputs":[{"name":"vault","type":"address","internalType":"address"},{"name":"oracle","type":"address","internalType":"address"},{"name":"uniswapV3Factory","type":"address","internalType":"address"}],"stateMutability":"nonpayable"},{"type":"function","name":"VAULT","inputs":[],"outputs":[{"name":"","type":"address","internalType":"contract IVault"}],"stateMutability":"view"},{"type":"function","name":"getAddressAPE","inputs":[{"name":"vaultId","type":"uint48","internalType":"uint48"}],"outputs":[{"name":"","type":"address","internalType":"address"}],"stateMutability":"view"},{"type":"function","name":"getReserves","inputs":[{"name":"vaultIds","type":"uint48[]","internalType":"uint48[]"}],"outputs":[{"name":"reserves","type":"tuple[]","internalType":"struct SirStructs.Reserves[]","components":[{"name":"reserveApes","type":"uint144","internalType":"uint144"},{"name":"reserveLPers","type":"uint144","internalType":"uint144"},{"name":"tickPriceX42","type":"int64","internalType":"int64"}]}],"stateMutability":"view"},{"type":"function","name":"getUserBalances","inputs":[{"name":"user","type":"address","internalType":"address"},{"name":"offset","type":"uint256","internalType":"uint256"},{"name":"numVaults","type":"uint256","internalType":"uint256"}],"outputs":[{"name":"apeBalances","type":"uint256[]","internalType":"uint256[]"},{"name":"teaBalances","type":"uint256[]","internalType":"uint256[]"},{"name":"unclaimedSirRewards","type":"uint80[]","internalType":"uint80[]"}],"stateMutability":"view"},{"type":"function","name":"getVaultStatus","inputs":[{"name":"vaultParams","type":"tuple","internalType":"struct SirStructs.VaultParameters","components":[{"name":"debtToken","type":"address","internalType":"address"},{"name":"collateralToken","type":"address","internalType":"address"},{"name":"leverageTier","type":"int8","internalType":"int8"}]}],"outputs":[{"name":"","type":"uint8","internalType":"enum Assistant.VaultStatus"}],"stateMutability":"view"},{"type":"function","name":"priceOfAPE","inputs":[{"name":"vaultParams","type":"tuple","internalType":"struct SirStructs.VaultParameters","components":[{"name":"debtToken","type":"address","internalType":"address"},{"name":"collateralToken","type":"address","internalType":"address"},{"name":"leverageTier","type":"int8","internalType":"int8"}]}],"outputs":[{"name":"num","type":"uint256","internalType":"uint256"},{"name":"den","type":"uint256","internalType":"uint256"}],"stateMutability":"view"},{"type":"function","name":"priceOfTEA","inputs":[{"name":"vaultParams","type":"tuple","internalType":"struct SirStructs.VaultParameters","components":[{"name":"debtToken","type":"address","internalType":"address"},{"name":"collateralToken","type":"address","internalType":"address"},{"name":"leverageTier","type":"int8","internalType":"int8"}]}],"outputs":[{"name":"num","type":"uint256","internalType":"uint256"},{"name":"den","type":"uint256","internalType":"uint256"}],"stateMutability":"view"},{"type":"function","name":"quoteBurn","inputs":[{"name":"isAPE","type":"bool","internalType":"bool"},{"name":"vaultParams","type":"tuple","internalType":"struct SirStructs.VaultParameters","components":[{"name":"debtToken","type":"address","internalType":"address"},{"name":"collateralToken","type":"address","internalType":"address"},{"name":"leverageTier","type":"int8","internalType":"int8"}]},{"name":"amountTokens","type":"uint256","internalType":"uint256"}],"outputs":[{"name":"amountCollateral","type":"uint144","internalType":"uint144"}],"stateMutability":"view"},{"type":"function","name":"quoteCollateralToDebtToken","inputs":[{"name":"debtToken","type":"address","internalType":"address"},{"name":"collateralToken","type":"address","internalType":"address"},{"name":"amountCollateral","type":"uint256","internalType":"uint256"}],"outputs":[{"name":"amountDebtToken","type":"uint256","internalType":"uint256"}],"stateMutability":"view"},{"type":"function","name":"quoteMint","inputs":[{"name":"isAPE","type":"bool","internalType":"bool"},{"name":"vaultParams","type":"tuple","internalType":"struct SirStructs.VaultParameters","components":[{"name":"debtToken","type":"address","internalType":"address"},{"name":"collateralToken","type":"address","internalType":"address"},{"name":"leverageTier","type":"int8","internalType":"int8"}]},{"name":"amountCollateral","type":"uint144","internalType":"uint144"}],"outputs":[{"name":"amountTokens","type":"uint256","internalType":"uint256"}],"stateMutability":"view"},{"type":"function","name":"quoteMintWithDebtToken","inputs":[{"name":"isAPE","type":"bool","internalType":"bool"},{"name":"vaultParams","type":"tuple","internalType":"struct SirStructs.VaultParameters","components":[{"name":"debtToken","type":"address","internalType":"address"},{"name":"collateralToken","type":"address","internalType":"address"},{"name":"leverageTier","type":"int8","internalType":"int8"}]},{"name":"amountDebtToken","type":"uint256","internalType":"uint256"}],"outputs":[{"name":"amountTokens","type":"uint256","internalType":"uint256"},{"name":"amountCollateral","type":"uint256","internalType":"uint256"},{"name":"amountCollateralIdeal","type":"uint256","internalType":"uint256"}],"stateMutability":"view"},{"type":"error","name":"AmountTooLow","inputs":[]},{"type":"error","name":"TEAMaxSupplyExceeded","inputs":[]},{"type":"error","name":"TooMuchCollateral","inputs":[]},{"type":"error","name":"VaultDoesNotExist","inputs":[]}],"bytecode":{"object":"0x610100604052348015610010575f5ffd5b506040516148153803806148158339818101604052810190610032919061021c565b8273ffffffffffffffffffffffffffffffffffffffff1660808173ffffffffffffffffffffffffffffffffffffffff16815250508173ffffffffffffffffffffffffffffffffffffffff1660a08173ffffffffffffffffffffffffffffffffffffffff16815250508073ffffffffffffffffffffffffffffffffffffffff1660c08173ffffffffffffffffffffffffffffffffffffffff16815250506001460361012357735e55c9e631fae526cd4b0526c4818d6e0a9ef0e373ffffffffffffffffffffffffffffffffffffffff1660e08173ffffffffffffffffffffffffffffffffffffffff16815250506101b6565b62aa36a7460361017a5773e3c07ebf66b9d070b589bcca30903891f71a92be73ffffffffffffffffffffffffffffffffffffffff1660e08173ffffffffffffffffffffffffffffffffffffffff16815250506101b5565b6040517f08c379a00000000000000000000000000000000000000000000000000000000081526004016101ac906102c6565b60405180910390fd5b5b5050506102e4565b5f5ffd5b5f73ffffffffffffffffffffffffffffffffffffffff82169050919050565b5f6101eb826101c2565b9050919050565b6101fb816101e1565b8114610205575f5ffd5b50565b5f81519050610216816101f2565b92915050565b5f5f5f60608486031215610233576102326101be565b5b5f61024086828701610208565b935050602061025186828701610208565b925050604061026286828701610208565b9150509250925092565b5f82825260208201905092915050565b7f4e6574776f726b206e6f7420737570706f7274656400000000000000000000005f82015250565b5f6102b060158361026c565b91506102bb8261027c565b602082019050919050565b5f6020820190508181035f8301526102dd816102a4565b9050919050565b60805160a05160c05160e05161445d6103b85f395f610a9601525f61242201525f818161068c015281816109d70152610c1701525f81816105c601528181610f6501528181610f8c01528181611042015281816110dc015281816111840152818161121f015281816112ee01528181611518015281816115ef015281816116be015281816117c8015281816118f50152818161199001528181611b6701528181611df801528181611ea101528181611f620152818161202f015281816121480152818161228e015261234f015261445d5ff3fe608060405234801561000f575f5ffd5b50600436106100a7575f3560e01c806358c6bdbd1161006f57806358c6bdbd1461018c5780637b6127fa146101bd5780637ef3090a146101ef5780638d0f78441461021f578063a0193ec41461024f578063a4e59a9f1461027f576100a7565b8063049354b9146100ab5780632f3ccd42146100db57806337961f8d1461010b578063411557d11461013d57806358676d0c1461015b575b5f5ffd5b6100c560048036038101906100c09190612b64565b6102af565b6040516100d29190612c02565b60405180910390f35b6100f560048036038101906100f09190612ca8565b610688565b6040516101029190612d07565b60405180910390f35b61012560048036038101906101209190612d55565b610998565b60405161013493929190612da5565b60405180910390f35b610145610f63565b6040516101529190612e35565b60405180910390f35b61017560048036038101906101709190612b64565b610f87565b604051610183929190612e4e565b60405180910390f35b6101a660048036038101906101a19190612b64565b61117f565b6040516101b4929190612e4e565b60405180910390f35b6101d760048036038101906101d29190612e75565b611409565b6040516101e693929190613048565b60405180910390f35b610209600480360381019061020491906130d9565b6117c4565b6040516102169190612d07565b60405180910390f35b61023960048036038101906102349190613164565b611df2565b604051610246919061319e565b60405180910390f35b61026960048036038101906102649190613218565b611e2c565b6040516102769190613375565b60405180910390f35b61029960048036038101906102949190612d55565b61202b565b6040516102a691906133a4565b60405180910390f35b5f5f8260200160208101906102c491906133bd565b73ffffffffffffffffffffffffffffffffffffffff163b036102e8575f9050610683565b5f825f0160208101906102fb91906133bd565b73ffffffffffffffffffffffffffffffffffffffff163b0361031f575f9050610683565b5f82602001602081019061033391906133bd565b73ffffffffffffffffffffffffffffffffffffffff166318160ddd60e01b604051602401604051602081830303815290604052907bffffffffffffffffffffffffffffffffffffffffffffffffffffffff19166020820180517bffffffffffffffffffffffffffffffffffffffffffffffffffffffff83818316178352505050506040516103c1919061343a565b5f60405180830381855afa9150503d805f81146103f9576040519150601f19603f3d011682016040523d82523d5f602084013e6103fe565b606091505b5050905080610410575f915050610683565b825f01602081019061042291906133bd565b73ffffffffffffffffffffffffffffffffffffffff166318160ddd60e01b604051602401604051602081830303815290604052907bffffffffffffffffffffffffffffffffffffffffffffffffffffffff19166020820180517bffffffffffffffffffffffffffffffffffffffffffffffffffffffff83818316178352505050506040516104b0919061343a565b5f60405180830381855afa9150503d805f81146104e8576040519150601f19603f3d011682016040523d82523d5f602084013e6104ed565b606091505b50508091505080610501575f915050610683565b7ffffffffffffffffffffffffffffffffffffffffffffffffffffffffffffffffc5f0b8360400160208101906105379190613485565b5f0b128061055b575060025f0b8360400160208101906105579190613485565b5f0b135b15610569575f915050610683565b61057483606461241b565b15801561058a5750610588836101f461241b565b155b801561059f575061059d83610bb861241b565b155b80156105b457506105b28361271061241b565b155b156105c3576001915050610683565b5f7f000000000000000000000000000000000000000000000000000000000000000073ffffffffffffffffffffffffffffffffffffffff16632edf3104856040518263ffffffff1660e01b815260040161061d9190613552565b606060405180830381865afa158015610638573d5f5f3e3d5ffd5b505050506040513d601f19601f8201168201806040525081019061065c91906136aa565b90505f816040015165ffffffffffff160361067c57600292505050610683565b6003925050505b919050565b5f5f7f000000000000000000000000000000000000000000000000000000000000000073ffffffffffffffffffffffffffffffffffffffff1663f3209e0086866040518363ffffffff1660e01b81526004016106e59291906136d5565b602060405180830381865afa158015610700573d5f5f3e3d5ffd5b505050506040513d601f19601f820116820180604052508101906107249190613710565b90505f8173ffffffffffffffffffffffffffffffffffffffff16633850c7bd6040518163ffffffff1660e01b815260040160e060405180830381865afa158015610770573d5f5f3e3d5ffd5b505050506040513d601f19601f82011682018060405250810190610794919061381c565b50505050505090505f8273ffffffffffffffffffffffffffffffffffffffff1663d21220a76040518163ffffffff1660e01b8152600401602060405180830381865afa1580156107e6573d5f5f3e3d5ffd5b505050506040513d601f19601f8201168201806040525081019061080a9190613710565b73ffffffffffffffffffffffffffffffffffffffff168673ffffffffffffffffffffffffffffffffffffffff161490506fffffffffffffffffffffffffffffffff80168273ffffffffffffffffffffffffffffffffffffffff1611610903575f8273ffffffffffffffffffffffffffffffffffffffff168373ffffffffffffffffffffffffffffffffffffffff166108a291906138e6565b905081156108d3576108ce78010000000000000000000000000000000000000000000000008783612495565b6108f8565b6108f781877801000000000000000000000000000000000000000000000000612495565b5b945050505050610991565b5f6109448373ffffffffffffffffffffffffffffffffffffffff168473ffffffffffffffffffffffffffffffffffffffff1668010000000000000000612495565b9050811561096d576109687001000000000000000000000000000000008783612495565b61098a565b6109898187700100000000000000000000000000000000612495565b5b9450505050505b9392505050565b5f5f5f5f84036109d4576040517f1fbaba3500000000000000000000000000000000000000000000000000000000815260040160405180910390fd5b5f7f000000000000000000000000000000000000000000000000000000000000000073ffffffffffffffffffffffffffffffffffffffff1663c7dd5c0a875f016020810190610a2391906133bd565b886020016020810190610a3691906133bd565b6040518363ffffffff1660e01b8152600401610a539291906136d5565b602060405180830381865afa158015610a6e573d5f5f3e3d5ffd5b505050506040513d601f19601f82011682018060405250810190610a92919061395f565b90507f000000000000000000000000000000000000000000000000000000000000000073ffffffffffffffffffffffffffffffffffffffff1663c6a5026a6040518060a00160405280895f016020810190610aed91906133bd565b73ffffffffffffffffffffffffffffffffffffffff168152602001896020016020810190610b1b91906133bd565b73ffffffffffffffffffffffffffffffffffffffff1681526020018881526020018462ffffff1681526020015f73ffffffffffffffffffffffffffffffffffffffff168152506040518263ffffffff1660e01b8152600401610b7d9190613a0e565b608060405180830381865afa158015610b98573d5f5f3e3d5ffd5b505050506040513d601f19601f82011682018060405250810190610bbc9190613a74565b9091509050508093505071ffffffffffffffffffffffffffffffffffff8016831115610c14576040517f5baa913500000000000000000000000000000000000000000000000000000000815260040160405180910390fd5b5f7f000000000000000000000000000000000000000000000000000000000000000073ffffffffffffffffffffffffffffffffffffffff1663f3209e00885f016020810190610c6391906133bd565b896020016020810190610c7691906133bd565b6040518363ffffffff1660e01b8152600401610c939291906136d5565b602060405180830381865afa158015610cae573d5f5f3e3d5ffd5b505050506040513d601f19601f82011682018060405250810190610cd29190613710565b90505f8173ffffffffffffffffffffffffffffffffffffffff16633850c7bd6040518163ffffffff1660e01b815260040160e060405180830381865afa158015610d1e573d5f5f3e3d5ffd5b505050506040513d601f19601f82011682018060405250810190610d42919061381c565b50505050505090505f8273ffffffffffffffffffffffffffffffffffffffff1663d21220a76040518163ffffffff1660e01b8152600401602060405180830381865afa158015610d94573d5f5f3e3d5ffd5b505050506040513d601f19601f82011682018060405250810190610db89190613710565b73ffffffffffffffffffffffffffffffffffffffff16896020016020810190610de191906133bd565b73ffffffffffffffffffffffffffffffffffffffff161490506fffffffffffffffffffffffffffffffff80168273ffffffffffffffffffffffffffffffffffffffff1611610ebf575f8273ffffffffffffffffffffffffffffffffffffffff168373ffffffffffffffffffffffffffffffffffffffff16610e6291906138e6565b905081610e9257610e8d818a7801000000000000000000000000000000000000000000000000612495565b610eb7565b610eb678010000000000000000000000000000000000000000000000008a83612495565b5b955050610f49565b5f610f008373ffffffffffffffffffffffffffffffffffffffff168473ffffffffffffffffffffffffffffffffffffffff1668010000000000000000612495565b905081610f2857610f23818a700100000000000000000000000000000000612495565b610f45565b610f447001000000000000000000000000000000008a83612495565b5b9550505b610f548a8a886117c4565b96505050505093509350939050565b7f000000000000000000000000000000000000000000000000000000000000000081565b5f5f5f7f000000000000000000000000000000000000000000000000000000000000000073ffffffffffffffffffffffffffffffffffffffff1663fbd98edf856040518263ffffffff1660e01b8152600401610fe39190613552565b606060405180830381865afa158015610ffe573d5f5f3e3d5ffd5b505050506040513d601f19601f820116820180604052508101906110229190613b39565b9050806020015171ffffffffffffffffffffffffffffffffffff1692505f7f000000000000000000000000000000000000000000000000000000000000000073ffffffffffffffffffffffffffffffffffffffff16632edf3104866040518263ffffffff1660e01b81526004016110999190613552565b606060405180830381865afa1580156110b4573d5f5f3e3d5ffd5b505050506040513d601f19601f820116820180604052508101906110d891906136aa565b90507f000000000000000000000000000000000000000000000000000000000000000073ffffffffffffffffffffffffffffffffffffffff1663bd85b03982604001516040518263ffffffff1660e01b81526004016111379190613b94565b602060405180830381865afa158015611152573d5f5f3e3d5ffd5b505050506040513d601f19601f820116820180604052508101906111769190613bad565b92505050915091565b5f5f5f7f000000000000000000000000000000000000000000000000000000000000000073ffffffffffffffffffffffffffffffffffffffff1663fbd98edf856040518263ffffffff1660e01b81526004016111db9190613552565b606060405180830381865afa1580156111f6573d5f5f3e3d5ffd5b505050506040513d601f19601f8201168201806040525081019061121a9190613b39565b90505f7f000000000000000000000000000000000000000000000000000000000000000073ffffffffffffffffffffffffffffffffffffffff1663458e8e6b6040518163ffffffff1660e01b815260040161010060405180830381865afa158015611287573d5f5f3e3d5ffd5b505050506040513d601f19601f820116820180604052508101906112ab9190613ce9565b90506112d5825f0151825f01515f01518760400160208101906112ce9190613485565b5f0b612586565b71ffffffffffffffffffffffffffffffffffff1693505f7f000000000000000000000000000000000000000000000000000000000000000073ffffffffffffffffffffffffffffffffffffffff16632edf3104876040518263ffffffff1660e01b81526004016113459190613552565b606060405180830381865afa158015611360573d5f5f3e3d5ffd5b505050506040513d601f19601f8201168201806040525081019061138491906136aa565b90506113938160400151611df2565b73ffffffffffffffffffffffffffffffffffffffff166318160ddd6040518163ffffffff1660e01b8152600401602060405180830381865afa1580156113db573d5f5f3e3d5ffd5b505050506040513d601f19601f820116820180604052508101906113ff9190613bad565b9350505050915091565b60608060605f8467ffffffffffffffff8111156114295761142861357f565b5b6040519080825280602002602001820160405280156114575781602001602082028036833780820191505090505b5093508467ffffffffffffffff8111156114745761147361357f565b5b6040519080825280602002602001820160405280156114a25781602001602082028036833780820191505090505b5092508467ffffffffffffffff8111156114bf576114be61357f565b5b6040519080825280602002602001820160405280156114ed5781602001602082028036833780820191505090505b5091505f6001876114fe9190613d15565b90505b858761150d9190613d15565b81116117b95761153d7f0000000000000000000000000000000000000000000000000000000000000000826125f3565b91508173ffffffffffffffffffffffffffffffffffffffff166370a08231896040518263ffffffff1660e01b8152600401611578919061319e565b602060405180830381865afa158015611593573d5f5f3e3d5ffd5b505050506040513d601f19601f820116820180604052508101906115b79190613bad565b85600189846115c69190613d48565b6115d09190613d48565b815181106115e1576115e0613d7b565b5b6020026020010181815250507f000000000000000000000000000000000000000000000000000000000000000073ffffffffffffffffffffffffffffffffffffffff1662fdd58e89836040518363ffffffff1660e01b8152600401611647929190613da8565b602060405180830381865afa158015611662573d5f5f3e3d5ffd5b505050506040513d601f19601f820116820180604052508101906116869190613bad565b84600189846116959190613d48565b61169f9190613d48565b815181106116b0576116af613d7b565b5b6020026020010181815250507f000000000000000000000000000000000000000000000000000000000000000073ffffffffffffffffffffffffffffffffffffffff166346f90748828a6040518363ffffffff1660e01b8152600401611717929190613dcf565b602060405180830381865afa158015611732573d5f5f3e3d5ffd5b505050506040513d601f19601f820116820180604052508101906117569190613e20565b83600189846117659190613d48565b61176f9190613d48565b815181106117805761177f613d7b565b5b602002602001019069ffffffffffffffffffff16908169ffffffffffffffffffff168152505080806117b190613e4b565b915050611501565b505093509350939050565b5f5f7f000000000000000000000000000000000000000000000000000000000000000073ffffffffffffffffffffffffffffffffffffffff16632edf3104856040518263ffffffff1660e01b815260040161181f9190613552565b606060405180830381865afa15801561183a573d5f5f3e3d5ffd5b505050506040513d601f19601f8201168201806040525081019061185e91906136aa565b90505f816040015165ffffffffffff16036118a5576040517f4d827f1700000000000000000000000000000000000000000000000000000000815260040160405180910390fd5b5f8371ffffffffffffffffffffffffffffffffffff16036118f2576040517f1fbaba3500000000000000000000000000000000000000000000000000000000815260040160405180910390fd5b5f7f000000000000000000000000000000000000000000000000000000000000000073ffffffffffffffffffffffffffffffffffffffff1663fbd98edf866040518263ffffffff1660e01b815260040161194c9190613552565b606060405180830381865afa158015611967573d5f5f3e3d5ffd5b505050506040513d601f19601f8201168201806040525081019061198b9190613b39565b90505f7f000000000000000000000000000000000000000000000000000000000000000073ffffffffffffffffffffffffffffffffffffffff1663458e8e6b6040518163ffffffff1660e01b815260040161010060405180830381865afa1580156119f8573d5f5f3e3d5ffd5b505050506040513d601f19601f82011682018060405250810190611a1c9190613ce9565b90508615611b3c575f611a4a86835f01515f0151896040016020810190611a439190613485565b5f0b612586565b71ffffffffffffffffffffffffffffffffffff1690505f611a6e8560400151611df2565b90505f8173ffffffffffffffffffffffffffffffffffffffff166318160ddd6040518163ffffffff1660e01b8152600401602060405180830381865afa158015611aba573d5f5f3e3d5ffd5b505050506040513d601f19601f82011682018060405250810190611ade9190613bad565b90505f8114611b0e57611b098184875f015171ffffffffffffffffffffffffffffffffffff16612495565b611b32565b845f015171ffffffffffffffffffffffffffffffffffff1683611b319190613d15565b5b9650505050611daf565b5f611b4e8683602001515f0151612661565b71ffffffffffffffffffffffffffffffffffff1690505f7f000000000000000000000000000000000000000000000000000000000000000073ffffffffffffffffffffffffffffffffffffffff1663bd85b03986604001516040518263ffffffff1660e01b8152600401611bc29190613b94565b602060405180830381865afa158015611bdd573d5f5f3e3d5ffd5b505050506040513d601f19601f82011682018060405250810190611c019190613bad565b90505f8114611c4657611c41818871ffffffffffffffffffffffffffffffffffff16866020015171ffffffffffffffffffffffffffffffffffff16612495565b611c72565b611c71886020016020810190611c5c91906133bd565b856020015189611c6c9190613e92565b6126a5565b5b95508061ffff8016606067016345785d8a000060016301e133806001600c600a611c9c9190614006565b63781a75c0611cab91906138e6565b611cb59190613d48565b611cbf9190614091565b611cc991906140c1565b68ffffffffffffffffff1666c71fd7dfe24c00611ce691906138e6565b611cf091906140fd565b68ffffffffffffffffff166fffffffffffffffffffffffffffffffff16901b611d199190614148565b6fffffffffffffffffffffffffffffffff16611d359190613d48565b861115611d6e576040517f6deac20700000000000000000000000000000000000000000000000000000000815260040160405180910390fd5b611daa86835f8414611d805789611d91565b86602001518a611d909190613e92565b5b71ffffffffffffffffffffffffffffffffffff16612495565b955050505b5f8403611de8576040517f1fbaba3500000000000000000000000000000000000000000000000000000000815260040160405180910390fd5b5050509392505050565b5f611e257f00000000000000000000000000000000000000000000000000000000000000008365ffffffffffff166125f3565b9050919050565b60608282905067ffffffffffffffff811115611e4b57611e4a61357f565b5b604051908082528060200260200182016040528015611e8457816020015b611e71612a4d565b815260200190600190039081611e695790505b509050611e8f612a96565b5f5f90505b84849050811015612023577f000000000000000000000000000000000000000000000000000000000000000073ffffffffffffffffffffffffffffffffffffffff1663d2f3fd09868684818110611eee57611eed613d7b565b5b9050602002016020810190611f039190613164565b6040518263ffffffff1660e01b8152600401611f1f9190614187565b606060405180830381865afa158015611f3a573d5f5f3e3d5ffd5b505050506040513d601f19601f82011682018060405250810190611f5e9190614215565b91507f000000000000000000000000000000000000000000000000000000000000000073ffffffffffffffffffffffffffffffffffffffff1663fbd98edf836040518263ffffffff1660e01b8152600401611fb99190614280565b606060405180830381865afa158015611fd4573d5f5f3e3d5ffd5b505050506040513d601f19601f82011682018060405250810190611ff89190613b39565b83828151811061200b5761200a613d7b565b5b60200260200101819052508080600101915050611e94565b505092915050565b5f5f7f000000000000000000000000000000000000000000000000000000000000000073ffffffffffffffffffffffffffffffffffffffff16632edf3104856040518263ffffffff1660e01b81526004016120869190613552565b606060405180830381865afa1580156120a1573d5f5f3e3d5ffd5b505050506040513d601f19601f820116820180604052508101906120c591906136aa565b90505f816040015165ffffffffffff160361210c576040517f4d827f1700000000000000000000000000000000000000000000000000000000815260040160405180910390fd5b5f8303612145576040517f1fbaba3500000000000000000000000000000000000000000000000000000000815260040160405180910390fd5b5f7f000000000000000000000000000000000000000000000000000000000000000073ffffffffffffffffffffffffffffffffffffffff1663fbd98edf866040518263ffffffff1660e01b815260040161219f9190613552565b606060405180830381865afa1580156121ba573d5f5f3e3d5ffd5b505050506040513d601f19601f820116820180604052508101906121de9190613b39565b9050851561234c575f6121f48360400151611df2565b90505f8173ffffffffffffffffffffffffffffffffffffffff166318160ddd6040518163ffffffff1660e01b8152600401602060405180830381865afa158015612240573d5f5f3e3d5ffd5b505050506040513d601f19601f820116820180604052508101906122649190613bad565b90505f612289845f015171ffffffffffffffffffffffffffffffffffff168884612495565b90505f7f000000000000000000000000000000000000000000000000000000000000000073ffffffffffffffffffffffffffffffffffffffff1663458e8e6b6040518163ffffffff1660e01b815260040161010060405180830381865afa1580156122f6573d5f5f3e3d5ffd5b505050506040513d601f19601f8201168201806040525081019061231a9190613ce9565b905061234182825f01515f01518b604001602081019061233a9190613485565b5f0b612586565b965050505050612412565b5f7f000000000000000000000000000000000000000000000000000000000000000073ffffffffffffffffffffffffffffffffffffffff1663bd85b03984604001516040518263ffffffff1660e01b81526004016123aa9190613b94565b602060405180830381865afa1580156123c5573d5f5f3e3d5ffd5b505050506040513d601f19601f820116820180604052508101906123e99190613bad565b905061240e826020015171ffffffffffffffffffffffffffffffffffff168683612495565b9350505b50509392505050565b5f5f6124747f000000000000000000000000000000000000000000000000000000000000000061246f86602001602081019061245791906133bd565b875f01602081019061246991906133bd565b876128e6565b612982565b73ffffffffffffffffffffffffffffffffffffffff163b1415905092915050565b5f5f5f5f198587098587029250828110838203039150505f81036124ca575f84116124be575f5ffd5b8382049250505061257f565b8084116124d5575f5ffd5b5f8486880990508281118203915080830392505f856001877fffffffffffffffffffffffffffffffffffffffffffffffffffffffffffffffff030116905080860495508084049350600181825f0304019050808302841793505f600287600302189050808702600203810290508087026002038102905080870260020381029050808702600203810290508087026002038102905080870260020381029050808502955050505050505b9392505050565b5f5f5f5f84126125a8576127109150838561ffff16901b6127100190506125c1565b5f845f03612710901b90508092508561ffff1681019150505b80828771ffffffffffffffffffffffffffffffffffff1602816125e7576125e6614064565b5b04925050509392505050565b5f604051835f5260ff600b53826020527f21c35dbe1b344a2488cf3321d6ce542f8e9f305544ff09e4993a62319a497c1f6040526055600b206014528060405261d6945f52600160345373ffffffffffffffffffffffffffffffffffffffff6017601e201691505092915050565b5f5f61271090505f8361ffff1661271001905080828671ffffffffffffffffffffffffffffffffffff16028161269a57612699614064565b5b049250505092915050565b5f5f8373ffffffffffffffffffffffffffffffffffffffff166318160ddd6040518163ffffffff1660e01b8152600401602060405180830381865afa1580156126f0573d5f5f3e3d5ffd5b505050506040513d601f19601f820116820180604052508101906127149190613bad565b9050620f424061ffff8016606067016345785d8a000060016301e133806001600c600a6127419190614006565b63781a75c061275091906138e6565b61275a9190613d48565b6127649190614091565b61276e91906140c1565b68ffffffffffffffffff1666c71fd7dfe24c0061278b91906138e6565b61279591906140fd565b68ffffffffffffffffff166fffffffffffffffffffffffffffffffff16901b6127be9190614148565b6127c89190614148565b6fffffffffffffffffffffffffffffffff16811161280857620f4240836127ef9190614299565b71ffffffffffffffffffffffffffffffffffff166128dd565b6128dc61ffff8016606067016345785d8a000060016301e133806001600c600a6128329190614006565b63781a75c061284191906138e6565b61284b9190613d48565b6128559190614091565b61285f91906140c1565b68ffffffffffffffffff1666c71fd7dfe24c0061287c91906138e6565b61288691906140fd565b68ffffffffffffffffff166fffffffffffffffffffffffffffffffff16901b6128af9190614148565b6fffffffffffffffffffffffffffffffff168471ffffffffffffffffffffffffffffffffffff1683612495565b5b91505092915050565b6128ee612ae2565b8273ffffffffffffffffffffffffffffffffffffffff168473ffffffffffffffffffffffffffffffffffffffff16111561292d57828480945081955050505b60405180606001604052808573ffffffffffffffffffffffffffffffffffffffff1681526020018473ffffffffffffffffffffffffffffffffffffffff1681526020018362ffffff1681525090509392505050565b5f816020015173ffffffffffffffffffffffffffffffffffffffff16825f015173ffffffffffffffffffffffffffffffffffffffff16106129c1575f5ffd5b82825f0151836020015184604001516040516020016129e2939291906142e9565b604051602081830303815290604052805190602001207fe34f199b19b2b4f47f68442619d555527d244f78a3297ea89325f843f87b8b545f1b604051602001612a2d939291906143e0565b604051602081830303815290604052805190602001205f1c905092915050565b60405180606001604052805f71ffffffffffffffffffffffffffffffffffff1681526020015f71ffffffffffffffffffffffffffffffffffff1681526020015f60070b81525090565b60405180606001604052805f73ffffffffffffffffffffffffffffffffffffffff1681526020015f73ffffffffffffffffffffffffffffffffffffffff1681526020015f5f0b81525090565b60405180606001604052805f73ffffffffffffffffffffffffffffffffffffffff1681526020015f73ffffffffffffffffffffffffffffffffffffffff1681526020015f62ffffff1681525090565b5f604051905090565b5f5ffd5b5f5ffd5b5f5ffd5b5f60608284031215612b5b57612b5a612b42565b5b81905092915050565b5f60608284031215612b7957612b78612b3a565b5b5f612b8684828501612b46565b91505092915050565b7f4e487b71000000000000000000000000000000000000000000000000000000005f52602160045260245ffd5b60048110612bcd57612bcc612b8f565b5b50565b5f819050612bdd82612bbc565b919050565b5f612bec82612bd0565b9050919050565b612bfc81612be2565b82525050565b5f602082019050612c155f830184612bf3565b92915050565b5f73ffffffffffffffffffffffffffffffffffffffff82169050919050565b5f612c4482612c1b565b9050919050565b612c5481612c3a565b8114612c5e575f5ffd5b50565b5f81359050612c6f81612c4b565b92915050565b5f819050919050565b612c8781612c75565b8114612c91575f5ffd5b50565b5f81359050612ca281612c7e565b92915050565b5f5f5f60608486031215612cbf57612cbe612b3a565b5b5f612ccc86828701612c61565b9350506020612cdd86828701612c61565b9250506040612cee86828701612c94565b9150509250925092565b612d0181612c75565b82525050565b5f602082019050612d1a5f830184612cf8565b92915050565b5f8115159050919050565b612d3481612d20565b8114612d3e575f5ffd5b50565b5f81359050612d4f81612d2b565b92915050565b5f5f5f60a08486031215612d6c57612d6b612b3a565b5b5f612d7986828701612d41565b9350506020612d8a86828701612b46565b9250506080612d9b86828701612c94565b9150509250925092565b5f606082019050612db85f830186612cf8565b612dc56020830185612cf8565b612dd26040830184612cf8565b949350505050565b5f819050919050565b5f612dfd612df8612df384612c1b565b612dda565b612c1b565b9050919050565b5f612e0e82612de3565b9050919050565b5f612e1f82612e04565b9050919050565b612e2f81612e15565b82525050565b5f602082019050612e485f830184612e26565b92915050565b5f604082019050612e615f830185612cf8565b612e6e6020830184612cf8565b9392505050565b5f5f5f60608486031215612e8c57612e8b612b3a565b5b5f612e9986828701612c61565b9350506020612eaa86828701612c94565b9250506040612ebb86828701612c94565b9150509250925092565b5f81519050919050565b5f82825260208201905092915050565b5f819050602082019050919050565b612ef781612c75565b82525050565b5f612f088383612eee565b60208301905092915050565b5f602082019050919050565b5f612f2a82612ec5565b612f348185612ecf565b9350612f3f83612edf565b805f5b83811015612f6f578151612f568882612efd565b9750612f6183612f14565b925050600181019050612f42565b5085935050505092915050565b5f81519050919050565b5f82825260208201905092915050565b5f819050602082019050919050565b5f69ffffffffffffffffffff82169050919050565b612fc381612fa5565b82525050565b5f612fd48383612fba565b60208301905092915050565b5f602082019050919050565b5f612ff682612f7c565b6130008185612f86565b935061300b83612f96565b805f5b8381101561303b5781516130228882612fc9565b975061302d83612fe0565b92505060018101905061300e565b5085935050505092915050565b5f6060820190508181035f8301526130608186612f20565b905081810360208301526130748185612f20565b905081810360408301526130888184612fec565b9050949350505050565b5f71ffffffffffffffffffffffffffffffffffff82169050919050565b6130b881613092565b81146130c2575f5ffd5b50565b5f813590506130d3816130af565b92915050565b5f5f5f60a084860312156130f0576130ef612b3a565b5b5f6130fd86828701612d41565b935050602061310e86828701612b46565b925050608061311f868287016130c5565b9150509250925092565b5f65ffffffffffff82169050919050565b61314381613129565b811461314d575f5ffd5b50565b5f8135905061315e8161313a565b92915050565b5f6020828403121561317957613178612b3a565b5b5f61318684828501613150565b91505092915050565b61319881612c3a565b82525050565b5f6020820190506131b15f83018461318f565b92915050565b5f5ffd5b5f5ffd5b5f5ffd5b5f5f83601f8401126131d8576131d76131b7565b5b8235905067ffffffffffffffff8111156131f5576131f46131bb565b5b602083019150836020820283011115613211576132106131bf565b5b9250929050565b5f5f6020838503121561322e5761322d612b3a565b5b5f83013567ffffffffffffffff81111561324b5761324a612b3e565b5b613257858286016131c3565b92509250509250929050565b5f81519050919050565b5f82825260208201905092915050565b5f819050602082019050919050565b61329581613092565b82525050565b5f8160070b9050919050565b6132b08161329b565b82525050565b606082015f8201516132ca5f85018261328c565b5060208201516132dd602085018261328c565b5060408201516132f060408501826132a7565b50505050565b5f61330183836132b6565b60608301905092915050565b5f602082019050919050565b5f61332382613263565b61332d818561326d565b93506133388361327d565b805f5b8381101561336857815161334f88826132f6565b975061335a8361330d565b92505060018101905061333b565b5085935050505092915050565b5f6020820190508181035f83015261338d8184613319565b905092915050565b61339e81613092565b82525050565b5f6020820190506133b75f830184613395565b92915050565b5f602082840312156133d2576133d1612b3a565b5b5f6133df84828501612c61565b91505092915050565b5f81519050919050565b5f81905092915050565b8281835e5f83830152505050565b5f613414826133e8565b61341e81856133f2565b935061342e8185602086016133fc565b80840191505092915050565b5f613445828461340a565b915081905092915050565b5f815f0b9050919050565b61346481613450565b811461346e575f5ffd5b50565b5f8135905061347f8161345b565b92915050565b5f6020828403121561349a57613499612b3a565b5b5f6134a784828501613471565b91505092915050565b5f6134be6020840184612c61565b905092915050565b6134cf81612c3a565b82525050565b5f6134e36020840184613471565b905092915050565b6134f481613450565b82525050565b6060820161350a5f8301836134b0565b6135165f8501826134c6565b5061352460208301836134b0565b61353160208501826134c6565b5061353f60408301836134d5565b61354c60408501826134eb565b50505050565b5f6060820190506135655f8301846134fa565b92915050565b5f5ffd5b5f601f19601f8301169050919050565b7f4e487b71000000000000000000000000000000000000000000000000000000005f52604160045260245ffd5b6135b58261356f565b810181811067ffffffffffffffff821117156135d4576135d361357f565b5b80604052505050565b5f6135e6612b31565b90506135f282826135ac565b919050565b5f81519050613605816130af565b92915050565b6136148161329b565b811461361e575f5ffd5b50565b5f8151905061362f8161360b565b92915050565b5f815190506136438161313a565b92915050565b5f6060828403121561365e5761365d61356b565b5b61366860606135dd565b90505f613677848285016135f7565b5f83015250602061368a84828501613621565b602083015250604061369e84828501613635565b60408301525092915050565b5f606082840312156136bf576136be612b3a565b5b5f6136cc84828501613649565b91505092915050565b5f6040820190506136e85f83018561318f565b6136f5602083018461318f565b9392505050565b5f8151905061370a81612c4b565b92915050565b5f6020828403121561372557613724612b3a565b5b5f613732848285016136fc565b91505092915050565b61374481612c1b565b811461374e575f5ffd5b50565b5f8151905061375f8161373b565b92915050565b5f8160020b9050919050565b61377a81613765565b8114613784575f5ffd5b50565b5f8151905061379581613771565b92915050565b5f61ffff82169050919050565b6137b18161379b565b81146137bb575f5ffd5b50565b5f815190506137cc816137a8565b92915050565b5f60ff82169050919050565b6137e7816137d2565b81146137f1575f5ffd5b50565b5f81519050613802816137de565b92915050565b5f8151905061381681612d2b565b92915050565b5f5f5f5f5f5f5f60e0888a03121561383757613836612b3a565b5b5f6138448a828b01613751565b97505060206138558a828b01613787565b96505060406138668a828b016137be565b95505060606138778a828b016137be565b94505060806138888a828b016137be565b93505060a06138998a828b016137f4565b92505060c06138aa8a828b01613808565b91505092959891949750929550565b7f4e487b71000000000000000000000000000000000000000000000000000000005f52601160045260245ffd5b5f6138f082612c75565b91506138fb83612c75565b925082820261390981612c75565b915082820484148315176139205761391f6138b9565b5b5092915050565b5f62ffffff82169050919050565b61393e81613927565b8114613948575f5ffd5b50565b5f8151905061395981613935565b92915050565b5f6020828403121561397457613973612b3a565b5b5f6139818482850161394b565b91505092915050565b61399381613927565b82525050565b6139a281612c1b565b82525050565b60a082015f8201516139bc5f8501826134c6565b5060208201516139cf60208501826134c6565b5060408201516139e26040850182612eee565b5060608201516139f5606085018261398a565b506080820151613a086080850182613999565b50505050565b5f60a082019050613a215f8301846139a8565b92915050565b5f81519050613a3581612c7e565b92915050565b5f63ffffffff82169050919050565b613a5381613a3b565b8114613a5d575f5ffd5b50565b5f81519050613a6e81613a4a565b92915050565b5f5f5f5f60808587031215613a8c57613a8b612b3a565b5b5f613a9987828801613a27565b9450506020613aaa87828801613751565b9350506040613abb87828801613a60565b9250506060613acc87828801613a27565b91505092959194509250565b5f60608284031215613aed57613aec61356b565b5b613af760606135dd565b90505f613b06848285016135f7565b5f830152506020613b19848285016135f7565b6020830152506040613b2d84828501613621565b60408301525092915050565b5f60608284031215613b4e57613b4d612b3a565b5b5f613b5b84828501613ad8565b91505092915050565b5f613b7e613b79613b7484613129565b612dda565b612c75565b9050919050565b613b8e81613b64565b82525050565b5f602082019050613ba75f830184613b85565b92915050565b5f60208284031215613bc257613bc1612b3a565b5b5f613bcf84828501613a27565b91505092915050565b5f64ffffffffff82169050919050565b613bf181613bd8565b8114613bfb575f5ffd5b50565b5f81519050613c0c81613be8565b92915050565b5f60608284031215613c2757613c2661356b565b5b613c3160606135dd565b90505f613c40848285016137be565b5f830152506020613c53848285016137be565b6020830152506040613c6784828501613bfe565b60408301525092915050565b5f6101008284031215613c8957613c8861356b565b5b613c9360806135dd565b90505f613ca284828501613c12565b5f830152506060613cb584828501613c12565b60208301525060c0613cc984828501613808565b60408301525060e0613cdd848285016137be565b60608301525092915050565b5f6101008284031215613cff57613cfe612b3a565b5b5f613d0c84828501613c73565b91505092915050565b5f613d1f82612c75565b9150613d2a83612c75565b9250828201905080821115613d4257613d416138b9565b5b92915050565b5f613d5282612c75565b9150613d5d83612c75565b9250828203905081811115613d7557613d746138b9565b5b92915050565b7f4e487b71000000000000000000000000000000000000000000000000000000005f52603260045260245ffd5b5f604082019050613dbb5f83018561318f565b613dc86020830184612cf8565b9392505050565b5f604082019050613de25f830185612cf8565b613def602083018461318f565b9392505050565b613dff81612fa5565b8114613e09575f5ffd5b50565b5f81519050613e1a81613df6565b92915050565b5f60208284031215613e3557613e34612b3a565b5b5f613e4284828501613e0c565b91505092915050565b5f613e5582612c75565b91507fffffffffffffffffffffffffffffffffffffffffffffffffffffffffffffffff8203613e8757613e866138b9565b5b600182019050919050565b5f613e9c82613092565b9150613ea783613092565b9250828201905071ffffffffffffffffffffffffffffffffffff811115613ed157613ed06138b9565b5b92915050565b5f8160011c9050919050565b5f5f8291508390505b6001851115613f2c57808604811115613f0857613f076138b9565b5b6001851615613f175780820291505b8081029050613f2585613ed7565b9450613eec565b94509492505050565b5f82613f445760019050613fff565b81613f51575f9050613fff565b8160018114613f675760028114613f7157613fa0565b6001915050613fff565b60ff841115613f8357613f826138b9565b5b8360020a915084821115613f9a57613f996138b9565b5b50613fff565b5060208310610133831016604e8410600b8410161715613fd55782820a905083811115613fd057613fcf6138b9565b5b613fff565b613fe28484846001613ee3565b92509050818404811115613ff957613ff86138b9565b5b81810290505b9392505050565b5f61401082612c75565b915061401b836137d2565b92506140487fffffffffffffffffffffffffffffffffffffffffffffffffffffffffffffffff8484613f35565b905092915050565b5f68ffffffffffffffffff82169050919050565b7f4e487b71000000000000000000000000000000000000000000000000000000005f52601260045260245ffd5b5f61409b82614050565b91506140a683614050565b9250826140b6576140b5614064565b5b828204905092915050565b5f6140cb82614050565b91506140d683614050565b9250828201905068ffffffffffffffffff8111156140f7576140f66138b9565b5b92915050565b5f61410782612c75565b915061411283612c75565b92508261412257614121614064565b5b828204905092915050565b5f6fffffffffffffffffffffffffffffffff82169050919050565b5f6141528261412d565b915061415d8361412d565b92508261416d5761416c614064565b5b828204905092915050565b61418181613129565b82525050565b5f60208201905061419a5f830184614178565b92915050565b5f815190506141ae8161345b565b92915050565b5f606082840312156141c9576141c861356b565b5b6141d360606135dd565b90505f6141e2848285016136fc565b5f8301525060206141f5848285016136fc565b6020830152506040614209848285016141a0565b60408301525092915050565b5f6060828403121561422a57614229612b3a565b5b5f614237848285016141b4565b91505092915050565b606082015f8201516142545f8501826134c6565b50602082015161426760208501826134c6565b50604082015161427a60408501826134eb565b50505050565b5f6060820190506142935f830184614240565b92915050565b5f6142a382613092565b91506142ae83613092565b92508282026142bc81613092565b915082820484148315176142d3576142d26138b9565b5b5092915050565b6142e381613927565b82525050565b5f6060820190506142fc5f83018661318f565b614309602083018561318f565b61431660408301846142da565b949350505050565b5f81905092915050565b7fff000000000000000000000000000000000000000000000000000000000000005f82015250565b5f61435c60018361431e565b915061436782614328565b600182019050919050565b5f8160601b9050919050565b5f61438882614372565b9050919050565b5f6143998261437e565b9050919050565b6143b16143ac82612c3a565b61438f565b82525050565b5f819050919050565b5f819050919050565b6143da6143d5826143b7565b6143c0565b82525050565b5f6143ea82614350565b91506143f682866143a0565b60148201915061440682856143c9565b60208201915061441682846143c9565b60208201915081905094935050505056fea2646970667358221220ab9db90e2fdb2009fe71de53157a4a64f63fbff802ebfab1d57caf329052d85264736f6c634300081c0033","linkReferences":{}},"methodIdentifiers":{"VAULT()":"411557d1","getAddressAPE(uint48)":"8d0f7844","getReserves(uint48[])":"a0193ec4","getUserBalances(address,uint256,uint256)":"7b6127fa","getVaultStatus((address,address,int8))":"049354b9","priceOfAPE((address,address,int8))":"58c6bdbd","priceOfTEA((address,address,int8))":"58676d0c","quoteBurn(bool,(address,address,int8),uint256)":"a4e59a9f","quoteCollateralToDebtToken(address,address,uint256)":"2f3ccd42","quoteMint(bool,(address,address,int8),uint144)":"7ef3090a","quoteMintWithDebtToken(bool,(address,address,int8),uint256)":"37961f8d"},"id":105}